:020000040800F2
:1000000038060020A90100089F130008990D000878
:100010009D1300080D020008E91900080000000007
:10002000000000000000000000000000851500082E
:100030000F02000800000000C11300088715000827
:10004000C3010008C3010008C3010008C301000880
:10005000C3010008C3010008C3010008C301000870
:10006000C3010008C3010008C3010008C301000860
:10007000C3010008C3010008C3010008C301000850
:10008000C3010008C3010008C3010008000000000C
:10009000000000000000000000000000C301000894
:1000A000C3010008C3010008C3010008C301000820
:1000B000C3010008C3010008C3010008C301000810
:1000C000C3010008C3010008C3010008C301000800
:1000D000C3010008C301000809190008000000005E
:1000E000C3010008C3010008C301000800000000AC
:1000F000000000000000000000000000C301000834
:1001000000000000C3010008C3010008C30100088B
:1001100000000000000000000000000000000000DF
:10012000C3010008C3010008C3010008C30100089F
:10013000C3010008000000000000000000000000F3
:10014000000000000000000000000000C3010008E3
:10015000C3010008C3010008C3010008C30100086F
:10016000C3010008C30100080000000000000000F7
:10017000000000000000000000000000000000007F
:1001800000000000C30100080000000000000000A3
:10019000C3010008DFF80CD000F018F80048004751
:1001A000211A000838060020064880470648004704
:1001B000FEE7FEE7FEE7FEE7FEE7FEE7FEE7FEE717
:1001C000FEE7FEE70916000895010008064C074DFA
:1001D00006E0E06840F0010394E807009847103417
:1001E000AC42F6D3FFF7DAFF003D0008203D0008DF
:1001F0000449054A31F8101052F82000012200F09D
:10020000CFB80000F21B000800000020FEE7704796
:100210000020FFF7EDFFFEE72DE9F84FDFF860B1B2
:1002200000224FF001084FF0030A4FF00F090BF1C5
:10023000040E00BF0B6808FA02F42340A3426ED1FB
:100240004D68022D01D0122D0ED1D50800EB850C82
:10025000DCF820505607F70E09FA07F6B5430E6989
:10026000BE402E43CCF82060066855000F790AFA8C
:1002700005FC07F0030726EA0C06AF40374307608A
:100280004E68012E05D0022E03D0112E01D0122E61
:100290000ED18668CF6826EA0C06AF4037438760E8
:1002A0004668A6430C79C4F3001494403443446078
:1002B000C6688C6826EA0C06AC403443C4604C68BF
:1002C000E40056D52F4C256845F480452560246808
:1002D00022F0030504F4804400942B4C2E19D6F828
:1002E000084895072F0F09FA07F5AC43274DA84298
:1002F00001D1002515E0264DA84201D1012510E0CD
:10030000244DA84201D102250BE0234DA84201D182
:10031000032506E0214DA84202D1042501E028E092
:100320000525BD402543C6F80858DBF800405D466A
:100330004E689C43F60300D51C432C60DEF8004059
:1003400075464E689C43B60300D51C432C600C4D8B
:1003500008352C684E689C43F60200D51C432C607F
:10036000074D0C352C684E689C43B60200D51C43E3
:100370002C60521C102AFFF45DAFBDE8F88F00001E
:10038000003C01404438024000300140000002407F
:100390000004024000080240000C0240001002402D
:1003A0000AB1816170470904FBE700000148006859
:1003B000704700000C0000200B4810B5016841F4A4
:1003C00000710160016841F480610160016841F4DD
:1003D00080710160032000F047F80F2000F006F85C
:1003E00000F015F8002010BD003C024010B5044696
:1003F00000F0ECF84FF47A71B0FBF1F000F0E6FB9E
:1004000000222146501E00F00FF8002010BD70475A
:1004100000F01F02012191404009800000F1E0201E
:10042000C0F8001170470000F0B40E4B1B680C467A
:10043000C3F30223C3F10705042D00D90425191DB8
:10044000072901D2002300E0DB1E012606FA05F190
:10045000491E214099409E40761E16403143F0BC13
:1004600000F09EBF0CED00E0064900F007020868AE
:100470004FF6FF03184040EA0220034A1043086089
:10048000704700000CED00E00000FA052DE9F04790
:10049000DFF830A105460F46DAF8000000F00F0142
:1004A000F8B28146B94208D201468AF80010DAF85B
:1004B000000000F00F00B8426AD12878424C800753
:1004C00005D52068A96820F0F0000843206028784E
:1004D000C0074FD03C4968680839012819D0022864
:1004E0001AD0032818D009688907002950DA216832
:1004F00021F0030101432160FFF758FF06466868B9
:1005000041F28838012810D002281AD003281ED0C2
:100510002CE009688903E8E709688901E5E700BF7D
:10052000FFF744FF811B41451DD82068C0F38100BF
:100530000128F5D11EE000BFFFF738FF811B4145C0
:1005400011D82068C0F381000228F5D112E020689C
:10055000FFF72CFF801B4045F9D904E0FFF726FF89
:10056000811B414502D90320BDE8F087206810F0C7
:100570000C0FF3D1DAF80010504601F00F01B94228
:1005800008D980F80090006800F00F00B84201D050
:100590000120E9E72878400705D52068E96820F4BC
:1005A000E050084320602878000706D520682969B4
:1005B00020F4604040EAC10020600F20FFF716FFE2
:1005C0000020D1E7003C02400838024010B500F09E
:1005D00043F808490968F02292FAA2F201F0F0010A
:1005E000B2FA82F2D140044A515CC8400349086023
:1005F00010BD000008380240F61B0008240000204F
:1006000010B5FFF7E3FF074909684FF4E05292FA8B
:10061000A2F201F4E051B2FA82F2D140024A515CF6
:10062000C84010BD08380240F61B000810B5FFF79F
:10063000CDFF074909684FF4604292FAA2F201F433
:100640006041B2FA82F2D140024A515CC84010BD0A
:1006500008380240F61B000830B51948006810F051
:100660000C01184812D0184C04290ED008290DD1BD
:100670001349091F0A6802F03F030A68550247F64A
:10068000C07204D5B4FBF3F003E0204630BDB0FBEC
:10069000F3F00B680968134092FAA2F2B2FA82F200
:1006A000D34058434FF4403292FAA2F201F4403161
:1006B000B2FA82F2D140491C4900B0FBF1F030BDE2
:1006C000083802400024F40040787D012DE9F84FFD
:1006D0000446DFF8CC820078A8F1040BC007ABF128
:1006E000040537D0D8F800104046C1F38101012934
:1006F00008D00068C0F3810002280AD1DBF80000AE
:10070000400206D52868800324D56068002878D088
:1007100020E0A3492079891F0870606868B1FFF75D
:1007200045FE064605E000BFFFF740FE801B64283B
:1007300068D828688003F7D50CE0FFF737FE064637
:1007400005E000BFFFF732FE801B6428F0D8286860
:100750008003F7D42078934E80074FF0010A4FF0C2
:10076000000742D5D8F80010404611F00C0F08D011
:100770000068C0F3810002280AD1DBF800004002C3
:1007800006D42868800714D5E068012839D110E024
:10079000E068D8B1C6F800A0FFF708FE814605E082
:1007A000FFF704FEA0EB09000228C1D828688007E3
:1007B000F6D52868F82292FAA2F22169B2FA82F2FA
:1007C00020F0F8009140084328600EE03760FFF702
:1007D000EDFD814606E000BFFFF7E8FDA0EB090054
:1007E00002280FD828688007F6D42078000728D57B
:1007F0006D486169A1B1C0F800A0FFF7D7FD81463F
:1008000008E0CAE079E000BFFFF7D0FDA0EB0900E7
:10081000022872D862486C3000688007F4D510E076
:100820000760FFF7C3FD814606E000BFFFF7BEFD8E
:10083000A0EB0900022860D859486C300068800796
:10084000F4D42078400749D555483830016841F044
:1008500080510160006800F08050009053480168AA
:1008600041F480710160FFF7A1FD814606E000BF01
:10087000FFF79CFDA0EB090002283ED84B4800681A
:10088000C005F5D5DFF81891207A09F1680989F8D3
:100890000000A06888B1FFF789FD009008E000BF64
:1008A000FFF784FD0099411A41F2883081426CD8EB
:1008B000D9F800008007F3D510E0FFF777FD00902E
:1008C00008E000BFFFF772FD0099411A41F288303D
:1008D00081425AD8D9F800008007F3D4A069E0B368
:1008E000D8F80010C1F38101022956D002283766DA
:1008F00004D0FFF75BFD04464AE046E0FFF756FDF3
:10090000074604E0FFF752FDC01B02283DD82868C7
:100910008001F7D4D4E90701084347F6C07292FA80
:10092000A2F2616AB2FA82F29140A26A4FF0FF33FA
:1009300003EB52024FF4403393FAA3F3B3FA83F379
:100940009A40114308434FF0706292FAA2F2E16AB2
:10095000B2FA82F29140084300E01CE0CBF80000BC
:10096000C6F860A0FFF722FD044604E0FFF71EFD75
:10097000001B022809D828688001F7D50BE000BFCA
:10098000FFF714FD001B022802D90320BDE8F88FF1
:1009900028688001F4D40020F8E70120F6E7000081
:1009A0000838024000004742800E47420070004075
:1009B00010B5040011D0022084F8510020680168AD
:1009C00021F040010160204600F04CF800206065F5
:1009D00084F8510084F8500010BD012010BD90F83B
:1009E0005100704770B5040005D00025A56294F849
:1009F000510010B106E0012070BD84F8505020462F
:100A000000F031F8022084F851002068016821F0DC
:100A100040010160D4E901010843D4E90312114304
:100A2000084361690843218B01F400710843E169BF
:100A30000843216A0843A16A084321680860A06945
:100A4000042101EA1040616A084321684860206877
:100A5000C16921F40061C1616565012084F851001C
:100A6000002070BD704770472DE9F05F044690F894
:100A7000500000250A9E1F469046894601280FD047
:100A8000012084F85000FFF791FC824694F8510051
:100A9000AB4601280FD06068B0F5827F09D102E033
:100AA0000220BDE8F09FA06818B994F8510004280E
:100AB00001D0022583E0B9F1000F08D0B8F1000F92
:100AC00005D027B194F85100012802D004E0012597
:100AD00075E0052084F85100C4F854B0C4F838809B
:100AE000E787A787C4F83090E786A786C4F840B0A8
:100AF000C4F844B020680168490603D4016841F095
:100B000040010160E068B0F5006F1FD046E048B1D9
:100B100020688168890705D539F8021BC160E08E1D
:100B2000401EE086E08F48B120688168C90705D083
:100B3000C06828F8020BE08F401EE087701C05D0CB
:100B4000FFF734FCA0EB0A00B04225D2E08E00286B
:100B5000DDD1E18F0029DAD126E048B12068816833
:100B6000890705D519F8011B0173E08E401EE08648
:100B7000E08F48B120688168C90705D0C06808F8CF
:100B8000010BE08F401EE087701C07D0FFF70EFCC2
:100B9000A0EB0A00B04201D3032510E0E08E00284C
:100BA000DBD1E18F0029D8D152463146204600F0F2
:100BB00008FC20B1606D40F02000606587E70120EF
:100BC00084F8510084F850B028466AE710B5401EFA
:100BD000B0F1807F01D3012010BD4FF0E0246061AF
:100BE0000F21601700F0DCFB0020A06107202061CE
:100BF000002010BD70B5040004D094F83900002521
:100C000010B106E0012070BD84F83850204600F095
:100C100023F8242084F839002068C16821F40051A9
:100C2000C160204600F01AFD2068016921F490415E
:100C300001612068416921F02A0141612068C16891
:100C400041F40051C160E563202084F8390084F844
:100C50003A00002070BD0000F0B51A4887B0016866
:100C600041F001010160006800F0010005901548A5
:100C70001030016841F4003101600068022400F482
:100C800000300590042001258DE8310007260E4F25
:100C9000CDE9034669463846FFF7BEFA08208DE8DD
:100CA0003100CDE9034669463846FFF7B5FA2620FC
:100CB000FFF7AEFB032211462620FFF7B5FB07B076
:100CC000F0BD0000303802400000024090F83A3099
:100CD000202B20D1E9B1E2B190F83830012B1AD0A5
:100CE000012380F8383081628285C2850021C1638A
:100CF000222280F83A200268536943F001035361CD
:100D000080F838100068C16841F02001C1600020FF
:100D100070470120704702207047000070B51D4CDD
:100D200000251B4E2078782804D079280BD07A280B
:100D300012D01DE017490020C831225C0A54401C23
:100D40000628FAD314E013490020DC31225C0A544F
:100D5000401C0628FAD30BE00E490020F031225C3B
:100D60000A54401C0628FAD302E06D1CB54207D88D
:100D70000849C82201F58270FFF7A8FF0028F4D1C6
:100D8000002001462154401CC828FBD370BD000040
:100D9000FFFF0100E8000020FEE7000070B50646F6
:100DA000094800240188458820464D43214600F02B
:100DB0007FF900F0EDFA03E0304600F093FA641C8E
:100DC000AC42F9D370BD00002C02002010B500F039
:100DD0006FF900F0DDFA03480088BDE8104000F02C
:100DE00081BA00002000002030B5AC4887B0002157
:100DF000026842F002020260026802F002020592FA
:100E0000026842F001020260026802F001020592EB
:100E1000026842F0040202600068A14C00F0040085
:100E20000590402000900120CDE9010103200390AE
:100E300069462046FFF7F0F9601500906946994829
:100E4000FFF7EAF98020984D009069462846FFF7A1
:100E5000E3F9012240212046FFF7A2FA00F012FB3D
:100E6000002280212846FFF79BFA322000F0CCFDBB
:100E7000012280212846FFF793FA322000F0C4FDBA
:100E80008A48F02101804FF4A07141802C218171AA
:100E90002A21C1712B210172CB2000F05DFA39208B
:100EA00000F03EFA2C2000F03BFA002000F038FA67
:100EB000342000F035FA022000F032FACF2000F0A2
:100EC0004BFA002000F02CFAC12000F029FA302063
:100ED00000F026FAE82000F03FFA852000F020FA22
:100EE000002000F01DFA782000F01AFAEA2000F045
:100EF00033FA002000F014FA002000F011FAED207F
:100F000000F02AFA642000F00BFA032000F008FA3F
:100F1000122000F005FA812000F002FAF72000F01C
:100F20001BFA202000F0FCF9C02000F015FA232065
:100F300000F0F6F9C12000F00FFA102000F0F0F9EF
:100F4000C52000F009FA3E2000F0EAF9282000F060
:100F5000E7F9C72000F000FA862000F0E1F936201A
:100F600000F0FAF9482000F0DBF93A2000F0F4F93B
:100F7000552000F0D5F9B12000F0EEF9002000F086
:100F8000CFF9182000F0CCF9B62000F0E5F90820E0
:100F900000F0C6F9822000F0C3F9272000F0C0F964
:100FA000F22000F0D9F9002000F0BAF9262000F074
:100FB000D3F9012000F0B4F9E02000F0CDF90F20C2
:100FC00000F0AEF9312000F0ABF92B2000F0A8F9C9
:100FD0000C2000F0A5F90E2000F0A2F9082000F086
:100FE0009FF94E2000F09CF9F12000F099F937208C
:100FF00000F096F9072000F093F9102000F090F926
:10100000032000F08DF90E2000F08AF9092000F08D
:1010100087F9002000F084F9E12000F09DF900201C
:1010200000F07EF90E2000F07BF9142000F078F932
:10103000032000F075F9112000F072F9072000F08C
:101040006FF9312000F06CF9C12000F069F94820F7
:1010500000F066F9082000F063F90F2000F060F955
:101060000C2000F05DF9312000F05AF9362000F034
:1010700057F90F2000F054F9112000F06DF9782095
:1010800000F0C2FC292000F067F92C2000F064F980
:101090004FF47840FFF782FE07B030BD3038024091
:1010A0000004024000000240000802402C02002020
:1010B00070B50B4E05460C46F07900F04DF9280A44
:1010C00000F02EF9E8B200F02BF9307A00F044F984
:1010D000200A00F025F9E0B2BDE8704000F020B928
:1010E0002C0200202DE9FF4FDFF890B181B0203AAB
:1010F0000C46BBF80050D0B20E991E46A046039095
:10110000212B06D00020824600294FF0000070D02D
:10111000ACE00120F7E700BFBAF1000F0FD0039851
:1011200000EBC00101EB801055490144002011F88B
:1011300009700090380634D5ABF8005035E00C2E1D
:101140000DD05049039801EB001100BF11F8097050
:1011500000200090380609D5ABF800500AE003984B
:1011600000EB4001484800EB8101EFE7BBF80210BB
:10117000ABF8001021460198FFF728FE7806070E0D
:101180004248641CA4B24088A04272D9A4EB080073
:10119000B0421AD00098401CC0B200900828D9D3A1
:1011A00024E0BBF80210ABF8001021460198FFF7CD
:1011B0000DFE7806070E3548641CA4B24088A04294
:1011C00057D9A4EB0800B0420AD101984446401C0C
:1011D00080B201902D4801880198814249D905E0EB
:1011E0000098401CC0B200901028A3D309F1010060
:1011F000C0B28146B0428FD33BE00C2E25D02148AF
:10120000039900EB011100BF11F809704FF0000ABB
:10121000380603D521460198FFF7D8FD7806070E5A
:101220001A48641CA4B24088A04222D9A4EB08004A
:10123000B04211D101984446401C80B2019013483D
:1012400001880198814214D90DE0039800EB400118
:101250000D4800EB8101D7E70AF1010000F0FF0A19
:10126000BAF1080FD4D309F10100C0B28146B042EF
:10127000C3D3ABF8005005B0BDE8F08F20000020CC
:10128000EA3300080D370008762F00082C020020F2
:101290002DE9F84F044600F0FF0910190D46DDE96D
:1012A0000AB61FFA80F8581987B24FF0000A12E008
:1012B000444503D305EB0B004C4685B2BD420FD22B
:1012C0005B4629462046CDF800A0FFF70BFF04EB54
:1012D0005B0084B2761C3278A2F120005E28E7D948
:1012E000BDE8F88F70B50C4D044600224021284619
:1012F000FFF756F8012251020848FFF751F8200A7B
:1013000000F02CF9E0B200F029F92846BDE8704061
:1013100001224021FFF744B80004024000000240CF
:1013200070B50B4C0546002240212046FFF738F8E7
:10133000012251020748FFF733F8284600F00EF962
:101340002046BDE8704001224021FFF729B8000087
:10135000000402400000024070B50B4D044600221C
:1013600040212846FFF71CF8002269150748FFF7BF
:1013700017F8E0B200F0F2F82846BDE8704001220C
:101380004021FFF70DB800000004024000000240B9
:1013900001488079FFF7E0BF2C020020FEE770478C
:1013A0000907090E002806DA00F00F0000F1E0201E
:1013B00080F8141D704700F1E02080F80014704799
:1013C000704738B50B46009204460022802100F099
:1013D00008F8002804D0606D40F02000606503200C
:1013E00038BD2DE9F0411D4616460F460446DDF88E
:1013F000188035E0681C33D02DB1FEF7D7FFA0EB85
:101400000800A8422CD32068416821F0E001416027
:101410006068B0F5827F0BD1A068B0F5004F02D0B4
:10142000B0F5806F04D12068016821F040010160AF
:10143000A06AB0F5005F0AD1206801684DF6FF721E
:10144000114001602068016841F4005101600120F1
:1014500084F85100002084F850000320BDE8F0819A
:10146000206880683840B042C4D10020F6E7000010
:1014700010B50348FFF79CFABDE8104000F002B831
:101480003800002010B51248FFF7A9FA00281DD136
:101490000F481049012201601021C1614261002101
:1014A0008160022202610722C0E90A12C1604FF482
:1014B00000720162826141624FF48271416000F00A
:1014C0000BF8BDE810400248FFF78CBA10BD0000D1
:1014D000380000200030014070B51E4886B0016819
:1014E00041F001010160016801F00101059101680D
:1014F00041F0010101600068022400F00100059044
:101500002020CDE900040120029003200525CDE92B
:101510000305114E69463046FEF77EFE802000909E
:101520006946049502943046FEF776FE402000900E
:10153000694602943046FEF76FFE06481430016893
:1015400041F480510160006800F48050059006B0BD
:1015500070BD0000303802400000024001B507486D
:1015600082B001238068009001AA02A90448FFF715
:101570007BFA002801D0FFF77BFF0EBD00000020A2
:10158000380000207047704730B51D4893B00024E4
:10159000016841F080510160006800F080501190B6
:1015A0001848016821F4404141F40041016000689D
:1015B000022500F440401190012003901020009576
:1015C00006950490CDE907404FF4A87009900420D7
:1015D0000A9007200B906846FFF778F860B90F2053
:1015E000CDE90C05E802CDE90E4002210CA81094CB
:1015F000FEF74CFF002801D0FEF70AFE13B030BD05
:1016000040380240007000401048016841F4700109
:1016100001600F48016841F0010101600C4A00219E
:101620000832116002680B4B1A400260031D0A4A1F
:101630001A60026822F48022026005480C300160C2
:1016400002495806803908607047000088ED00E0C4
:1016500000380240FFFFF6FE103000242DE9F04173
:1016600004460068016921F44052E16811430161B8
:101670002168C86849F20C6290432369A268E56951
:101680001A4363692B431A430243CA6021684869BD
:1016900020F44072A06910434861E1696425B1F506
:1016A000004F9748974A21684FF032083FD0914247
:1016B00001D081427CD1FEF7B9FF00EBC00101EB04
:1016C000001061688900B0FBF1F6FEF7AFFF00EB98
:1016D000C00101EB001061688900B0FBF1F0B0FBC4
:1016E000F5F06FF01801484306EB800108EB01109C
:1016F000B0FBF5F000F0F006FEF798FF00EBC0013C
:1017000001EB001061688900B0FBF1F0B0FBF5F06F
:1017100006EB0016FEF78AFF00EBC00101EB00109C
:1017200061688900B0FBF1F7FEF780FFD2E09142DB
:1017300001D081423DD1FEF779FF00EBC00101EB02
:10174000001061684900B0FBF1F0B0FBF5F0060154
:10175000FEF76CFF00EBC00101EB0010616849006F
:10176000B0FBF1F7FEF762FF00EBC00101EB0010E8
:1017700061684900B0FBF1F0B0FBF5F06FF01801C3
:10178000484307EB800108EBC100B0FBF5F000F027
:10179000F80006EB4006FEF749FF00EBC00101EB45
:1017A000001061684900B0FBF1F7FEF73FFF3CE035
:1017B00055E0FEF725FF00EBC00101EB001061686A
:1017C0004900B0FBF1F0B0FBF5F00601FEF718FFA1
:1017D00000EBC00101EB001061684900B0FBF1F7BC
:1017E000FEF70EFF00EBC00101EB0010616849003D
:1017F000B0FBF1F0B0FBF5F06FF01801484307EBD8
:10180000800108EBC100B0FBF5F000F0F80006EB3A
:101810004006FEF7F5FE00EBC00101EB0010616829
:101820004900B0FBF1F7FEF7EBFE00EBC00101EB66
:10183000001061684900B0FBF1F0B0FBF5F06FF00B
:101840001801484307EB800108EBC100B0FBF5F03D
:1018500000F00700216830448860BDE8F081FEF7A1
:10186000CFFE00EBC00101EB001061688900B0FB06
:10187000F1F6FEF7C5FE00EBC00101EB0010616858
:101880008900B0FBF1F0B0FBF5F06FF018014843B0
:1018900006EB800108EB0110B0FBF5F000F0F0065C
:1018A000FEF7AEFE00EBC00101EB0010616889009D
:1018B000B0FBF1F0B0FBF5F006EB0016FEF7A0FE72
:1018C00000EBC00101EB001061688900B0FBF1F78B
:1018D000FEF796FE00EBC00101EB00106168890085
:1018E000B0FBF1F0B0FBF5F06FF01801484307EBE7
:1018F000800108EB0110B0FBF5F000F00F00A9E744
:10190000001401400010014038B5344801680A68ED
:10191000C2F34013CA68324C02F0200293B18AB17C
:101920004968826A1170816A491C81620A78782A42
:1019300000D161600A78792A00D1A1600A787A2AF8
:1019400000D1E16001680A68C2F3C0034A6902F08D
:1019500001050022CBB1C5B10B684B680093496803
:10196000836A1970816A491C81620B78782B00D1D7
:1019700061600B78792B00D1A1600B787A2B00D1B4
:10198000E160C16B41F00801C163C18D491E89B29C
:10199000C185012901D8012100E00021114B9B796B
:1019A00003B10123194315D062800168CA6822F08F
:1019B0002002CA600168CA6822F48072CA600168A5
:1019C0004A6922F001024A61202180F83A10034856
:1019D000FFF7A4F96088401C608038BDEC0100204E
:1019E00010000020E8000020FEE702E008C8121FF7
:1019F00008C1002AFAD170477047002001E001C1F8
:101A0000121F002AFBD170476422014601E0491EE3
:101A100089B20029FBD1521E1204120CF5D1704775
:101A20001CB5FEF7C9FC1C4D1C4C05F11406211D0C
:101A300005F1280781E8E000FFF7A6FD4FF41660E6
:101A400000F068F8FFF71EFDFFF7CEF914494FF4D8
:101A50007840088000F07EF8B0461026E760C4E9C0
:101A60000158CDE90065202340221021A020FFF776
:101A70000FFCA0682023CDE9006040224221A02075
:101A8000FFF706FCE0682023CDE9006040227421C6
:101A9000A020FFF7FDFBE1E7B001002010000020CF
:101AA000200000202DE9F05F83468A46174802EBAC
:101AB0004211DFF85C8000EB810700254FF001093F
:101AC0000AEB050081B21FFA8BF0FFF7F1FAFFF77E
:101AD0005FFC00260824397809FA04F0014202D09C
:101AE000B8F8000001E0B8F80200FFF7FBFB641E45
:101AF00014F0FF04EFD1761CF6B27F1C042EE9D35C
:101B00006D1CEDB2212DDBD3BDE8F09F061C000853
:101B1000200000200D4910B50B4AC1E9002000202B
:101B20008860C8600C220861C1E90520C8610846C8
:101B3000FFF760F808B1FEF76BFBBDE81040C82264
:101B400003490248FFF7C2B800440040EC010020FE
:101B5000E800002010B54FF6FF742046FFF71EF98D
:101B600021482249002204804FF478400880114621
:101B70001046FFF797FF012200212820FFF792FF70
:101B8000022200215020FFF78DFF03220021782040
:101B9000FFF788FF042232210020FFF783FF052290
:101BA00032212820FFF77EFF062232215020FFF746
:101BB00079FF072232217820FFF774FF0822642181
:101BC0000020FFF76FFF092264212820FFF76AFF3A
:101BD0000A2264215020FFF765FF0B226421BDE833
:101BE00010407820FFF75EBF220000202000002078
:101BF0002800200000200000000001020304010270
:101C000003040607080900000000000000000300AC
:101C100030000700380007003C0007001C00073FA9
:101C2000FFFE0E7000000E71E0700E71C0700E713C
:101C3000C0701C71C0701C71FFFE3C73FFFE3C73D2
:101C400080707C73B8707C77B870FC779C70FC7F78
:101C50009C701C7F9E701C7F8E701C7F8E701C730E
:101C60008F701C7387701C7387701CE380701CE37B
:101C700080701CE380701CE380701DE380701DC3C6
:101C80009FF01DC38FE01C0000000000000000005A
:101C90000000000000000701E0000707DFF8073F31
:101CA0001FFC07783C1C07703C1C0E703C1C0E701F
:101CB0003C1C0E703C1C1E703C1C1E703C1C1E709C
:101CC0003C1C3E703C1C3E703C1C7E703C1C7E707C
:101CD0003C1CEE703C1C0E703C1C0E703C1C0E70CC
:101CE0003C1C0E703C1C0E703C1C0E70FC1C0E71DB
:101CF000FC1C0E77FC1C0E7F3C3C0E3C3FF80E009B
:101D00003DF00E003C000E003C000C0018000000EE
:101D1000000000000000000000000070000000FF54
:101D2000FF0001FFFF8001C0070003800F000700D4
:101D30001E001E003C003FFFFFF87FFFFFF83E0142
:101D4000C01C0E01C03C0E01C03C0E01C03C0FFF88
:101D5000FFFC0FFFFFFC0E01C03C0E01C03C0E015A
:101D6000C03C0E01C03C0E01C03C0FFFFFFC0FFF4A
:101D7000FFFC0E01C03C0E01C03C1E01C03C1C011A
:101D8000C03C3C01C01C3801CE387001CFF80000C7
:101D900000C0000000000000000000000000000083
:101DA0000000000000000000000000000000000033
:101DB0000000000000000000000000000000000023
:101DC0000000000000000000000000E0000001F042
:101DD000000001F0000000E0000000000000000032
:101DE00000000000000000000000000000000000F3
:101DF0000000000000000000000001E0000001F011
:101E0000000001E0000000000000000000000000F1
:101E1000000000000000000000000000000000E0E2
:101E2000000001E01C0001C00E0003C00E001FF8FE
:101E30000E001C3FFFFE1C1C00001F9C00001F9C8E
:101E400000001FDC7F801DDCFFE01DDCE0E01DDC0E
:101E5000E0E01DFCE0E01C1CE0E01C1CE0E0FFFCFE
:101E6000E0E01C1CE0E01C1CE0E01F9CE0E01DDC4E
:101E7000E0E01DDCE0E61DDCE0EE39DDC0EE39DD42
:101E8000C0EE38FDC0EE38FDC0EE381F80EE701F8A
:101E900080EE73FF00FE61FF000000000000000004
:101EA0000000000000000003800000070000000F99
:101EB0000000000E00000FFFFFF81FFFFFFC1C00DA
:101EC000001C1C00001C1C00001C1C00001C1CFF33
:101ED000FF1C1CE0071C1CE0071C1CE0071C1CE08E
:101EE000071C1CE0071C1CE0071C1CE0071C1CE076
:101EF000071C1CE0071C1CE0071C1CE0071C1CFF47
:101F0000FF1C1C7FFE1C1C00001C1C00001C1C0075
:101F1000001C1C0007BC1C0003F8000000000000AF
:101F2000000000000000000000000070000000FF42
:101F3000FF0001FFFF8001C0070003800F000700C2
:101F40001E001E003C003FFFFFF87FFFFFF83E0130
:101F5000C01C0E01C03C0E01C03C0E01C03C0FFF76
:101F6000FFFC0FFFFFFC0E01C03C0E01C03C0E0148
:101F7000C03C0E01C03C0E01C03C0FFFFFFC0FFF38
:101F8000FFFC0E01C03C0E01C03C1E01C03C1C0108
:101F9000C03C3C01C01C3801CE387001CFF80000B5
:101FA00000C0000000000000000000000000000071
:101FB0000000000000000000000000000000000021
:101FC0000000000000000000000000000000000011
:101FD0000000000000000000000000E0000001F030
:101FE000000001F0000000E0000000000000000020
:101FF00000000000000000000000000000000000E1
:102000000000000000000000000001E0000001F0FE
:10201000000001E0000000000000000000000000DF
:1020200000000000000000000000000000000000B0
:102030000000003E00000FFFFFF87FC3FFFC1DCE35
:102040001C1C1FDC1C1C0FFB9F9C07F1DDDC03C16B
:10205000FDFC7FFFFCFC03E07CFC07F07C7C0FF8C0
:102060003C7C1FFC1C1C3DDE3C1CF1CF7C7CE1C099
:102070007C7C1FFCFCFC3FFEFCFC39CFFDFC39CF17
:10208000DDDC39CF9FDC3FFE1F9C3FFE1C1C39CEA0
:102090001C1C39CE1C1C39CE1C1C39CE1C1C3FFF0D
:1020A000FFDC1FFCFFFC000000000000000000003F
:1020B00000000000000003001C0007001C000700D7
:1020C0001C0007001C00FFFC1C00FFFFFFFC0E07AC
:1020D000FFFC1C0038001C0038001FC038003BC04B
:1020E00038003BC038003BCFFFFE73CFFFFE7FFCC4
:1020F00070007FFC700003C07FE003C07FFC03C062
:10210000001C03C0001C03FC003807FC00787FC0E3
:10211000007073C000E003C0F9E003C03FC003C01B
:1021200007E003C000FC03C0001E00000000000028
:10213000000000000000000000000070000000FF30
:10214000FF0001FFFF8001C0070003800F000700B0
:102150001E001E003C003FFFFFF87FFFFFF83E011E
:10216000C01C0E01C03C0E01C03C0E01C03C0FFF64
:10217000FFFC0FFFFFFC0E01C03C0E01C03C0E0136
:10218000C03C0E01C03C0E01C03C0FFFFFFC0FFF26
:10219000FFFC0E01C03C0E01C03C1E01C03C1C01F6
:1021A000C03C3C01C01C3801CE387001CFF80000A3
:1021B00000C000000000000000000000000000005F
:1021C000000000000000000000000000000000000F
:1021D00000000000000000000000000000000000FF
:1021E0000000000000000000000000E0000001F01E
:1021F000000001F0000000E000000000000000000E
:1022000000000000000000000000000000000000CE
:102210000000000000000000000001E0000001F0EC
:10222000000001E0000000000000000000000000CD
:10223000000000000000800080008000FC1F4000C3
:102240004000FF7F20001000F00F00080004600233
:10225000800100020004000104020800E83F0102BE
:10226000020202020802C83F04020702040204023A
:102270000402F47F00000000F80F08080808F80FB7
:1022800008080808F80F2002222224222812280A0F
:102290002002FF7F00000000FC1F00000000000083
:1022A0000000FF7F80008000880888108420824022
:1022B0008140A0004000400080008000FF7F20009F
:1022C00020002000E00F2008200820081008100837
:1022D0000808040502028000FE3F02202000FF7F64
:1022E00010047802C0033C1C8000FF7FA002900411
:1022F0008C1883608000FFFFFFFFFFFFFFFFFFFFE1
:10230000FFFFFFFFFFFFFFFFFFFFFFFFFFFFFFFFDD
:10231000FFFFBEF77DEFBAD6B6B5F39CB294B39C7F
:10232000B29434A5F7BDFBDE7DEFFFFFFFFFFFFF9B
:10233000FFFFFFFFFFFFFFFFFFFFFFFFFFFFFFFFAD
:10234000FFFFFFFFFFFFFFFFFFFFFFFFFFFFFFFF9D
:10235000FFFFFFFFFFFFFFFFFFFFFFFFFFFFBEF7D6
:10236000FBDEF39CCB5AC739042182104210421085
:10237000410883184529C7390C6375AD3CE7BEF7A2
:10238000FFFFFFFFFFFFFFFFFFFFFFFFFFFFFFFF5D
:10239000FFFFFFFFFFFFFFFFFFFFFFFFFFFFFFFF4D
:1023A000FFFFFFFFFFFFFFFFFFFFFFFF3CE7B294D0
:1023B0000842C318821004214529863186318631AE
:1023C00086314529042182104108C3180842F39C34
:1023D0003CE7FFFFFFFFFFFFFFFFFFFFFFFFFFFFE8
:1023E000FFFFFFFFFFFFFFFFFFFFFFFFFFFFFFFFFD
:1023F000FFFFFFFFFFFFFFFFFFFFFBDE0C63C318C4
:10240000C3184529C7390842084208420842084211
:102410000842C739C7398631863104214108821004
:10242000CB5ABAD6FFFFFFFFFFFFFFFFFFFFFFFF03
:10243000FFFFFFFFFFFFFFFFFFFFFFFFFFFFFFFFAC
:10244000FFFFFFFFFFFFFFFFFBDECB5A8210452996
:10245000C73908420842094A494A494A494A494A49
:10246000494A0842C739C739C739863145298318CF
:102470000000C84138C6FFFFFFFFFFFFFFFFFFFF5F
:10248000FFFFFFFFFFFFFFFFFFFFFFFFFFFFFFFF5C
:10249000FFFFFFFFFFFF7DEF8E7382104529C739D5
:1024A0000842094A8A523084CF7B8A52494A4A52AA
:1024B000494ACB5ACF7B0C630842C739863145293C
:1024C000C3180000494ABAD6FFFFFFFFFFFFFFFF16
:1024D000FFFFFFFFFFFFFFFFFFFFFFFFFFFFFFFF0C
:1024E000FFFFFFFFFFFFF39CC3180421C739084219
:1024F000494A494A72947DEF7DEFB2944A52494A63
:102500008A5275ADBEF7BAD64D6BC739C739863119
:102510004529C3184108CF7B7CE7FFFFFFFFFFFF82
:10252000FFFFFFFFFFFFFFFFFFFFFFFFFFFFFFFFBB
:10253000FFFFFFFFBAD608428210C7390842494A56
:10254000494A8E73FBDEFFFFBEF7BAD68E73084290
:1025500030843CE77DEFFFFFB6B5494AC739863185
:102560004529042141084529B6B5FFFFFFFFFFFFBC
:10257000FFFFFFFFFFFFFFFFFFFFFFFFFFFFFFFF6B
:10258000FFFFBEF7718C410845290842494A494A74
:102590004A52B294BEF7BEF7B294CF7BCF7B494A82
:1025A000B6B5F39C0C6338C6BAD60C638739C73905
:1025B00086314529C318410830847DEFFFFFFFFFB6
:1025C000FFFFFFFFFFFFFFFFFFFFFFFFFFFFFFFF1B
:1025D000FFFF3CE7CB5A4108C7390842494A4A52F3
:1025E0008A52F39CFFFF7DEFC739C3180C63CB5AA7
:1025F000B6B5B294CB5A75ADFAD64D6B8739C7399B
:1026000086314529042141088A5279CEFFFFFFFF18
:10261000FFFFFFFFFFFFFFFFFFFFFFFFFFFFFFFFCA
:10262000FFFF38C686310421C841494A494A4A5207
:10263000494AB18CBEF7BEF7B294CF7BCF7B494AF3
:1026400074A57DEF7CE7BEF779CE0C63C739C73937
:102650008631452904218210452975ADBEF7FFFF5B
:10266000FFFFFFFFFFFFFFFFFFFFFFFFFFFFFFFF7A
:10267000FFFF34A5821086310842494A494A8A52EE
:10268000494A4D6BBAD6FFFFFFFF79CE0D63C739BC
:10269000CF7B7DEFFFFFFFFF75AD08428631C73965
:1026A000863145294529C318C318B2947DEFFFFF31
:1026B000FFFFFFFFFFFFFFFFFFFFFFFFFFFFFFFF2A
:1026C000BEF7B28C4108C7390842494A494A8A5282
:1026D0008A524A4AD07B7AC67BBE906BC939883110
:1026E000C939B384BBC6F8B5CC5A8631C739C739A6
:1026F000863145294529C420410830843CE7FFFF45
:10270000FFFFFFFFFFFFFFFFFFFFFFFFFFFFFFFFD9
:102710003CE78A4AC310C7390842494A494A4A4AEB
:102720004A42093A084A096B497BC67A05834683BF
:10273000C57AC672097B485A873188218829863133
:10274000863145294529042141084A4ABAD6FFFF66
:10275000FFFFFFFFFFFFFFFFFFFFFFFFFFFFFFFF89
:10276000F7C582500541C7290842494A4A42494AA9
:10277000097B889BC6B321D4A0DCE1E461ED61ED67
:1027800021EDA0E420DC80CB43ABC482065A472174
:10279000462945290429041982108218F39C7DEFEB
:1027A000FFFFFFFFFFFFFFFFFFFFFFFFFFFF7DEFCB
:1027B0004D9300A082B8C7310932494A867A43C393
:1027C0006BEDF4F6EBFD20FD20FD60FDA0FDA0FD0E
:1027D00060FD60FD20FDE0FCA0FC60F4C1DB839A9D
:1027E000C54945290419C42082380050CB6ABAD69D
:1027F000FFFFFFFFFFFFFFFFFFFFFFFFFFFFFBEEFE
:1028000004A100C000F0C3A0C8414942059B20FCC0
:10281000A4FC69FDE8FD63FD20FD60FD60FD60FD39
:1028200020FD20FDE0FCE0FCA0FC60FC20FC41D38E
:10283000C5494519C438826841880070495A79CE23
:10284000FFFFFFFFFFFFFFFFFFFFFFFFFFFFFBF6A5
:1028500082C000D086C146F141C84579895288625C
:10286000866AC67AC4BBE1FC60FD60FDA0FDA0FDE8
:1028700060FD60FDE0FC60E403938472446AC5413E
:102880004529C35841A8409800B000600C6B79CE30
:10289000FFFFFFFFFFFFFFFFFFFFFFFF7DEFCE8387
:1028A000828800F8C4D80CF38AFA82E882B04569BD
:1028B000C7510842083A865A839BA2BC22CD21CD3B
:1028C000A1C422B4C47A063A862945290531C450E8
:1028D000419000C000A800A000A800304A4ABAD623
:1028E000FFFFFFFFFFFFFFFFFFFF7DEF8E73C318AA
:1028F000053982A800F8C3F84DFB4DFBC7F9C3F0BA
:1029000082D8C3B004814561465186498649464113
:1029100045414541454105490461829041B000D09F
:1029200000C800A800A800B8415882108210B294D4
:10293000BEF7FFFFFFFFFFFFBEF7CF7B8210042132
:1029400086298641049940E841F886F9CBFA49FA8C
:1029500082F800F800F000E841D841D041C041C001
:1029600041C041C041C800D000E000E000D800D024
:1029700000B800A8418882488210821000004529D2
:1029800079CEFFFFFFFFBEF7F39C8210C3184529E5
:102990008631C731307CF3DC86E100F000F841F885
:1029A00041F800F800F800F800F800F800F800F826
:1029B00000F800F800F800E800E000E000D800C8E7
:1029C00041A08A9A0C630411821082104108000011
:1029D0004D6B7DEFFFFFFBDE08424210452986313B
:1029E0008631494A38BEFFFF38D686A900C800E0C4
:1029F00000F000F800F800F800F800F800F800F81F
:102A000000F800F000F000E800E000D0C3988A8AE7
:102A1000B2A4BAC6F7B508424108821041080000C6
:102A20004529F7BDFFFF718C4108042145298631F6
:102A300086310C633CE7FFFF79D646B900E042C817
:102A400082A882B041D882E882F041E841E841E8BA
:102A500041F041E841D804C108924D8B34A5FBC632
:102A6000FBD6BACE3CE73084C318410841080000C9
:102A70004108CF7B7DEF494A0000042145294631BA
:102A800086313084FFFFFFF7F7DD09DA83F801F0C4
:102A900042C08298499AF3B4F3CC71BC8EBB8EBB12
:102AA00030BC71BCF3BCB6BDFBCEBEE77DE73BDFFF
:102AB000BAD679CEFBDE75AD8631410841080000FB
:102AC0000000494AFBDE042141080421452945292B
:102AD0008739B294FFFFBEF734DD0CEB09FA00F042
:102AE00001D800D88BD27DE7FFFFFFFFFFFFFFFF7C
:102AF000FFFFFFFFFFFFFFFFBEFF7DEFFBDEFBDE03
:102B0000BAD679CEBAD678C6C739000041080000D7
:102B10000000C73979CE00008210C31804210529AE
:102B20008631B39CFFFFFFF775DDC7E9C7F901F8F0
:102B300001F000E849E2FBEEFFFFFFFFFFFFFFFFB0
:102B4000FFFFFFFFFFFFFFFFBEF77DEFFBDEFBDEBA
:102B5000BAD679CEBAD6B9CE08420000000000003D
:102B60000000C73938C600008210821004210421F9
:102B700045293084FFFFFFFF38DEC4D000F001F8A4
:102B800000F800F008D2FBE6FFFFFFFFFFFFFFFFAA
:102B9000FFFFFFFFFFFFFFFFBEF77DEFFBDEBAD6B3
:102BA00079CE79CEBAD679CEC73941080000000077
:102BB0000000863138C600000000C318CB5A8631A9
:102BC000C318CB5A7DEFFFFF7DEFCFBBC3B041D021
:102BD00041D082B84DB37DE7FFFFFFFFFFFFFFFF4E
:102BE000FFFFFFFFFFFFBEF7BEF73DEFFBDEBAD6EC
:102BF00079CE79CEFAD6F7BD0421863104210000C2
:102C00000000863138C68631C318CB5A75ADCF7BEC
:102C100041088631F7BDFFFFFFFFBEEF74B5309C62
:102C2000309C72A4BBD6FFFFFFFFFFFFFFFFFFFF3B
:102C3000FFFFFFFFFFFFBEF77DEF3CE7FBDEBAD6ED
:102C400079CE79CE3CE7718C81080C63CF7B821002
:102C500000008A5238C675AD718CB6B53CE7FBDE14
:102C6000C7390000CF73FFFFFFFFFFFFFFFFFFFF2C
:102C7000FFFFFFFFFFFFFFFFFFFFFFFFFFFFFFFF64
:102C8000FFFFFFFFBEF77DEF7DEF3BDFFAD679CE8A
:102C900079CEFBDEB9CEC739C420718CBAD6718C1F
:102CA000CB5AB294BAD6FFFF7DEF7DEFFFFFFFFF57
:102CB000B6B54629051975A5FFFFFFFFFFFFFFFF0A
:102CC000FFFFFFFFFFFFFFFFFFFFFFFFFFFFFFFF14
:102CD000FFFFFFFFBEF77DEF3CE7FBDEBAD679CE04
:102CE000BAD6FCDE4E6342080C63F7BDBEF7FFFFA9
:102CF000FBDEFBDEBEF7FFFFFFFFFFFFFFFFFFFF77
:102D0000FFFFF49C04210521B6A5FFFFFFFFFFFF95
:102D1000FFFFFFFFFFFFFFFFFFFFFFFFFFFFFFFFC3
:102D2000BEF7BEF77DEF3CE7FBDEBAD679CEFBDE21
:102D3000BBD6D17383188639349DBDEFFFFFFFFFEB
:102D4000FFFFFFFFFFFFFFFFFFFFFFFFFFFFBEFFD4
:102D500035D6EBCC43B340510519F58CBEEFFFFFE0
:102D6000FFFFFFFFFFFFFFFFFFFFFFFFBEF7BEF705
:102D70007DEF7DEF3CE7FBDEBADEBAD63CDF3ABE44
:102D80004F63824940A323B4CC833ABEFFFFFFFFC9
:102D9000FFFFFFFFFFFFFFFFFFFFFFFFBFF7B5BD17
:102DA000829220F4A0FC60E4408284418F6B77AD76
:102DB0003DE7FFFFFFFFFEFFBEF7BEF7BEF77DEF6B
:102DC0007DEF3CE7FBDEFBDE3DE7BBCE369D0B6BCC
:102DD000416A60C420FE60F5008BC76A38C6BEF742
:102DE000FFFFFFFFFFFFFFFFFFFFFFFF7DEF4B7BBD
:102DF00080B2A0FCA0FCE0FCE0FCC0CBC18A456234
:102E00004D6BB394F7BD3DDFFFF7FFFFBEF77DEFDE
:102E10007DEF7DE73DDFBAC675A58D7B847A40B333
:102E2000E0ECE0FDE0FD60F520E5A0D40A6BFBDE00
:102E3000FFFFFFFFFFFFFFFFFFFFFFFF7DEFCC93D3
:102E400040EB60FCA0FCE0FC20FD60FD20F5A0D480
:102E5000C0BB429B458B6B9CAE9C718CB394339DE5
:102E600034A5F2A4F0B4CA9B049B40BB20E420FD2F
:102E7000A0FDA0FDE0FDE0FDE0FD20C4885A38BEC5
:102E8000FFFFFFFFFFFFFFFFFFFFFFFFFFFF78D602
:102E900046AB40DB20F460FCA0FCE0FC60FDA0FD44
:102EA00060FD20F5A0DCC0B3C05186290D638F7B87
:102EB0000D5BC741018200C3C0E360FCA0FCE0FCE5
:102EC000E0FC60F560F520E5809B8662308479CE79
:102ED000FFFFFFFFFFFFFFFFFFFFFFFFFFFFFFFF02
:102EE00038C62D9C059343A382B3C2BBC2BB22B498
:102EF00082A34293C37A85620B637184B6B579CE9F
:102F000079C6B5AD70944A8B06830493049B439BAA
:102F1000439B4393048308738D73B39479CE7DEF01
:102F2000FFFFFFFFFFFFFFFFFFFFFFFFFFFFFFFFB1
:102F3000FFFF3CDF38BE75B533A533A5F39CF39C8A
:102F4000F39CF394F39C35A5F8BDFBDEBEF7FFFFC1
:102F5000FFFFFFFF7EEFBBD6F8BDB6AD75AD34A564
:102F6000339D349D35A5B7AD79C63CE7BEF7FFFF6D
:102F7000FFFFFFFFFFFF0000000000000000000057
:102F80000000000000003F400000000000000000C2
:102F90003000400030004000000009000BC03D0040
:102FA0000BC03D00090018C024407FE02240318062
:102FB0000000180024C01B000D80324001800380F7
:102FC0001C4027401C8007400040100060000000AB
:102FD0000000000000000000000000001F802040F2
:102FE00040200000402020401F8000000000090019
:102FF00006001F80060009000000040004003F8056
:103000000400040000000010006000000000000048
:10301000000004000400040004000400000000009C
:1030200000400000000000000000002001C0060079
:103030003800400000001F802040204020401F80BA
:103040000000000010403FC000400000000018C019
:10305000214022402440184000001080204024409D
:1030600024401B80000002000D0011003FC0014001
:1030700000003C80244024402440238000001F8026
:10308000244024403440038000003000200027C04A
:103090003800200000001B802440244024401B8076
:1030A00000001C0022C0224022401F8000000000BF
:1030B0000000084000000000000000000000046064
:1030C000000000000000000004000A001100208041
:1030D0004040090009000900090009000000000043
:1030E0004040208011000A00040018002000234006
:1030F0002400180000001F802040274029401F4066
:103100000000004007C039000F0001C0004020400F
:103110003FC0244024401B8000001F8020402040EE
:1031200020403080000020403FC0204020401F80D1
:10313000000020403FC024402E4030C0000020400E
:103140003FC024402E00300000000F0010802040BF
:1031500022403380020020403FC0040004003FC0F2
:103160002040204020403FC0204020400000006020
:10317000202020203FC02000200020403FC02440CD
:103180000B0030C0204020403FC0204000400040A5
:1031900000C03FC03C0003C03C003FC000002040D6
:1031A0003FC00C4023003FC020001F802040204033
:1031B00020401F80000020403FC024402400180011
:1031C00000001F802140214020E01FA0000020407F
:1031D0003FC02440260019C0004018C024402440AD
:1031E000224031800000300020403FC020403000AD
:1031F000000020003F80004000403F802000200071
:103200003E0001C0070038002000380007C03C0025
:1032100007C038000000204039C0060039C02040F7
:1032200000002000384007C0384020000000304037
:1032300021C02640384020C00000000000007FE090
:10324000402040200000000070000C00038000407F
:1032500000000000402040207FE00000000000004F
:1032600020004000200000000000001000100010AE
:1032700000100010001000000000400000000000DE
:103280000000000002800540054003C0004020000F
:103290003FC004400440038000000000038004405D
:1032A00004400640000000000380044024403FC06A
:1032B000004000000380054005400340000000007E
:1032C00004401FC0244024402000000002E00550BC
:1032D00005500650042020403FC00440040003C0B5
:1032E00000400000044027C0004000000000001023
:1032F0000010041027E00000000020403FC0014003
:10330000070004C00440204020403FC0004000406F
:10331000000007C0040007C0040003C00000044010
:1033200007C00440040003C00040000003800440C4
:10333000044003800000041007F0045004400380A0
:103340000000000003800440045007F00010044017
:1033500007C00240040004000000000006400540D1
:10336000054004C00000000004001F80044000402D
:103370000000040007800040044007C00040040033
:10338000070004C0018006000400060001C0070019
:1033900001C006000000044006C0010006C0044051
:1033A00000000410071004E0018006000400000083
:1033B000044005C006400440000000000000040076
:1033C0007BE040200000000000000000FFF0000053
:1033D0000000000040207BE00400000000004000EE
:1033E000800040002000200040000000000000009D
:1033F00000000000000007E00E701C383C3C381C48
:10340000781E781E781E781E781E781E781E781E0C
:10341000781E781E781C381C3C3C1C380E7007E067
:10342000000000000000000000000000000000009C
:10343000000000000000000000000000000000008C
:10344000C003C01FC003C003C003C003C003C00348
:10345000C003C003C003C003C003C003C003C00354
:10346000C003C003C003C01FFC0000000000000038
:10347000000000000000000000000000000000004C
:10348000000000000000000007F01C78383C783C89
:10349000781C7C1C381C003C003C0078007000E06C
:1034A00001C0038007000E0E1C0E380C701C7FFC40
:1034B0007FFC000000000000000000000000000091
:1034C00000000000000000000000000000000000FC
:1034D000000FE01CF03878383C383C383C003C00A9
:1034E0007800F007E000700038001C001E001E3855
:1034F0001E781E781C383C3C780FE000000000006D
:1035000000000000000000000000000000000000BB
:1035100000000000000000000000007000F000F05B
:1035200001F001F003F0077006700E701C70187047
:10353000387030706070FFFF0070007000700070B5
:10354000007000F807FE000000000000000000000E
:10355000000000000000000000000000000000006B
:103560000000001FFC1FFC3800380038003800380D
:10357000003FF03E78383C381C001E001E001E0044
:103580001E381E781C783C383C1C780FE000000088
:10359000000000000000000000000000000000002B
:1035A00000000000000000000000000003F00F38E1
:1035B0001C3C3C3C38003800780078007BF07E787A
:1035C0007C3C781E781E781E781E781E781E381C6B
:1035D0003C3C1E7807E000000000000000000000F6
:1035E00000000000000000000000000000000000DB
:1035F00000000000003FFE3FFC381C30187038709F
:10360000300070006000E000C001C001C003C003D2
:10361000800380078007800780078007800780007D
:10362000000000000000000000000000000000009A
:1036300000000000000000000000000000000FE09B
:103640001C78381C781C701E781E781C3C1C1F3897
:103650000FE00FF03CF8383C701C701E701E701E9E
:10366000701E381C1C380FE0000000000000000035
:10367000000000000000000000000000000000004A
:10368000000000000000000FE01C703838781C7843
:103690001C701E701E701E781E783E783E3C7E0F99
:1036A000DE001E001C003C003C3C383C703CE01F2F
:1036B000C00000000000000000000000000000004A
:1036C00000000000000000000000000000000000FA
:1036D00000000000000000000000000000000000EA
:1036E00000000000000000000000000000000000DA
:1036F00000000000000000000000000000000000CA
:1037000000000000000000000000000000000000B9
:1037100000000000000000000000000000000000A9
:103720000000001FCC000C0000000000000000089A
:10373000003000600008003000600000000220033C
:10374000FC1E20022003FC1E200220000000000EB0
:103750001811043FFF10840C78000000000F0010C7
:10376000840F3800C0077818840078000000780FB4
:103770008410C411240E9800E40084000808006836
:1037800000700000000000000000000000000000C9
:1037900000000007E018182004400200000000406C
:1037A000022004181807E000000000000002400298
:1037B0004001800FF00180024002400000008000C4
:1037C0008000800FF8008000800080000000010071
:1037D0000D000E00000000000000000000000000CE
:1037E0008000800080008000800080008000000059
:1037F0000C000C00000000000000000000000000B1
:103800000600180060018006001800200000000774
:10381000F0080810041004080807F0000000000871
:103820000408041FFC000400040000000000000E57
:103830000C10141024104411840E0C000000000C15
:103840001810041104110412880C7000000000000C
:10385000E00320042408241FFC0024000000001FB3
:1038600098108411041104108810700000000007E3
:10387000F008881104110418880070000000001C72
:1038800000100010FC13001C001000000000000ECF
:103890003811441084108411440E380000000007D1
:1038A00000088C10441044088807F0000000000055
:1038B000000000030C030C000000000000000000EA
:1038C00000000101060000000000000000000000F0
:1038D00080014002200410080810040000022002A9
:1038E00020022002200220022002200000000010FE
:1038F0000408080410022001400080000000000EAF
:10390000001200100C106C10800F00000003E00C7F
:103910001813E4142417C4082807D000000004007A
:103920003C03C41C40074000E4001C000410041FBA
:10393000FC1104110411040E880070000003E00C57
:103940001810041004100410081C10000010041FAC
:10395000FC100410041004080807F0000010041FF5
:10396000FC1104110417C410040818000010041FEF
:10397000FC1104110017C010000800000003E00C47
:10398000181004100410441C780040000010041F9C
:10399000FC10840080008010841FFC1004000010C4
:1039A0000410041FFC1004100400000000000300B9
:1039B00001100110011FFE10001000000010041F74
:1039C000FC110403801464181C1004000010041F70
:1039D000FC1004000400040004000C000010041F8C
:1039E000FC1F0000FC1F001FFC1004000010041F3F
:1039F000FC0C04030000E010181FFC100007F00886
:103A000008100410041004080807F0000010041F38
:103A1000FC10841080108010800F00000007F00858
:103A20001810241024101C080A07F2000010041FAC
:103A3000FC1104110011C011300E0C000400000E26
:103A40001C11041084108410441C3800001800104D
:103A50000010041FFC100410001800000010001FCC
:103A6000F810040004000410041FF8100010001ED9
:103A70000011E0001C007013801C0010001FC0101B
:103A80003C00E01F0000E0103C1FC00000100418C4
:103A90000C163401C001C01634180C100410001CA0
:103AA00000130400FC13041C0010000000080410A4
:103AB0001C1064108413041C041018000000000083
:103AC0000000007FFE400240024002000000003083
:103AD000000C0003800060001C0003000000004098
:103AE00002400240027FFE000000000000000000D3
:103AF00000200040004000400020000000000100C5
:103B0000010001000100010001000100010000406E
:103B10000040002000000000000000000000000045
:103B200098012401440144014400FC000410001FDA
:103B3000FC008801040104008800700000000000FF
:103B400070008801040104010400880000000000E6
:103B50007000880104010411081FFC00040000002B
:103B6000F8014401440144014400C8000000000180
:103B70000401040FFC1104110411001800000000DE
:103B8000D601290129012901C90106000010041FDD
:103B9000FC008401000100010400FC00040000019D
:103BA00004190419FC0004000400000000000000D7
:103BB0000300010101190119FE0000000010041F9B
:103BC000FC0024004001B4010C01040000000010BE
:103BD0000410041FFC0004000400000000010401A4
:103BE000FC0104010001FC0104010000FC010401CE
:103BF000FC008401000100010400FC00040000003E
:103C0000F8010401040104010400F80000010101AD
:103C1000FF0085010401040088007000000000001E
:103C200070008801040104010501FF000101040185
:103C30000401FC0084010401000180000000000078
:103C4000CC0124012401240124019800000000017A
:103C500000010007F8010401040000000001000158
:103C6000F8000400040004010801FC000401000144
:103C7000800170000C001001600180010001F00162
:103C80000C003001C00030010C01F0010000000107
:103C900004018C00740170018C0104000001010119
:103CA000810171000E001801600180010000000117
:103CB00084010C013401440184010C000000000067
:103CC000000000000001003EFC4002400200000035
:103CD0000000000000FFFF000000000000000040A6
:103CE0000240023EFC0100000000000000000060F5
:103CF0000080008000400040002000200000000004
:103D0000203D00080000002038000000EA190008EB
:103D1000583D00083800002000060000FA1900088D
:103D20000000024000080240E8030000000000001C
:103D30000000000000000000000000000000000083
:103D40000000FFFF0024F40000000000000000005D
:083D5000010203040607080943
:040000050800019559
:00000001FF
