:10492C000000000000000000004F00000000070025
:10493C00070000147F147F1400242A7F2A120023FE
:10494C00130864620036495522500000050300002C
:10495C0000001C224100000041221C000014083EF3
:10496C0008140008083E0808000050300000000839
:10497C00080808080000606000000020100804020D
:10498C00003E5149453E0000427F400000426151CB
:10499C004946002141454B31001814127F10002765
:1049AC0045454539003C4A49493000017109050328
:1049BC0000364949493600064949291E0000363659
:1049CC0000000000563600000008142241000014BC
:1049DC001414141400004122140800020151090699
:1049EC0000324979413E007E1111117E007F494908
:1049FC00493E003E41414122007F4141221C007F43
:104A0C0049494941007F09090901003E4149497A58
:104A1C00007F0808087F0000417F410000204041D2
:104A2C003F01007F08142241007F40404040007F3E
:104A3C000204027F007F0408107F003E4141413E8A
:104A4C00007F09090906003E4151215E007F0919CA
:104A5C0029460046494949310001017F0101003FC7
:104A6C004040403F001F2040201F003F4038403F47
:104A7C0000631408146300030478040300615149B3
:104A8C00454300007F4141000015167C16150000BF
:104A9C0041417F00000402010204004040404040BC
:104AAC00000001020400002054545478007F484454
:104ABC00443800384444442000384444487F00388B
:104ACC005454541800087E090102000C5252523EF4
:104ADC00007F080404780000447D4000002040441E
:104AEC003D00007F102844000000417F4000007E04
:104AFC00020C027C007E0402027C003844444438E0
:104B0C00007C1414140800081414187C007C08048D
:104B1C00040800485454542000043F444020003CF6
:104B2C004040207C001C2040201C003C4030403C7D
:104B3C00004428102844000C5050503C004464544D
:104B4C004C440000083641000000007F00000000CB
:104B5C00413608000008040810080008082A1C0840
:104B6C0000081C2A08080004027F02040010207FA1
:104B7C002010001C2A322A1C001C2244221C00116A
:104B8C000A040A11000705070000000000000000DD
:104B9C0000000000000000000000000038FCFC38A1
:104BAC0000000000000D0D000000000E1E00001E95
:104BBC000E00000000000000000020F8F820F8F8BB
:104BCC002000020F0F020F0F0200387C444747CC25
:104BDC0098000306041C1C07030030300080C060E2
:104BEC0030000C060301000C0C0080D87CE4BCD80F
:104BFC004000070F0808070F080000101E0E0000E9
:104C0C00000000000000000000000000F0F80C04A0
:104C1C000000000003070C0800000000040CF8F072
:104C2C0000000000080C0703000080A0E0C0C0E0FA
:104C3C00A0800002030101030200008080E0E080FC
:104C4C0080000000000303000000000000000000D2
:104C5C0000000000101E0E0000008080808080800C
:104C6C0080000000000000000000000000000000B8
:104C7C0000000000000C0C00000000000080C06070
:104C8C0030000C06030100000000F8FC04C424FCF6
:104C9C00F800070F0908080F0700001018FCFC00AB
:104CAC0000000008080F0F080800080C84C4643CBE
:104CBC0018000E0F0908080C0C00080C444444FCA6
:104CCC00B800040C0808080F0700C0E0B098FCFC02
:104CDC008000000000080F0F08007C7C4444C4C412
:104CEC008400040C0808080F0700F0F84C4444C476
:104CFC008000070F0808080F07000C0C0484C47C04
:104D0C003C0000000F0F00000000B8FC444444FCC1
:104D1C00B800070F0808080F0700387C444444FC0F
:104D2C00F800000808080C070300000000303000F1
:104D3C0000000000000606000000000000303000FB
:104D4C0000000000080E060000000080C060301853
:104D5C00080000000103060C0800404040404040A1
:104D6C00400002020202020202000008183060C079
:104D7C00800000080C0603010000181C04C4E43C6D
:104D8C0018000000000D0D000000F0F808C848F8ED
:104D9C00F000070F080B0B0B0100E0F0988C98F05B
:104DAC00E0000F0F0000000F0F0004FCFC4444FC5B
:104DBC00B800080F0F08080F0700F0F80C04040CDB
:104DCC00180003070C08080C060004FCFC040CF883
:104DDC00F000080F0F080C07030004FCFC44E40C63
:104DEC001C00080F0F08080C0E0004FCFC44E40C1B
:104DFC001C00080F0F0800000000F0F80C84848CD5
:104E0C00980003070C0808070F00FCFC404040FC0E
:104E1C00FC000F0F0000000F0F00000004FCFC044E
:104E2C0000000000080F0F08000000000004FCFC4C
:104E3C000400070F08080F07000004FCFCC0F03C3E
:104E4C000C00080F0F00010F0E0004FCFC04000006
:104E5C000000080F0F08080C0E00FCFC387038FC22
:104E6C00FC000F0F0000000F0F00FCFC3870E0FC82
:104E7C00FC000F0F0000000F0F00F0F80C040CF8F2
:104E8C00F00003070C080C07030004FCFC44447CF2
:104E9C003800080F0F0800000000F8FC040404FCA4
:104EAC00F800070F080E3C3F270004FCFC44C4FC30
:104EBC003800080F0F00000F0F00183C6444C49C0E
:104ECC001800060E0808080F0700001C0CFCFC0C50
:104EDC001C000000080F0F080000FCFC000000FC88
:104EEC00FC00070F0808080F0700FCFC000000FC82
:104EFC00FC000103060C06030100FCFC008000FC16
:104F0C00FC00030F0E030E0F03000C3CF0C0F03C32
:104F1C000C000C0F0300030F0C00003C7CC0C07C89
:104F2C003C000000080F0F0800001C0C84C4643CFB
:104F3C001C000E0F0908080C0E000000FCFC0404F9
:104F4C00000000000F0F080800003870E0C080005F
:104F5C0000000000000103070E0000000404FCFC2C
:104F6C000000000008080F0F0000080C0603060CD8
:104F7C00080000000000000000000000000000001D
:104F8C000000202020202020202000101E0E0000D9
:104F9C000000000000000000000000A0A0A0E0C085
:104FAC000000070F0808070F080004FCFC2060C075
:104FBC008000080F0708080F0700C0E020202060C1
:104FCC004000070F0808080C040080C06024FCFC9B
:104FDC000000070F0808070F0800C0E0A0A0A0E021
:104FEC00C000070F0808080C040040F8FC440C181B
:104FFC000000080F0F0800000000C0E02020C0E0F7
:10500C002000276F48487F3F000004FCFC4020E054
:10501C00C000080F0F00000F0F00000020ECEC0088
:10502C0000000000080F0F0800000000000020EC3A
:10503C00EC0000307040407F3F0004FCFC80C060FE
:10504C002000080F0F01030E0C00000004FCFC00F4
:10505C0000000000080F0F080000E0E060C060E0F6
:10506C00C0000F0F000F000F0F0020E0C02020E049
:10507C00C000000F0F00000F0F00C0E0202020E048
:10508C00C000070F0808080F070020E0C02020E030
:10509C00C000407F7F48080F0700C0E02020C0E020
:1050AC002000070F08487F7F400020E0C060206090
:1050BC00C000080F0F080000000040E0A020206096
:1050CC004000040C09090B0E04002020F8FC2020E1
:1050DC0000000000070F080C0400E0E00000E0E016
:1050EC000000070F0808070F080000E0E00000E0D0
:1050FC00E0000003070C0C070300E0E0000000E0F8
:10510C00E000070F0C070C0F07002060C080C06088
:10511C002000080C0703070C0800E0E0000000E08A
:10512C00E000474F4848683F1F00606020A0E060E7
:10513C0020000C0E0B09080C0C00FFBDFFFFBDFF7F
:10514C0000007F404040407F0000FF81818181FF53
:10515C0000007F5E7F7F5E7F0000FF2D3F3F2DFFB5
:10516C0000007F424242427F0000FFA1E1E1A1FF2B
:10517C0000007F424343427F0000FF21212121FF99
:10518C0000007F5A7E7E5A7F000000000000000065
:10519C000000000000000000000000000000000003
:1051AC000000F8888888888F02048850200000004E
:1051BC0000000007020100000000000000000000D9
:1051CC0000000000000000000000000000000000D3
:1051DC00000080800000000080C0603018000001DA
:1051EC000306060301000000000040A01008041E86
:1051FC0010101010F00000000102040F0101010159
:10520C000100F8888888888F0204885020000000EC
:10521C00000000070201000000000002020202FE72
:10522C0002020202000008080808080F0808080813
:10523C0008002010FC030807FC24242404000000B0
:10524C000F0000000F01010101008868FF4802FAFD
:10525C00AFAAAFFA020000000F000A0A0603060A02
:10526C000A00084848C8484808FF08090A00080806
:10527C0008070404040003040E0020222222E23E4C
:10528C00E22222222000080402010000070808087C
:10529C000E0098D4B388004848FF24A526000404C7
:1052AC0002020808040305080E00FA4A3E0A3E4AA8
:1052BC00FA00E2223E000F05050505050F00070860
:1052CC000E001017D555577D5755D51710000808E7
:1052DC000F08080E08080F0808001C0BEAAEAAAC51
:1052EC00ABAAEE0A1A0000000F0A0A0A0A0A0A0EF2
:1052FC00000022FE22007F4949FF49497F00040734
:10530C0002080909090F0909090011F200F9A9ABF2
:10531C00FDADABF800000807080B08080B080A0BDA
:10532C0008001011F200FAABAEAAAAABFA000804FE
:10533C0003040B0A0A0A0A0A0B001011F20050CFE0
:10534C0041414FD010000000070208080502050873
:10535C0008008282BAAAAAABAAAABA8282000F005B
:10536C00000E0A0A0A0E00080F0098D4B38802FE39
:10537C008202322EE0000404020A0601080502052E
:10538C00080010210200DF151515D51F800004023E
:10539C0001000F09050007090C0088FF48004CA408
:1053AC00958694A44C00080F00000808080F080804
:1053BC000800008292DAD6B2B19189C1800008044B
:1053CC000200080F00000204090098D4B38800649E
:1053DC00D44DC654E4000404020208040300070878
:1053EC000C007800FF484444FF44447C400000001B
:1053FC000F0804030003040808008888FF4800AA6B
:10540C00AAFFAAFA220000080F000806080F0A0AD1
:10541C000A000404FC040408FF080808F80002024F
:10542C000109050300000808070004F65554F600AE
:10543C00CF1412911800000F01090F00070A090878
:10544C000E000E088878CF484849CA0808000402A4
:10545C000908040502050408080080FEABAAFE003A
:10546C00488808FF0800040201080F000009080F13
:10547C000000342CF7A4E8A4EA09CA04E8000101EE
:10548C000F000F020F0003080F00801E101010FFFA
:10549C001010101E80000704040404070404040404
:1054AC000F0000000181720C7080000000000804E5
:1054BC00020100000001020408000002E20202FEE8
:1054CC0042424242000008080F08080F080808086A
:1054DC00080000FE1272921211119171000008075F
:1054EC000808040502050408080020FEABFE000CA9
:1054FC00E40586442C000807080F0000070908087B
:10550C000E0008FFA9A9A9FBADA9A9FF0800080A6C
:10551C000A0A0A0F0A0A0A0A0800FE2222FE80FC66
:10552C0084FF84FC800007020207080402010204C5
:10553C00080024F2090EA8AFA81EE807FC00000F13
:10554C0000080700070A04030C0011F20000FF21F9
:10555C00A9BDA921FF0000070208070003020B08E0
:10556C000F0020AAB2E3B2AA00FE12F2110004024C
:10557C00080F000A0403000F0000322AE608AAAA4A
:10558C00FFAAAABE08000906050A0A0A0F0A0A0A97
:10559C000A008888FF48A4ACB5E6B4ACA4000008A7
:1055AC000F00080A0B04040B0800FE0080FF2010FB
:1055BC00EF08887808000301000F080402010204B8
:1055CC000800028A529AD6B3D28A528A0200020288
:1055DC000202020F020202020200A0908E8888FFD3
:1055EC0088888880800008080402010001020408F1
:1055FC00080010FC03045454555654540400000F76
:10560C0000000F050505050F0000463282B2466BFF
:10561C00524A62126600000E0808080F0808080EAD
:10562C00000042F22EE2013D2121213FE000000763
:10563C0002070101010109080700909048542392C8
:10564C004A6652C04000080808090504030201001C
:10565C00000000F01010101F121212F202000805C8
:10566C0001050901050901050800CF09F94F844816
:10567C00FF00FF4884000704030208040300070826
:10568C000E0010DE10FF1292F90DEB09F90009085B
:10569C0004020100090403040900A86A3FAA6C0A69
:1056AC0010EF08F8080002020A0F010108050205B4
:1056BC00080098D4B38814745CF744444400040480
:1056CC0002020403080F0001060010D2565A52536E
:1056DC00525A56D21000000F050505050505050F99
:1056EC00000044348506942410EF08F808000804E0
:1056FC0002010204080403040800404242FE424234
:10570C0042FE42424000000806010000000F00006B
:10571C0000004048494A48F8484A494840000808AF
:10572C00040201000102040808001212EABFA0A042
:10573C00A7AAEA090C0000000F020202020A0F00DD
:10574C000000202224E8203F20E824222000080426
:10575C0002010000000708080E00224480E41CC56A
:10576C003E54947404000402000F0108050205085D
:10577C000800C0405F55D515D5555F40C0000F05DA
:10578C0005050F000F0505050F0010FC0380FE2A10
:10579C00EA2BEA2AEE00000F01000F0107010709AE
:1057AC000F00007C555654FC5456557C00000101EA
:1057BC000101010F01010101010000FE0202F29240
:1057CC0092F20202FE00000F040404040404040418
:1057DC000F002010FC2324E4BCA7A4A4200000008C
:1057EC000F0000020204060900002020AF692929DD
:1057FC0029292F20200000000101010101090907BE
:10580C0000002010FC03FE2222FE212120000000BB
:10581C000F000702050803040F0000FE024242427B
:10582C00FA42424202000807080808080F08090A51
:10583C0008008888FF4800FE42C25252CE00000881
:10584C000F00000F08050205080092BFAABACFBAD4
:10585C00C4AB92AEC20000020E0A0A0A0A0A0E0279
:10586C00000000FE909F10FE12F2129171000807CA
:10587C00000F04030805020508000404846414FFE7
:10588C0014648404040002010202020F02020201E9
:10589C00020000FEAAAAABAAAAAAAAFE0000080649
:1058AC00000608090A080C020C001010282422E13A
:1058BC0022242810100008090909090F09090909EF
:1058CC0008008888FF48480222222222FE00000895
:1058DC000F000004040404040F008888FF48F297AA
:1058EC0092F29297F20000080F000F0404070404D0
:1058FC000F00FC0404E6252424E40404FC000F003F
:10590C0000030202020308080F002027A5A5673830
:10591C0067A5AD372000010F0A0A0E000E0A0A0F08
:10592C0001004040404040404040404040000000AA
:10593C000000000000000000000000040404040447
:10594C000404040400000404040404040404040413
:10595C000400000242424242424242020000080855
:10596C000808080808080808080000FE02827E02E1
:10597C00027E8282FE00000F050404040404040469
:10598C000F00022222E23E222222E202000008083C
:10599C000E09080808080F080800101010D011167E
:1059AC0010509010100008040300000000000003C9
:1059BC000C0020202020FF101010101010000000F0
:1059CC0000000708080808080E00000000FE000090
:1059DC00007F8000000008040300000000000106A6
:1059EC000800080808FF080808F800000000080470
:1059FC0003000000000708080E002020202020FFD4
:105A0C0020202020200000000000000F00000000DB
:105A1C00000000FE02EA2A2A2A2AEA02FE00000FEF
:105A2C0000010101010109080F00E90AE800AEA814
:105A3C00A8EFA8A8AE00040502000F000700070895
:105A4C000F00445455D6745C54565554440004020B
:105A5C00090909090F09090908001011F20010922F
:105A6C0052321292100008040304090909090909A9
:105A7C000B000403FAAEAAA8ACABFA0602000202B1
:105A8C000B060202020E030202008888FF484A320B
:105A9C0026EA2129050000080F000D09090F090944
:105AAC000D008868FF28404242FE42424000000040
:105ABC000F000000000F000000008868FF2844243D
:105ACC00D506D424440000000F0008080502050880
:105ADC00080004082010FC2724FD262404000402DE
:105AEC0001000F09090F0909080008F8494AD008F4
:105AFC00D714F414340008070808070807080F091E
:105B0C00090098F7949442C27E4242FE0000000FB6
:105B1C000408080F0808080F080008F4535252F242
:105B2C005A5650F000000807010101070101090F46
:105B3C00000000FE0A8ABEAAABAABE8A0A000807A9
:105B4C000008090A04040A09080000FC242426257C
:105B5C00242424FC0000000F090909090909090F74
:105B6C00000010D23292100008FF0808F80003025F
:105B7C00020203080601080807007800FF08C43F6A
:105B8C00C404F444240000000F04030804020106BA
:105B9C00080004027DD555555555557D0100000A68
:105BAC00090B050505050B0908005F5551FF555FED
:105BBC000010FF1214000A060A0509050807000761
:105BCC0008001011F2000000C03FC00000000000EF
:105BDC000702090601000106080000024242424287
:105BEC004242420200000808080808080808080891
:105BFC00080008F4535252F25A5650F000000807AD
:105C0C00010101070101090F0000018BFDA9AFF88B
:105C1C00A9ABFD810F00020A060302020203060A69
:105C2C000200445455D6745C545655544400040236
:105C3C00090909090F090909080011F2007A4ACA71
:105C4C00FFCA4A7A02000807080A09080F08090A5D
:105C5C00080000FF05A5A5A5E55555150700080783
:105C6C0002020202070909090C008445F6AC0A5F1E
:105C7C00524A5F4A120000000F000503090F01038E
:105C8C000500C15D55D5555DC100FC00FF000F0539
:105C9C00050705050F0001080F0000FC4444FF44F4
:105CAC0044FF4444FC00000F0404070404070404EC
:105CBC000F0010FF108848FF0808F8408000000F04
:105CCC00000806010808070001001011F200186016
:105CDC00810680601C000000070209040201020416
:105CEC0008008888FF48BCAAA0FFA0AABE00000834
:105CFC000F0008090A04040A0900180A4A6ADA4F54
:105D0C004A2A8A0A180000090501090F0101050930
:105D1C0000008868FF2840FE0202FE000000000020
:105D2C000F080403000007080E0000FC2424E40400
:105D3C00FF0485660400080700020B04020102043C
:105D4C000F000404FC040408FF080808F800020211
:105D5C0001090503000008080700A0908E8888FF41
:105D6C008888888080000808040201000102040869
:105D7C000800FE02FA02FE10EC0B08F808000904F9
:105D8C00030409080502050808008888FF487057B5
:105D9C0075857557700000080F000905030F030582
:105DAC0009002010FC030807FC2424240400000034
:105DBC000F0000000F010101010004D3525652F4F0
:105DCC0053525672020008090503010F010109091B
:105DDC000700020480201887748404140C0002014C
:105DEC00080402010001020408008868FF2840FE34
:105DFC000202FE00000000000F0804030000070868
:105E0C000E0008F4929392F2929A96F0000000071A
:105E1C0008080808080808080E0008F4131212D223
:105E2C001A1610F00000080904040201020204050D
:105E3C000800040484E45C47444444C404000201A4
:105E4C00000F04040404040F000000FE020202020E
:105E5C00020202020200080700000000000000001D
:105E6C00000042F22EE200F453F25A56F000000702
:105E7C0002070807010701090F0008FAAAAAAAFEDF
:105E8C00A9A9A9F90800080A0A0A0A0F0A0A0A0AA3
:105E9C0008000000FCA4A4A5A6A4A4A4BC000806A9
:105EAC00010F0404040404040F0020108E8888FFE2
:105EBC0088888808000008080808080F08080808DF
:105ECC00080010220400FC4444FF4444FC0004027B
:105EDC0001000F04040704040F0000F90200010183
:105EEC0001010101FF00000F000000000000080884
:105EFC000F008888FF4800CF54545252D900000834
:105F0C000F00000F050505050F00482A987F284A49
:105F1C0010EF08F80800090B05050B000805020531
:105F2C000800FD01FD2525FD2525FD01FD000704CB
:105F3C0005050505050505040F0002F21212FA56B7
:105F4C0052F21212F200000F0404070505070404B4
:105F5C000F0004F49494F404FF04C5360400040404
:105F6C0004020A04020102040F008888FF48004C56
:105F7C00C47546C44C0000080F0008080502020551
:105F8C0008001232521732D2124F2A0A02000909A3
:105F9C000503010F010305090900007C555654FC4B
:105FAC005456557C000001010101010F0101010152
:105FBC00010094F39264DC88AAFFAABE0800000FCB
:105FCC00040A070A0A0F0A0A0A0088780F8878421E
:105FDC0042F24A464000080502050800080F00007E
:105FEC0000001011F2000828C80808FF0800080477
:105FFC0003040808080A0A0B080000FE02FAAAAEFD
:10600C00AAAAAAFA02000807080402080F00020450
:10601C00080088780FF800D8545350D83000080581
:10602C00020D000F0404040F00008888FF4800FED6
:10603C00AAAAFAAAAE0000080F0806010F0404046D
:10604C000F00FF31CF48D20AFEABAAFA02000F02B2
:10605C00010807080B080A0B080000FE02EAAAEA6E
:10606C00029F629BC20009060006080A0D080C027A
:10607C000D0090523E12127E12003E80FF00080A64
:10608C000A0A0A0F0A0A0A0A08000488FF001010FC
:10609C00D03FD012140001000F00080601000106C9
:1060AC000800444424140CA74C1424444400040356
:1060BC00000708080B080C0106001011F200282636
:1060CC00E43FE4242000080403040A090808090A30
:1060DC000B008888FF4821A395E995A320000008B0
:1060EC000F000202020F0202020010D04854D2111B
:1060FC00D25448D010000007020207000F0004071A
:10610C00000000108894E7C4A4A4948C80000101C2
:10611C00000F0404040404040F0004027DD555553B
:10612C005555557D0100000A090B050505050B09A0
:10613C000800009E8080BF90888794A40400080FFC
:10614C0008080F080F08080F08008445F62C40FEBD
:10615C0002FA02FE000000000F000804030007080A
:10616C000C0018D654FF54D410FC0000FF0000079C
:10617C00000F0407000108080F00FC0000FF0002DC
:10618C0022222222FE000108060100040404040459
:10619C000F0010FC03086888090A08E80800000FC3
:1061AC000008080B080C0B08080020A424FF24008E
:1061BC00F212121E80000807040F0908090A0A0AC5
:1061CC000B0098D4B3084844AB922A464000040410
:1061DC000202000202040508000020102C23E0201B
:1061EC002023EC1020000008040300080808070016
:1061FC000000FC242424FF242424FC0000000301C0
:10620C0001010709090909080E00929A96F2929A5F
:10621C00B200FC00FF000808080704040400010891
:10622C000F00FE02FA02FE00C0407F48C8000904BD
:10623C00030409000F0404040F00FFFFFFFFFFFF1E
:10624C00FFFFFFFFFFFFFFFFFFFFFFFFFFFFFFFF52
:10625C00FFFFFFFFFFFFFFFFFFFFFFFFFFFFFFFF42
:10626C00FFFFFFFB8101030FFFFFFFFFFFFF030198
:10627C000103FFFFFFFFFFFFFFFFFFFFFFFFFFFF1C
:10628C0007010103FFFFFFFFFFFF3F070383C7FF6A
:10629C00FFFFFFFFFFFFFFFFFFFFFFFFFFFFFFFF02
:1062AC00FFFFFFFFFFFFFFFFFFFFFFFFFFFFFFFFF2
:1062BC00FFFFFFFFFFFFFFFFFFFFFFFFFFFFFFFFE2
:1062CC00FF1FC0FFFF7F1FE1FDFFEF2F8FEFFFFFD1
:1062DC00FFFF3F8FE7FFFFFFFFFFFFFFFFFFFFFF0A
:1062EC00FF7F3F1F0F0C0000000707070303000090
:1062FC00040707070F0F1F1F3F7F9F1F0F0F070775
:10630C000700000607070707070300000C0F1F3FD5
:10631C007FFFFFFFFFFFFFFFFFFFFFFFFFFFFFFF01
:10632C00FFFFFFFFFFFFFFFFFFFFFFFFFFFFFFFF71
:10633C00FFFFFFFFFFFFFFFFFFFFFFFFFFFFCFE3AD
:10634C00F8FEBE8EE2F8BEBF9F87B0FEFFFFFFFFD8
:10635C00C7F1FCFFFFFFFFFFFFFFFFFFFF3F070140
:10636C000000202020202020202000000000000021
:10637C00080808080808080000000306F8080808C0
:10638C000808080000000020202020202020000009
:10639C00806023EFFFFF3F3FFFFFFFFFFFFFFFFF8B
:1063AC00FFFFFFFFFFFFFFFFFFFFFFFFFFFFFFFFF1
:1063BC00FFFFFFFFFFFFFFFFFFFFFFFFFFFFFFFFE1
:1063CC00FFFFFFFFFFFFFFFFFFFFFFFFFFFFFFFED2
:1063DC00FFFFFFFFFFFFFFFFFFFFFF7F7FFCF0C012
:1063EC0020408000000000000000000000000000C1
:1063FC000000000000000000C070880C73C0300862
:10640C00F800000000000000000000000000F00890
:10641C006FC8B80F0998FEFFFFFFFFFFFFFFFFFFDC
:10642C00FFFFFFFFFFFFFFFFFFFFFFFFFFFFFFFF70
:10643C00FFFFFFFFFFFFFFFFFFFFFFFFFFFFFFFF60
:10644C00FFFFFFFFFFFFFFFFFFFFFFFFFFFFFFFF50
:10645C00FFFFFFFFFFFFFFFFFFFFFFFEFC18098F91
:10646C00BC482704DC380808F808080800000000BD
:10647C000000040404C68B1B3B47971437ACA28363
:10648C007C000000000000080828CC8C1C3E0E8309
:10649C00E0F8FEFEFFFFFFFFFFFFFFFFFFFFFFFF28
:1064AC00FFFFFFFFFFFFFFFFFFFFFFFFFFFFFFFFF0
:1064BC00FFFFFFFF7FFFFFFFFFFFFFFFFFFFFFFF60
:1064CC00FFFFFFFFFFFFFFFFFFFFFFFFFFFFFFFFD0
:1064DC00FFFFFFFFFFFFFFFFFFFFFFFFFFFFFEFEC2
:1064EC00FEFCF8F9F8FCFE070000000000000000BC
:1064FC0000000000000007FFFEFCFC86030100000A
:10650C000000000000000000000087FFFFFFFFFFFD
:10651C00FFFFFF07E7F7F773FF1FC7FFFFFF7F03BF
:10652C00FFFF03F9FDFDFDFFFFFFFF00873379FD42
:10653C00FFFFFF8FE0FFFFFFFFFFFFFFFFFFFFFFEE
:10654C00FFFFFFFFFFFFFFFFFFFFFFFFFFFFFFFF4F
:10655C00FFFFFFFFFFFFFFFFFFFFFFFFFFFFFFFF3F
:10656C00FFFFFFFFFFFFFFFEFCF80000F0F8F8F85C
:10657C00F80000F8FCFEFFFFFFFFFFFFFEFCF80039
:10658C0000C0F8F8F8E00000F8FEFFFFFFFFFFFF87
:10659C00FFFFFFE0FCFEFEFEFFF8FBFBFBF9FCFB44
:1065AC00FFFFFEFDFDFDFDFEFFFFFFFEFFFFFEFCFE
:1065BC00FFFFFFFDFFFFFFFFFFFFFFFFFFFFFFFFE1
:1065CC00FFFFFFFFFFFFFFFFFFFFFFFFFFFFFFFFCF
:1065DC00FFFFFFFFFFFFFFFFFFFFFFFFFFFFFFFFBF
:1065EC00FF9F9F8F8F8F8F8787C7C0C0E7EFFFFFFD
:1065FC00EFC0C0C387878787878F8FF78787C7C010
:10660C00C0EFFFFFEFE7C0C0C787878F8F8F8F9FCB
:10661C00BFFFFFFFFFFFFFFFFFFFFFFFFFFFFFFFBE
:10662C00FFFFFFFFFFFFFFFFFFFFFFFFFFFFFFFF6E
:10663C00FFFFFFFFFFFFFFFFFFFF00000000000058
:10664C00000000000000000000000000000000003E
:10665C00000000000000000000FF010101F9090921
:10666C00794141790909794141790909090101FF08
:10667C0000000000000000000000000000FE02020C
:10668C00FE000008C8FF4880F45F5454545FF404C3
:10669C00001010FF10908484FF848484FC80001010
:1066AC0028E7242400A4BFA4A4BFA420002021E632
:1066BC0000004F4949C949494F0000000000000043
:1066CC0000000000000000000000000000000000BE
:1066DC00000000000000000000FF0000809B000094
:1066EC0018809880980018C02020C000000000FF7F
:1066FC00000000000000000000000000003B2A2AFF
:10670C003B000001003F002425150D070D15252425
:10671C00000404070222100C0300030C10200001DB
:10672C00013F1109003F242424243F000000001FD6
:10673C000822120A0603060A1222000000000000BA
:10674C00000000000000000000000000000000003D
:10675C00000000000000000000FF0000E5A5A0A064
:10676C00E0A7A7A7E7A0A0A7E8A8A7A0E00000FFC4
:10677C00404040404040404040404040404040400D
:10678C0040404040404040404040404040404040FD
:10679C0040404040404040404040404040404040ED
:1067AC0040404040404040C000000000000000005D
:1067BC0000000000000000000000000000000000CD
:1067CC0000000000000000000000000000000000BD
:1067DC000000000000000000000FF8080B0A0A0A75
:1067EC000B0A0A0AFB0A0A0A0B0A0A0A0B08F80F18
:1067FC0005050505050505050505050505FD01014D
:10680C00010101010101010101010101010101016C
:10681C00FF0000000000000000000000000000006D
:10682C0000000000000000FF00000000000000005D
:10683C00000000000000000000000000000000004C
:10684C00000000000000000000000000000000003C
:10685C0000000000000000000000FF00000000002D
:10686C0000000000FF000000000000000000FF001E
:10687C0000000000000000000000000000FF00000D
:10688C0000000000000000000000000000000000FC
:10689C00FF000000000000000000000000000000ED
:1068AC0000000000000000FF0000000000000000DD
:1068BC0000000000000000000000000000000000CC
:1068CC0000000000000000000000000000000000BC
:1068DC0000000000000000000000FF0000000000AD
:1068EC0000000000FF000000000000000000FF009E
:1068FC0000000000000000000000000000FF00008D
:10690C00000000000000000000000000000000007B
:10691C00FF0000000000000000000000000000006C
:10692C0000000000000000FF00000000000000005C
:10693C00000000000000000000000000000000004B
:10694C00000000000000000000000000000000003B
:10695C0000000000000000000000FF00000000002C
:10696C0000000000FF000000000000000000FF001D
:10697C0000000000000000000000000000FF00000C
:10698C0000000000000000000000000000000000FB
:10699C00FF000000000000000000000000000000EC
:1069AC0000000000000000FF0000000000000000DC
:1069BC0000000000000000000000000000000000CB
:1069CC0000000000000000000000000000000000BB
:1069DC00000000F8888800F8A8A800000000F888DB
:1069EC008800F8808000F8205000000000F810F8B3
:1069FC000088F88800B8A8E800708870000000884B
:106A0C00F88800F8287880003828F800000000008A
:106A1C00F810F80070887000B8A8E80088F88800B2
:106A2C00000000000000F8888800B8A8E800F81002
:106A3C0020F80000000000000000FFFFFFFFFFFF38
:106A4C00FFFFFFFFFFFFFFFFFFFFFFFFFFFFFFFF4A
:106A5C00FFFFFFFFFFFFFFFFFFFFFFFFFFFFFFFF3A
:106A6C00FFFFFFFFFFFFFFFFFFFFFFFFFFFFFFFF2A
:106A7C00FFFFFFFEFEFEFEFDFDFDFDFBFBFBFBF73E
:106A8C00F777776F6F7F3F3FFFFFFFFFFFFFFFFF42
:106A9C00FFFFFFFFFFFFFFFFFFFFFFFFFFFFFFFFFA
:106AAC00FFFFFFFFFFFFFFFFFFFFFFFFFFFFFFFFEA
:106ABC00FFFFFFFFFFFFFFFFFFFFFEFEFEFEFDFDE2
:106ACC00FDFDFDFDFBFBFBFBFBFBFBF7F7F7F7F716
:106ADC00F7EFEFEFEFEFEFEFDFDFDFDFDFDFBFBF72
:106AEC00BFFF3F3F1F1F1F1F1F0F0F0F0F0F07076A
:106AFC0007070707FF030301010101010000000064
:106B0C000000000000000000FFFFFFFFFFFFFFFF81
:106B1C00FFFFFFFFFFFFFFFFFFFFFFFFFFFFFFFF79
:106B2C00FFFFFFFFFFFFFFFFFFFFFFFFFFFFFFFF69
:106B3C00FFFFFFFFFFFFFFFFFFFFFFFFFFFFFFFF59
:106B4C00FFFFFFFFFFFFFFFFFFFFFFFFFFFFFFFF49
:106B5C00FFFFFFFFFFFFFFFFFFFFFFFFFFFFFFFF39
:106B6C00FFFF00000000000000000000000000001B
:106B7C0000000000FF00000000000000000000000A
:106B8C000000000000000000FFFFFFFFFFFFFFFF01
:106B9C00FFFFFFFFFFFFFFFFFFFFFFFFFFFFFFFFF9
:106BAC00FFFFFFFFFFFFFFFFFFFFFFFFFFFFFFFFE9
:106BBC00FFFFFFFFFFFFFFFFFFFFFFFFFFFFFFFFD9
:106BCC00FFFFFFFFFFFFFFFFFFFFFFFFFFFFFFFFC9
:106BDC00FFFFFFFFFFFFFFFFFFFFFFFFFFFFFFFFB9
:106BEC00FFFF02020202020202020202020202027F
:106BFC0002020202FF02020202020202020202026C
:106C0C000202020202020202FFFFFFFFFFFFFFFF70
:106C1C00FFFFFFFFFFFFFFFFFFFFFFFFFFFFFFFF78
:106C2C00FFFFFFFFFFFFFFFFFFFFFFFFFFFFFFFF68
:106C3C00FFFFFFFFFFFFFFFFFFFFFFFFFFFFFFFF58
:106C4C00FFFFFFFFFFFFFFFFFFFFFFFFFFFFFFFF48
:106C5C00FFFFFFFFFFFFFFFF7F7F7F7F7F7FBFBFB8
:106C6C00BFFFC0C0808080808080000000000000DA
:106C7C0000000000FF000000000000000000000009
:106C8C000000000000000000FFFFFFFFFFFFFFFF00
:106C9C00FFFFFFFFFFFFFFFFFFFFFFFFFFFFFFFFF8
:106CAC00FFFFFFFFFFFFFFFFFFFFFFFFFFFFFFFFE8
:106CBC00FFFFFFFFFFFFFFFFFFFFDFDFDFEFEFEF68
:106CCC00EFEFEFF7F7F7F7F7FBFBFBFBFBFBFDFD3C
:106CDC00FDFDFDFEFEFEFEFEFFFFFFFFFFFFFFFFC3
:106CEC00FFFFFFFFFFFFFFFFFFFFFFFFFFFFFFFFA8
:106CFC00FEFEFEFEFFFEFCFCFCFCFCF8F8F8F8F8CF
:106D0C00F87070B0B0D0F0E0FFFFFFFFFFFFFFFFA7
:106D1C00FFFFFFFFFFFFFFFFFFFFFFFFFFFFFFFF77
:106D2C00FFFFFFFFFFFFFFFFFFFFFFFFFFFFFFFF67
:106D3C00FFFFFFFFFFFFFFFFFFFFFFFFFFFFFFFF57
:106D4C00FFFFFFFFFFFFFFFFFFFFFFFFFFFFFFFF47
:106D5C00FFFFFFFFFFFFFFFFFFFFFFFFFF7F7FFF37
:106D6C007FFF7F7F7F6FFFFFFF7F7F7F7FFFFFFFB7
:106D7C007F7F6F0FFFDF6F6F77F7FB7B7DFD7DFEF6
:106D8C007E7FFF7F7F7FFFFFFFDF0FFFFFFF1FEF88
:106D9C00EF1FFFFFFFFFFFFFFFFFFFFFFFFFFFFFE7
:106DAC00FFFFFFFFFFFFFFFFFFFFFFFFFFFFFFFFE7
:106DBC00FFFFFFFFFFFFFFFFFFFFFFFFFFFFFFFFD7
:106DCC00FFFFFFFFFFFFFFFFFFFFFFFFFFFFFFFFC7
:106DDC00FFFFFFFFFFFFFFFFFFFFFFFFFF7F7CB306
:106DEC00BCD3DCDFEFF0F7FFFFF7F0F7FFF0F7FFB6
:106DFC00F8F7F7F0F7F8F7F7F7F8FFFFFCF3FCF309
:106E0C00FCFFF4F5F5F3FFFFFFF7F0F7FFFFF8F7E2
:106E1C00F7F8FFFFFFFFFFFFFFFFFFFFFFFFFFFF85
:106E2C00FFFFFFFFFFFFFFFFFFFFFFFFFFFFFFFF66
:106E3C00FFFFFFFFFFFFFFFFFFFF00000000000050
:106E4C00001030F0F0F05090D8F8F8F0908080807E
:106E5C00800000000000000020203030101090F85E
:106E6C00F87838100000000000000000000000005E
:106E7C00C0E0F0B0F8FCCCCCF870308080000000A2
:106E8C000000000000404040404878F8F82020E026
:106E9C00FC3C2C3030303020000000006060606022
:106EAC006060202020202020303010101010303056
:106EBC00000000010303131391D1F97F1F1B0989F3
:106ECC008F8F8B88800000000000001010101818A5
:106EDC00080808090BFFFFFE8404040406060604D8
:106EEC0004000000003E1E2E2427E7FF7EBE929376
:106EFC009191151707030302000000000000000623
:106F0C001E1E92D6FEFEB2FFDFCFC9CF0F070300C5
:106F1C00000000000000FEFEFE6247FFFE03FFFFC4
:106F2C00337363FFFFE300000000002030181C0ED9
:106F3C0007031F3F3F111111101F1F1F03010000FA
:106F4C00000000000000000000101030707F7F3F38
:106F5C000700000000000000000000002030381C7A
:106F6C004E476323371F1D1F1F31706060606040E8
:106F7C004000000040404042626331331E1E0C0E44
:106F8C0007030100000000000000000000001F1FAC
:106F9C0007081E1F1F0C1F1F0008383F3F0F000063
:106FAC000000004040C0C04040404060E0E0A020F5
:106FBC002020303030303030200000000000C0F095
:106FCC007C3CD8C08004FCFCD8607030A0800000F1
:106FDC00000000000000000080C0F07E3F0F0504A0
:106FEC0084FCFC7C08000000000000000607F7FB96
:106FFC005A4BFBFB1B03F7F7BECCEC6C670700008E
:10700C0000000000181C0C07030301000C3C383C6A
:10701C001F0F03000000000000000000103F3F079E
:10702C0012323F3F0E001F1F3930303030381F1FD7
:10703C0000000000E01010101010101010101010B4
:10704C00101010101010101010101010101010E064
:10705C0000000000FF000000000000000000000025
:10706C00000000000000000000000000000000FF15
:10707C0000000000070808080808080808080808A5
:10708C000808080808080808080808080808080775
:10709C0000000F07030383C323131B1B2BABAB2B6A
:1070AC00333363C3030303030323131313E30303F4
:1070BC00E3131313230303E3131393E30303070FE4
:1070CC00000000001F3060A0A64646DF9F86868623
:1070DC0040301F00000000081111110E00000F11AC
:1070EC0011110E00000F1211100F00000000000013
:1070FC000000888888F8888989F989898820A0F80F
:10710C00A000F80808F80000002090906000505093
:10711C00F848408040F8002040000000E0C0C0C0AB
:10712C00D0D8CCC7C0C0C0DFC0C0C0C2C1DFD0CDBA
:10713C00C7C0C0DFD0DCC0C4C8C8C7C0C2C1DFC1B3
:10714C00D2D0D8CBC4C2C1C0C0E0FC06030101C17F
:10715C00611109090D15D5D5151919316181010177
:10716C00010121111111E10101E1111111210101A3
:10717C00E1111191E1010101010306FCFF00000086
:10718C00000F18305053A3C3CF8FC3434320180FA5
:10719C0000000000081111110E00000F1111110E4A
:1071AC0000000F1211100F000000000000FFFF0084
:1071BC00000012A404F8484848FE4848F800F404BB
:1071CC00080004040404FC000010F816D454545CA9
:1071DC00D4101000FC74AC1048444448102000FF3C
:1071EC003F6040404C43404F4444444744444F402C
:1071FC004F404040404048484F40404C43404F482F
:10720C004A4A4B4846404F4249484A4D4A4C4A49E3
:10721C00603F80000000800000000000000000FEC5
:10722C0002020202FE00000000000000000000004C
:10723C000000D04946495040404040404040407FCB
:10724C00000000007F4040404040404040404040F3
:10725C0040C00F080808080808080808080808F8BB
:10726C0000030300F80808080808080808080808BC
:10727C00080F00000000000000020478040200FF68
:10728C0080808080FF0000000000000000000000F3
:10729C000000FF81818181FF7F5E7F7F5E7FFFBD6C
:1072AC00FFFFBDFF7F404040407FFFBDFFFFBDFFA4
:1072BC007F404040407FFFBDFFFFBDFF7F4040400F
:1072CC00407F0000F80000000000000000000008F3
:1072DC00F8F808000008F8F8080000000000F8F8BA
:1072EC00F80800000000781818F8F818183878001A
:1072FC000000000000000000000000000000000082
:10730C000000000000000000000000000000000071
:10731C000000003030000000000000000000000001
:10732C0000000000000000003030000000000000F1
:10733C00000000000000000000000000000000F849
:10734C0000000000FF000000000000000000002012
:10735C003F3F210101213F3F2000000000003F3F43
:10736C003F00000000000000003F3F200000000034
:10737C000000000000000000000000000000000001
:10738C0000000000000000000000000000000000F1
:10739C0000000003030000000000000000000000DB
:1073AC0000000000000000000303000000000000CB
:1073BC00000000000000000000000000000000FFC2
:1073CC0000000000FF0000000000000000000000B2
:1073DC00000000000023130864620000000814225F
:1073EC0041000000000000000000003E5149453EF5
:1073FC00003E5149453E0024003E5149453E003E69
:10740C005149453E000000000000004122140800D4
:10741C00003E5149453E003E5149453E0040003E2C
:10742C005149453E001F2040201F00003E227F4155
:10743C005D5D5D5D5D5D5D5D5D5D417F000000FFDF
:10744C000000F048FF48F00000FE01010101FE00C1
:10745C00180E19017D46447C00003E5149453E0002
:10746C0040003E5149453E003E5149453E001F20DB
:10747C0040201F0000000000000000000000000081
:10748C0000000000000000000000000000000000F0
:10749C0000000000000000000000000000000000E0
:1074AC0000000000000000000000000000000000D0
:1074BC0000000000000000000000000000F048FF89
:1074CC0048F00102FF02010000FF00000000FF0075
:1074DC001824444E0A0A0A0E00003E5149453E004B
:1074EC0040003E5149453E003E5149453E001F205B
:1074FC0040201F0000000000000000000000000001
:10750C00000000000000000000000000000000006F
:10751C00000000000000000000000000000000005F
:10752C00000000000000000000000000000000004F
:10753C00000000000000000000000000000102FF3D
:10754C0002010000FF00000000FF00000000FF002F
:10755C00011F012030383C3E0000000000000000FC
:10756C000000000000003E5149453E004626100830
:10757C006462000000000000000000000000000039
:10758C0000000000000000000000000000000000EF
:10759C0000000000000000000000000000000000DF
:1075AC0000000000000000000000000000000000CF
:1075BC00000000000000000000000000000000FFC0
:1075CC0000000000FF00000000FF80000080FF00B2
:1075DC000F0507486070787C000000000000000078
:1075EC000000000000003E5149453E0046261008B0
:1075FC0064620000000000000000000000000000B9
:10760C00000000000000000000000000000000006E
:10761C00000000000000000000000000000000005E
:10762C00000000000000000000000000000000004E
:10763C00000000000000000000000000000000FF3F
:10764C00000000000300001010101010101010109B
:10765C0010101010101010101010101010101038F6
:10766C0054547C545438101010101010101010106A
:10767C00101010101010101010101010101000001E
:10768C00000000000000101010101010101010104E
:10769C001010101010101010101010101010385472
:1076AC00547C54543810101010101010101010106E
:1076BC0010101010101010101010101010000003EB
:1076CC00000088780F88784242F24A46400000C099
:1076DC00300000FF0000106080004040424242F247
:1076EC004A4642404000080502050800080F000009
:1076FC00000001000008080F00000000010000005D
:10770C000008080F0000000000001D555F551DFE0D
:10771C0012E212FE00001D555F551DFE12E212FE14
:10772C00000000000000000000000000000005093F
:10773C000F010D07010001070C0005090F010D07D2
:10774C00010001070C000000000000000000000018
:10775C00000000FFFFFF87878787870000060F0761
:10776C000707CFFFFFFE00060F070707CFFFFFFE3F
:10777C00000000000000007F7F7F03030303030071
:10778C000070787C7E7F7F7773700070787C7E7F52
:10779C007F777370000000000000183C6444C49CA8
:1077AC00180000FCFC000000FCFC0000080C84C469
:1077BC00643C1800000C0C0484C47C3C0000060ED5
:1077CC000808080F070000070F0808080F0700003B
:1077DC000E0F0908080C0C000000000F0F00000031
:0277EC0000009B
:109C14004102F8004102E9004102F400410002005F
:109C240041030100410336004202E300004202E521
:109C340000004202E700004202EA000042008B00FA
:109C44000042008E00004200910000420093000098
:109C54004100A5004100A6004100A7004100A0006A
:109C64004100AF004102780041000000410096002D
:109C74004102A300C1A641021E004102BF004102ED
:109C8400C1004100AC004102630041026600410092
:109C9400822A4102C6014100030041030701410039
:109CA4009A2341009C4641031A0041038800410263
:109CB400770348029B00009C000000000048031248
:109CC4000001020304050607420305025842030B80
:109CD400025842030D025842031002584202FA018C
:109CE400904202FF01904203030190420309019054
:109CF4004100A8334100AA334100AB334100AD33E6
:109D040001080041037D0048021F0001020304050D
:109D140006074102CE004102DF0041030F00410269
:109D2400F7004503834C4F5645214B033700000091
:109D34000000000000000000410081034100A30076
:109D440041009F0050031B000000000000000000C1
:109D5400000000000000005002AE01F4025803208D
:109D640000C803E800000064012C48028B000102D3
:109D74000304050607410099004102C9004100EEB1
:109D8400004102A4024100909C4102E2CE4102CC77
:109D9400324100EC0A41008D074202640000C10E0A
:109DA4004802EC00000000000000004802836464E4
:109DB40064646464646448029364646464646464AE
:109DC400644802A500000000000000004100A90052
:109DD4004102F9014100ED004102FC024100EF03A0
:109DE4004103020341021C004103080541021D0016
:08B565007F0C7EA8DEFEDFFC76
:01B56D0022BB
:04B4EF007F2C7E012F
:10B4F300AD07AC06ED1DAE0470011C4E600512B520
:04B503006580F1224C
:07B4B900F583E004F07F01C0
:10B4C000EFB40102D20CEFB40202D23ED236E490C5
:04B4D00000A7F022BF
:10A9C200E49002ECF0A3F0A3F0A3F0A3F0A3F0A3B1
:10A9D200F0A3F09002837464F0A3F0A3F0A3F0A3B9
:10A9E200F0A3F0A3F0A3F0900293F0A3F0A3F0A3DE
:10A9F200F0A3F0A3F0A3F0A3F0E49002A5F0A3F07B
:10AA0200A3F0A3F0A3F0A3F0A3F0A3F0C237C238DF
:10AA1200C239C23A9002F904F0E49000EDF09002DB
:10AA2200FC7402F09000EF04F0900302F0E4900254
:10AA32001CF09003087405F0E490021DF0900312DC
:10AA4200F0A304F0A304F0A304F0A304F0A304F021
:07AA5200A304F0A304F022AD
:08B4000075C7829002E9E0FF2C
:10B40800EF7003FF801AEFB401047F368012EFB4A7
:10B4180002047F6C800AEFB403047FA280027FCE0F
:01B428002201
:10ABF7009002F8E0FF12B408900395E4F0A3EFF099
:10AC0700E4FFFE900396E02FFD900395E03EFC7471
:10AC1700F02DF58274003CF583E0FD74272FF58253
:10AC270074023EF583EDF00FBF00010EEF64364E60
:10AC370070D19002F4E0FF12B408900395E4F0A3FA
:10AC4700EFF0E4FEFF74272FF58274023EF583E0F0
:10AC5700FD900396E02FFB900395E03EFA74F02BEE
:10AC6700F58274003AF583EDF00FBF00010EEF6433
:04AC7700364E70D114
:01AC7B0022B6
:10AED400EFF00DE4FF12AF18A3EFF00DE4FF12AF93
:10AEE40018A3EFF00DE4FF12AF18A3EFF00DE4FF89
:10AEF40012AF18A3EFF00DE4FF12AF18A3EFF00D9B
:10AF0400E4FF12AF18A3EFF00DE4FF12AF18A3EFA4
:04AF1400F00DE4FF59
:10AF180075C501D3ED94FFEC9400400AEF04F5C326
:10AF2800ED04F5C480068FC3AF058FC475C65A7586
:05AF3800C6A5AFC22216
:10AE6600E0FBE4FF12AEA9A3E0FB0DE4FF12AEA9DE
:10AE7600A3E0FB0DE4FF12AEA9A3E0FB0DE4FF1275
:10AE8600AEA9A3E0FB0DE4FF12AEA9A3E0FB0DE41F
:10AE9600FF12AEA9A3E0FB0DE4FF12AEA9A30DE0DD
:03AEA600FBE4FFCB
:10AEA90075C502AE038EC2D3ED94FFEC9400400A3F
:10AEB900EF04F5C3ED04F5C480048FC38DC48FC3BB
:0BAEC900AF058FC475C65A75C6A522E0
:0500260075C782E4FF34
:0F002B0075C5038FC3E4F5C475C65A75C6A52203
:10A6DD0075C782E4FDFCFF12AF18EF64A06009D2CC
:10A6ED001ED216D22B02A7A77D027C00E4FF12AF6B
:10A6FD001890030712AF1390008212AF139002C689
:10A70D0012AF139000A812AF139000AA12AF0A90C7
:10A71D0000AD12AF1390034212AEEF90037E12AE56
:10A72D00EF90009A12AF1390009C12AF139000039C
:10A73D00EFF07D1EE4FF12AF1890021F12AED49001
:10A74D00028B12AED490009912AF13EF24FF921624
:10A75D000DE4FF12AF189002F8EFF09002E912AF7E
:10A76D0014EF24FF922B0DE4FF12AF18EF24FF928C
:10A77D003D0DE4FF12AF189000EE12AF139002E200
:10A78D0012AF139002CC12AF1390009012AF139032
:0EA79D00008D12AF139000ECEFF0E4F5C72230
:10A876001200267BA0E4FDFC12AEA99003077D0220
:10A8860012AEA590008212AEA49002C612AEA4909B
:10A8960000A812AEA49000AA12AE9B9000AD12AE14
:10A8A600A490034212AE8090037E12AE8090009A6E
:10A8B60012AEA490009C12AEA490000312AEA49017
:10A8C600021F7D1E12AE6690028B0D12AE669000C0
:10A8D6009912AEA4A216E433FB0DE4FF12AEA990C2
:10A8E60002F812AEA4A22BE433FB0DE4FF12AEA9CC
:10A8F600A23DE433FB0DE4FF12AEA99000EE12AECA
:10A90600A49002E212AEA49002CC12AEA4900090E3
:10A9160012AEA490008D12AEA49000EC12AEA4E488
:03A92600F5C72250
:108E860012B400AB077A00AD037C007F0212AF1864
:108E9600EF64A06017EB2401FDEA33FC7F0212AFFA
:108EA60018EF640A600612A9C20291FCE4900395C9
:108EB600F0A3F0900395E0FCA3E0FDC39404EC94CA
:108EC6000150277F0212AF18900395E0FCA3E0241F
:108ED600F0F58274003CF583EFF0900396E004F021
:108EE60070D1900395E004F080C974F22BF582747A
:108EF600003AF583E09002ECF074F32BF5827400EF
:108F06003AF583E09002EDF074F42BF58274003AA2
:108F1600F583E09002EEF074F52BF58274003AF5D5
:108F260083E09002EFF074F62BF58274003AF58335
:108F3600E09002F0F074F72BF58274003AF583E0C6
:108F46009002F1F074F82BF58274003AF583E09004
:108F560002F2F074F92BF58274003AF583E0900280
:108F6600F3F074FA2BF58274003AF583E0900283ED
:108F7600F074FB2BF58274003AF583E0900284F0DE
:108F860074FC2BF58274003AF583E0900285F07448
:108F9600FD2BF58274003AF583E0900286F074FEAC
:108FA6002BF58274003AF583E0900287F074FF2B6C
:108FB600F58274003AF583E0900288F074002BF590
:108FC6008274013AF583E0900289F074012BF582F0
:108FD60074013AF583E090028AF074022BF58274EC
:108FE600013AF583E0900293F074032BF582740145
:108FF6003AF583E0900294F074042BF58274013AFA
:10900600F583E0900295F074052BF58274013AF52C
:1090160083E0900296F074062BF58274013AF5838C
:10902600E0900297F074072BF58274013AF583E01D
:10903600900298F074082BF58274013AF583E0905B
:109046000299F074092BF58274013AF583E09002D7
:109056009AF0740A2BF58274013AF583E09002A522
:10906600F0740B2BF58274013AF583E09002A6F0BA
:10907600740C2BF58274013AF583E09002A7F07424
:109086000D2BF58274013AF583E09002A8F0740E78
:109096002BF58274013AF583E09002A9F0740F2B48
:1090A600F58274013AF583E09002AAF074102BF56C
:1090B6008274013AF583E09002ABF074112BF582CD
:1090C60074013AF583E09002ACF074122BF58274C9
:1090D600013AF583E024FF923774132BF58274016D
:1090E6003AF583E024FF923874142BF58274013A22
:1090F600F583E024FF923974152BF58274013AF555
:1091060083E024FF923A74162BF58274013AF583B4
:10911600E09002F9F074172BF58274013AF583E0BA
:109126009000EDF074182BF58274013AF583E09007
:1091360002FCF074192BF58274013AF583E0900075
:10914600EFF0741A2BF58274013AF583E09003026E
:10915600F0741B2BF58274013AF583E090021CF043
:10916600741C2BF58274013AF583E0900308F074C1
:109176001D2BF58274013AF583E090021DF0741EF2
:109186002BF58274013AF583E0900312F0741F2BDD
:10919600F58274013AF583E0900313F074202BF501
:1091A6008274013AF583E0900314F074212BF58262
:1091B60074013AF583E0900315F074222BF582745E
:1091C600013AF583E0900316F074232BF5827401BF
:1091D6003AF583E0900317F074242BF58274013A74
:1091E600F583E0900318F074252BF58274013AF5A7
:0991F60083E0900319F0E4F5C7D1
:0191FF00224D
:108AAC0012B400AD077C007F0212002B74F02DF580
:108ABC0082EC3400F58374A0F074F12DF582EC3463
:108ACC0000F583740AF09002ECE0FF74F22DF5824D
:108ADC00EC3400F583EFF09002EDE0FF74F32DF52C
:108AEC0082EC3400F583EFF09002EEE0FF74F42D8D
:108AFC00F582EC3400F583EFF09002EFE0FF74F5B3
:108B0C002DF582EC3400F583EFF09002F0E0FF7469
:108B1C00F62DF582EC3400F583EFF09002F1E0FFD6
:108B2C0074F72DF582EC3400F583EFF09002F2E04F
:108B3C00FF74F82DF582EC3400F583EFF09002F31E
:108B4C00E0FF74F92DF582EC3400F583EFF0900220
:108B5C0083E0FF74FA2DF582EC3400F583EFF0908E
:108B6C000284E0FF74FB2DF582EC3400F583EFF00A
:108B7C00900285E0FF74FC2DF582EC3400F583EF58
:108B8C00F0900286E0FF74FD2DF582EC3400F58345
:108B9C00EFF0900287E0FF74FE2DF582EC3400F5C7
:108BAC0083EFF0900288E0FF74FF2DF582EC340027
:108BBC00F583EFF0900289E0FF74002DF582EC3420
:108BCC0001F583EFF090028AE0FF74012DF582EC41
:108BDC003401F583EFF0900293E0FF74022DF582DF
:108BEC00EC3401F583EFF0900294E0FF74032DF563
:108BFC0082EC3401F583EFF0900295E0FF74042DC4
:108C0C00F582EC3401F583EFF0900296E0FF7405E9
:108C1C002DF582EC3401F583EFF0900297E0FF74B0
:108C2C00062DF582EC3401F583EFF0900298E0FF0D
:108C3C0074072DF582EC3401F583EFF0900299E086
:108C4C00FF74082DF582EC3401F583EFF090029A55
:108C5C00E0FF74092DF582EC3401F583EFF09002FE
:108C6C00A5E0FF740A2DF582EC3401F583EFF0904A
:108C7C0002A6E0FF740B2DF582EC3401F583EFF0C6
:108C8C009002A7E0FF740C2DF582EC3401F583EF14
:108C9C00F09002A8E0FF740D2DF582EC3401F58301
:108CAC00EFF09002A9E0FF740E2DF582EC3401F583
:108CBC0083EFF09002AAE0FF740F2DF582EC3401E3
:108CCC00F583EFF09002ABE0FF74102DF582EC34DD
:108CDC0001F583EFF09002ACE0FF74112DF582ECFE
:108CEC003401F583EFF0A237E433FF74122DF582D3
:108CFC00EC3401F583EFF0A238E433FF74132DF557
:108D0C0082EC3401F583EFF0A239E433FF74142DB7
:108D1C00F582EC3401F583EFF0A23AE433FF7415DD
:108D2C002DF582EC3401F583EFF09002F9E0FF743D
:108D3C00162DF582EC3401F583EFF09000EDE0FF99
:108D4C0074172DF582EC3401F583EFF09002FCE002
:108D5C00FF74182DF582EC3401F583EFF09000EFE1
:108D6C00E0FF74192DF582EC3401F583EFF09003DC
:108D7C0002E0FF741A2DF582EC3401F583EFF090CC
:108D8C00021CE0FF741B2DF582EC3401F583EFF02F
:108D9C00900308E0FF741C2DF582EC3401F583EF91
:108DAC00F090021DE0FF741D2DF582EC3401F5836B
:108DBC00EFF0900312E0FF741E2DF582EC3401F5F8
:108DCC0083EFF0900313E0FF741F2DF582EC340158
:108DDC00F583EFF0900314E0FF74202DF582EC3452
:108DEC0001F583EFF0900315E0FF74212DF582EC73
:108DFC003401F583EFF0900316E0FF74222DF58219
:108E0C00EC3401F583EFF0900317E0FF74232DF59C
:108E1C0082EC3401F583EFF0900318E0FF74242DFD
:108E2C00F582EC3401F583EFF0900319E0FF742523
:108E3C002DF582EC3401F583EFF0E4900395F0A36B
:108E4C00F0900395E0FCA3E0FD24F0F58274003C67
:108E5C00F583E0FB7F0212AEA9900396E004F0705C
:108E6C0006900395E004F0C3900396E094049003FD
:098E7C0095E0940140CBE4F5C738
:018E850022CA
:10B1BF0012B1EE128332FF12B1EE90000112834BE7
:10B1CF00FF12B1EE90000212834BFF12B1EE90000E
:0FB1DF000312834BFF12B1EE90000412834BFF5B
:10B1EE00E4FEEF339284D281EF25E0FFA282E433B6
:09B1FE004FFFC2810EEEB408E916
:01B207002224
:06B50700C2807D407F07B9
:10B50D00C285EF2420FF12B1EEAF0512B1EED28548
:01B51D00220B
:0CB51E00C28512B1EEE4FF12B1EED2853E
:01B52A0022FE
:0BB37100900396EBF0A3EAF0A3E9F0D4
:10B37C00C2857FA012B1EEE4FCECC39D5016900385
:10B38C0096E0FBA3E0FAA3E0F98C8275830012B17E
:06B39C00EA0C80E5D285F9
:01B3A2002288
:0BB3A30090038FEBF0A3EAF0A3E9F0A9
:10B3AE00C2857FA012B1EEE4FCECC39D5016900353
:10B3BE008FE0FBA3E0FAA3E0F98C8275830012B153
:06B3CE00EA0C80E5D285C7
:01B3D4002256
:0BB2CA00900396EBF0A3EAF0A3E9F07C
:10B2D500C2857F6112B1EEE4FCECC39D501CE4FF16
:10B2E50012B1EE900396E0FBA3E0FAA3E0F98C829D
:0CB2F500758300EF1283780C80DFD28597
:01B301002229
:0BB3020090038FEBF0A3EAF0A3E9F04A
:10B30D00C2857F6112B1EEE4FCECC39D501CE4FFDD
:10B31D0012B1EE90038FE0FBA3E0FAA3E0F98C826B
:0CB32D00758300EF1283780C80DFD2855E
:01B3390022F1
:10B49C00900277E0FF12B4297F0B12B5437B017A3F
:03B4AC00037942DF
:0AB4AF00C2857F3012B1BFD28522A2
:0AB55B00C2857F2A12B1BFD28522FB
:0CB52B00C2807D3BE4FF12B50DD28022EF
:0CB53700C2807D0AE4FF12B50DD2802214
:10B42900C280EFB403047D278015EFB402047D25A3
:10B43900800DEFB401047D238005EF70077D217F26
:07B449000612B50DD28022AE
:0CB54300C280AD077F1112B50DD280222E
:0CB54F00C280AD077F0512B50DD280222E
:10B47700C280C281E4FD7F0112B50D0D7F0212B5B6
:10B487000D1D7F0412B50D12B5377F4212B54F124D
:05B49700B49C02B55B4E
:10A92900E4900395F0C280C281C2857F2012B1EE06
:10A93900EF640E60037401F07F0A12B1EED285C292
:10A9490085E4FF12B1EEE4FF12B1EEEF640A60078D
:10A9590090037DE04402F0D285E4FD7F0112B50D3C
:10A969007F0412B50D0D7F1112B50D7B017A0379A4
:10A979006212B371D2807F027E0012B4F3C285E401
:10A98900FF12B1EEEF642E600790037DE04404F0FE
:10A99900D28530830790037DE04418F0D28090037C
:10A9A90095E0600E90037DE0FFD394014004EF44ED
:09A9B90001F07D207F0702B50DBD
:10A60700C21690034774A0F090037EE0900348F0D1
:10A6170090037FE0900349F0900380E090034AF0B5
:10A62700900381E090034BF0900382E090034CF09D
:10A63700900342E090034DF0900343E090034EF007
:10A64700900344E090034FF0900345E0900350F0EF
:10A65700900346E0900351F07F2112B54FE4FF12BB
:10A66700B4297F0B12B5437B017A03798312B4AF08
:10A6770012B55BD240D220A2208240504A12B53791
:10A687007B017A0379477D0B12B37112B56512B559
:10A697002B12B5652083207B017A0379377D0B1256
:10A6A700B2CA12B507D280900337E0B44F09A3E0CE
:10A6B700B44B04C24080C0900395E004F0E0D3940B
:10A6C7003240CEE4F080B0C235E49000A6F0D21656
:06A6D70012B49C02B55B09
:109F5B0012ADCC7F3812ADCCE4FD7F1412B3E17F90
:109F6B003E12A0627F4112A0620D7F1412B3E17FFB
:109F7B003E12A0627F4112A0620D7F1412B3E17FEB
:109F8B003E12A0627F4112A0620D7F1412B3E17FDB
:109F9B003E12A0627F4112A0620D7F1412B3E17FCB
:109FAB003E12A0627F4112A0620D7F1412B3E17FBB
:109FBB003E12A0627F4112A0620D7F1412B3E17FAB
:109FCB003E12A0627F4112A0620D7F1412B3E17F9B
:109FDB003E12A0627F4112A062E4FD7F7C12B3E1CE
:109FEB007F4112A0627F3E12A0620D7F7C12B3E113
:109FFB007F4112A0627F3E12A0620D7F7C12B3E103
:10A00B007F4112A0627F3E12A0620D7F7C12B3E1F2
:10A01B007F4112A0627F3E12A0620D7F7C12B3E1E2
:10A02B007F4112A0627F3E12A0620D7F7C12B3E1D2
:10A03B007F4112A0627F3E12A0620D7F7C12B3E1C2
:10A04B007F4112A0627F3E12A0620D7F7C12B3E1B2
:07A05B007F4112A0627F3E6D
:10A062008F20C2C4A20792C5D2C4C2C4A20692C59E
:10A07200D2C4C2C4A20592C5D2C4C2C4A20492C5AB
:10A08200D2C4C2C4A20392C5D2C4C2C4A20292C59F
:10A09200D2C4C2C4A20192C5D2C4C2C4A20092C593
:05A0A200D2C4C2C4227B
:0CB3D50012ADCC7F3212ADCC7D02E4FF43
:10B3E100AE07C2C6ED24B0FF12A062EEC4540F2412
:0FB3F10010FF12A062EE540FFF12A062D2C6220C
:03000300C2862290
:03000600D286227D
:10B4D400E4FCAD04E4FF12B3E1E4FEE4FF12A06275
:0AB4E4000EEEB480F60CECB408E89C
:01B4EE00223B
:10B00A00120003C2877F027E0012B4F3D2877F0A3E
:10B01A007E0012B4F3C2C67FE212A0627F2C12A095
:10B02A00627F2E12A0620F12A0627F2312A0627F9B
:10B03A008112A062900082E0FF12A0627FA212A099
:10B04A00627FC812A0627FA012A0627F4012A06233
:0DB05A007FAF12A062D2C612B4D40200066D
:10AD7F00900392E0FEA3E0FF7C037DE81284017E46
:10AD8F00007F64CFCDCFCECCCE128401EF2430FF25
:10AD9F0012ADCCE4FF12A0627F4012A0629003922A
:10ADAF00E0FEA3E0FF7C007D641284017F0A7E0039
:0DADBF00CFCDCFCECCCE128401EF2430FFDB
:02ADCC00AE07D0
:10ADCE00E4FD75F006EEA4246CF582E5F03448F54A
:10ADDE0083E5822DF582E43583F583E493FF12A09B
:06ADEE00620DEDB406DC6D
:01ADF400223C
:10AA5900900395E0FDA3E0FB7F5012AA8190039536
:10AA6900E02408FDA3E0FB7F5012AA81900395E042
:08AA79002410FDA3E0FB7F4D5A
:04AA8100AC07AA056F
:10AA850074E02CFCAF02AD0312B3E1E4FE75F010E7
:10AA9500ECA42496F582E5F0344BF583E5822EF59A
:10AAA50082E43583F583E493FF12A0620EEEB408C9
:10AAB500DCAF02EB04FD12B3E17E0875F010ECA4E7
:10AAC5002496F582E5F0344BF583E5822EF582E494
:0FAAD5003583F583E493FF12A0620EEEB410DC1C
:01AAE400224F
:10A52700900344E0C4540FFF7D3C12A53D900344C3
:06A53700E0540FFF7D441B
:04A53D00AA07A905BB
:10A54100EAD39409406074172AFAAF01AD0312B33C
:10A55100E1E4FC75F010EAA42496F582E5F0344BB1
:10A56100F583E5822CF582E43583F583E493FF12CC
:10A57100A0620CECB408DCAF01EB04FD12B3E17C8A
:10A581000875F010EAA42496F582E5F0344BF583C2
:10A59100E5822CF582E43583F583E493FF12A06212
:10A5A1000CECB410DC2274102AFAAF01AD0312B323
:10A5B100E1E4FC75F010EAA42496F582E5F0344B51
:10A5C100F583E5822CF582E43583F583E493FF126C
:10A5D100A0620CECB408DCAF01EB04FD12B3E17C2A
:10A5E1000875F010EAA42496F582E5F0344BF58362
:10A5F100E5822CF582E43583F583E493FF12A062B2
:05A601000CECB410DCBC
:01A606002231
:10B16C009003957BFF7A577906E0FDA3E09003A04E
:01B17C00F0E2
:02B17D00AC051F
:10B17F00AF049003A0E0FD12B3E1E4FE128332FFAF
:10B18F0012A062740129F9E43AFA0EEEB40CEDAF95
:10B19F00049003A0E004FD12B3E1E4FE128332FF3A
:0FB1AF0012A062740129F9E43AFA0EEEB40CED25
:01B1BE00226E
:10AFA500900279746AF0A304F0A37420F0A3748866
:08AFB500F0E4A3F07D027F2807
:08AFBD00900395EFF0A3EDF005
:10AFC500A37401F0A37402F0A37479F0900397E0E1
:10AFD500FBA3E0FAA3E0F9128332FF602775F018AE
:10AFE500A42496F9745135F0FA7BFF90039512B1BC
:10AFF50075900398E475F001128437900395E02469
:04B005000CF080C803
:01B009002224
:0DB1180035F0FA7B01740290039BF07D0C72
:10B12500900397EBF0A3EAF0A3E9F0A3EDF0900309
:10B1350097E0FBA3E0FAA3E0F9128332FF602775DD
:10B14500F018A42496F9745135F0FA7BFF90039A10
:10B1550012B175900398E475F00112843790039A43
:07B16500E0240CF080C82279
:05B28C00900398EDF0B5
:10B29100E4FC90039BE0FFECC39F502C900398E0EB
:10B2A100FFA3E02CFD12B3E1E4FE90039AE0FFEE70
:10B2B100C39F5011128332FF12A062740129F9E475
:08B2C1003AFA0E80E50C80CA88
:01B2C9002262
:10B0C10012B4F37BFF7A70799E9003997404F0A314
:09B0D100742EF0A37404F07D500C
:05B0DA00900398EDF069
:10B0DF00E4FC90039BE0FFECC39F502C900398E09F
:10B0EF00FFA3E02CFD12B3E1E4FE90039AE0FFEE24
:10B0FF00C39F5011128332FF12A062740129F9E429
:08B10F003AFA0E80E50C80CA3B
:01B117002215
:04862600AB05A907F0
:10862A00900399128527000000009003A112852764
:10863A000000000090039512852703E00000E9136B
:10864A0013543FF9E4FAEAC39940030286DE900321
:10865A0095A3A3A3E05401FFEF9003956043E0FCC8
:10866A00A3E0FDA3E0FEA3E0FF78011284F49003E7
:10867A009512851B900399E0FCA3E0FDA3E0FEA3FD
:10868A00E0FF78011284F490039912851B900399F4
:10869A00E0FCA3E0FDA3E0FEA3E0FFEC4480FC8045
:1086AA0029E0FCA3E0FDA3E0FEA3E0FF7801128429
:1086BA00F490039512851B900399E0FCA3E0FDA3B7
:1086CA00E0FEA3E0FF78011284F490039912851B5F
:1086DA000A028650900399E0FCA3E0FDA3E0FEA302
:1086EA00E0FFEC4440FC90039912851BE970179057
:1086FA00039D128527001000009003A11285270010
:10870A000000000287CFE9B4321790039D12852733
:10871A00000000009003A1128527000001000287D3
:10872A00CF90039D128527020800009003A11285AD
:10873A0027000000007A01EAC39940030287CF901C
:10874A00039DA3A3A3E05401FFEF90039D6043E0C0
:10875A00FCA3E0FDA3E0FEA3E0FF78011284F490FD
:10876A00039D12851B9003A1E0FCA3E0FDA3E0FE9C
:10877A00A3E0FF78011284F49003A112851B9003F1
:10878A00A1E0FCA3E0FDA3E0FEA3E0FFEC4480FC33
:10879A008029E0FCA3E0FDA3E0FEA3E0FF7801123C
:1087AA0084F490039D12851B9003A1E0FCA3E0FDD5
:1087BA00A3E0FEA3E0FF78011284F49003A11285DE
:1087CA001B0A0287419003A1E0FCA3E0FDA3E0FE9F
:1087DA00A3E0FFEC4440FC9003A112851BAF037D8C
:1087EA000712B3E1900395E0FCA3E0FDA3E0FEA32A
:1087FA00E0FF78181284F412A06290039DE0FCA3B3
:10880A00E0FDA3E0FEA3E0FF78181284F412A06250
:10881A007F0312A06290039DE0FCA3E0FDA3E0FEAB
:10882A00A3E0FF78181284F412A062900395E0FC8A
:10883A00A3E0FDA3E0FEA3E0FF78181284F412A0DF
:10884A0062AF037D0612B3E1900395E0FCA3E0FD5D
:10885A00A3E0FEA3E0FF78101284F412A062900352
:10886A009DE0FCA3E0FDA3E0FEA3E0FF78101284E4
:10887A00F412A0627FFF12A06290039DE0FCA3E0C5
:10888A00FDA3E0FEA3E0FF78101284F412A0629028
:10889A000395E0FCA3E0FDA3E0FEA3E0FF7810123D
:1088AA0084F412A062AF037D0512B3E1900395E050
:1088BA00FCA3E0FDA3E0FEA3E0FF78081284F41213
:1088CA00A06290039DE0FCA3E0FDA3E0FEA3E0FF0D
:1088DA0078081284F412A0627FFF12A06290039DAE
:1088EA00E0FCA3E0FDA3E0FEA3E0FF78081284F415
:1088FA0012A062900395E0FCA3E0FDA3E0FEA3E0D2
:10890A00FF78081284F412A062AF037D0412B3E167
:10891A00900395A3A3A3E0FF12A06290039DA3A3D3
:10892A00A3E0FF12A0627FFF12A06290039DA3A39F
:10893A00A3E0FF12A062900395A3A3A3E0FF12A0F5
:10894A0062AF031D12B3E1A3E0FCA3E0FDA3E0FEC6
:10895A00A3E0FF78181284F412A0629003A1E0FC4D
:10896A00A3E0FDA3E0FEA3E0FF78181284F412A0AE
:10897A00627FFF12A0629003A1E0FCA3E0FDA3E0E6
:10898A00FEA3E0FF78181284F412A062900399E023
:10899A00FCA3E0FDA3E0FEA3E0FF78181284F41222
:1089AA00A062AF037D0212B3E1900399E0FCA3E059
:1089BA00FDA3E0FEA3E0FF78101284F412A06290F7
:1089CA0003A1E0FCA3E0FDA3E0FEA3E0FF78101200
:1089DA0084F412A0627FFF12A0629003A1E0FCA3BC
:1089EA00E0FDA3E0FEA3E0FF78101284F412A06277
:1089FA00900399E0FCA3E0FDA3E0FEA3E0FF78105A
:108A0A001284F412A062AF037D0112B3E1900399BC
:108A1A00E0FCA3E0FDA3E0FEA3E0FF78081284F4E3
:108A2A0012A0629003A1E0FCA3E0FDA3E0FEA3E094
:108A3A00FF78081284F412A0627FFF12A0629003EA
:108A4A00A1E0FCA3E0FDA3E0FEA3E0FF7808128406
:108A5A00F412A062900399E0FCA3E0FDA3E0FEA358
:108A6A00E0FF78081284F412A062AF03E4FD12B3A7
:108A7A00E1900399A3A3A3E0FF12A0629003A1A32C
:108A8A00A3A3E0FF12A0627FF812A0629003A1A341
:108A9A00A3A3E0FF12A062900399A3A3A3E0FF029D
:028AAA00A062C8
:02B06700AE0732
:10B06900EE1313543F2402FEE4FDEDB41B047F7C70
:10B07900803CC3EE9DFFB403047F388031EFB402F6
:10B08900047F548029EFB401047F548021EF7004B8
:10B099007F54801AEFB4FF047F548012EFB4FE048A
:10B0A9007F54800AEFB4FD047F3880027F1012A01C
:07B0B900620DED643770B376
:01B0C000226D
:02A31600AB0793
:10A3180090039512852700000000EB131313541FB8
:10A32800FBE4FAEAC39B5034900395E0FCA3E0FDFC
:10A33800A3E0FEA3E0FF780112850790039512853C
:10A348001B900395E0FCA3E0FDA3E0FEA3E0FFEC77
:10A358004480FC90039512851B0A80C7900395E002
:10A36800FCA3E0FDA3E0FEA3E0FFE4FAF9F8EF2484
:10A3780001FFEA3EFEE93DFDE83CFC9003951285AD
:10A388001B7D067F0912B3E1900395E0FCA3E0FD75
:10A39800A3E0FEA3E0FF781812850712A0629003DD
:10A3A80095E0FCA3E0FDA3E0FEA3E0FF781812858A
:10A3B8000712A0627D057F0912B3E1900395E0FCC6
:10A3C800A3E0FDA3E0FEA3E0FF781012850712A02A
:10A3D80062900395E0FCA3E0FDA3E0FEA3E0FF7814
:10A3E8001012850712A0627D047F0912B3E1900361
:10A3F80095E0FCA3E0FDA3E0FEA3E0FF780812854A
:10A408000712A062900395E0FCA3E0FDA3E0FEA381
:10A41800E0FF780812850712A0627D037F0912B356
:10A42800E1900395A3A3A3E0FF12A062900395A374
:07A43800A3A3E0FF02A062F4
:10A0A700F583E0FF7E007425900399F0E4FB7D467D
:10A0B700900395EEF0A3EFF0A3EDF0A3EBF0A3E090
:10A0C700FF642D6005EF642F7049D3900396E094E9
:10A0D70000900395E064809480400E900397E024FD
:10A0E700F8FDA3E0FB7F2B8027900395E0FEA3E01C
:10A0F700FFC3EE64809480501AC3E49FFFE49E90F0
:10A107000395F0A3EFF0A3E024F8FDA3E0FB7F2D78
:10A1170012AA81900395E0FEA3E0FFD39463EE6457
:10A1270080948040137C007D64128401EF2430FF0B
:10A13700A3E0FDA3E0FB800A900397E0FDA3E0FB0B
:10A147007F2012AA81900395E0FEA3E0FF7C007DAB
:10A15700641284017E007F0ACFCDCFCECCCE12848D
:10A1670001EF2430FFA3E02408FDA3E0FB12AA813E
:10A17700900399E0642E702C900397E02410FDA3C0
:10A18700E0FB7F2E12AA81900395E0FEA3E0FF7CFF
:10A19700007D0A128401ED2430FFA3E02418FDA3FB
:10A1A700E0FB8037900395E0FEA3E0FF7C007D0A8B
:10A1B700128401ED2430FFA3E02410FDA3E0FB127D
:10A1C700AA81900399E0FF64256004EFB42F0F90F4
:0FA1D7000397E02418FDA3E0FB7F2512AA812245
:05ADF500E0FEA3E0FFF9
:10ADFA00AB07AA06D3EB94E7EA64809483400D7C00
:10AE0A00037DE8128401EF2430FF80027F2012AD17
:10AE1A00CCD3EB9463EA64809480401E7C037DE883
:10AE2A00AF03AE021284017E007F64CFCDCFCECCB9
:10AE3A00CE128401EF2430FF80027F2012ADCC7C39
:10AE4A00007D64AF03AE0212ADB8AE02AF037C0060
:0CAE5A007D0A128401ED2430FF02ADCC13
:07B45000900266E0FF7D079A
:10B45700303C0DC23CEFD3940040031F8002AF0580
:10B4670030240CC224EFC39D50030F8002E4FF2257
:1097BD00900266E0FF7D0712B457EFF09000B07491
:1097CD005EF0A304F0A37451F0E4A3F09000B6741E
:1097DD005EF0A304F0A37452F0E4A3F09000BC7407
:1097ED005EF0A304F0A37453F0E4A3F09000C274F0
:1097FD005EF0A304F0A37454F0E4A3F09000C874D9
:10980D005EF0A304F0A37455F0E4A3F09000CE74C1
:10981D005EF0A304F0A37456F0E4A3F09000D474AA
:10982D005EF0A304F0A37457F0E4A3F0745E90000F
:0C983D00DAF0A304F07458A3F0E4A3F0E8
:10984900900395EFF0A3EDF0C39404500D7BFF7ADC
:109859005179AE900395E0FF8011900395E0FFC325
:109869009403500D7BFF7A5179AEEF2F9003A080BE
:109879001B900396E0FF900395E07BFF7A5179AE48
:109889009003A0B50704740680027404F0E4FD1285
:10989900B17D900395E0C39403504CA3E064027B2F
:1098A900017A0079B0701A12B11F7B017A0079B67A
:1098B90012B11D7B017A0079BC90039B7404029953
:1098C900BBE412B11F7B017A0079B612B11D7B018D
:1098D9007A0079BC740412B11F7B017A0079C290B5
:1098E900039B74060299BB900396E0FF900395E0F1
:1098F900FE6F7059EE75F006A4249EF9740035F0D8
:10990900FA7B01E412B11F900395E075F006A424D7
:10991900A4F9740012B118900395E075F006A42417
:10992900AAF9740035F0FA7B0190039B7404F07D69
:109939000C12B125900395E075F006A424B0F974D2
:109949000035F0FA7B0190039B74068065900396BD
:10995900E0FF900395E0FEC39F505DEE75F006A40D
:1099690024A4F9740035F0FA7B01E412B11F9003C5
:1099790095E075F006A424AAF9740012B1189003B1
:1099890095E075F006A424B0F9740035F0FA7B016E
:1099990090039B7404F07D0C12B125900395E0753A
:1099A900F006A424B6F9740035F0FA7B0190039B04
:1099B9007406F07D0C12B125900396E064097034A9
:1099C9007D077F6112B3E1900395E0B409097F3106
:1099D90012ADCC7F30800C7F2012ADCC900395E086
:1099E9002431FF12ADCC7F2F12ADCC7F3112ADCC1B
:1099F9007F30801D7D077F6D12B3E1900395E024D0
:109A090031FF12ADCC7F2F12ADCC900396E02431FB
:059A1900FF12ADCC229C
:079A1E00900314E0FF7D48F6
:109A2500900395EDF0A3EBF0EFB412004003029C18
:109A350013909A3DF8282873029A73029A86029A1F
:109A450099029AB5029AD1029AED029B09029B28C6
:109A5500029B47029B66029B85029B97029BA9027C
:109A65009BBB029BCD029BDF029BF0029C017BFF0F
:109A75007A5A799690039512B1757A5A79AE029A07
:109A8500E17BFF7A5A799690039512B1757A5A79E6
:109A9500AE029AFD7BFF7A5A799690039512B175BD
:109AA5007A5A79AE900395E0240C12B176029BACFC
:109AB5007BFF7A5A799690039512B1757A5A79AEE9
:109AC500900395E0240C12B176029BBE7BFF7A5A77
:109AD50079F690039512B1757A5B790E900395E04E
:109AE500240C12B176029B887BFF7A5A79F6900393
:109AF5009512B1757A5B790E900395E0240C12B13D
:109B050076029B9A12B16C7A57791E900395E024E0
:109B15000C12B176900395E02418FDA3E0FB7F417C
:109B2500029C1012B16C7A57791E900395E0240CB3
:109B350012B176900395E02418FDA3E0FB7F420265
:109B45009C1012B16C7A57791E900395E0240C1283
:109B5500B176900395E02418FDA3E0FB7F43029CBA
:109B65001012B16C7A57791E900395E0240C12B14E
:109B750076900395E02418FDA3E0FB7F44029C103A
:109B850012AA59900395E02418FDA3E0FB7F31024A
:109B95009C1012AA59900395E02418FDA3E0FB7FC1
:109BA50032029C1012AA59900395E02418FDA3E0F7
:109BB500FB7F33029C1012AA59900395E02418FDEF
:109BC500A3E0FB7F34029C1012AA59900395E02470
:109BD50018FDA3E0FB7F35029C1012AA599003954E
:109BE500E02418FDA3E0FB7F36802012AA599003DC
:109BF50095E02418FDA3E0FB7F37800F12AA59904A
:0F9C05000395E02418FDA3E0FB7F3812AA81220B
:10A43F00900395EDF0A3EBF0EF14604314606214FA
:10A44F00700302A4D714700302A4FE240460030255
:10A45F00A526900395E02404FDA3E0FB7F2D12AA0F
:10A46F00817BFF7A527986900395E0240C12B176A6
:10A47F00900395E02418FDA3E0FB7F2D02A5239008
:10A48F00039512B16F7A57791E900395E0240C1241
:10A49F00B176900395E02418FDA3E0FB7F4102A560
:10A4AF00237BFF7A57790690039512B1757A577906
:10A4BF001E900395E0240C12B176900395E02418BA
:10A4CF00FDA3E0FB7F42804C7BFF7A577906900318
:10A4DF009512B1757A57791E900395E0240C12B13D
:10A4EF0076900395E02418FDA3E0FB7F4380257B46
:10A4FF00FF7A57790690039512B1757A57791E90A6
:10A50F000395E0240C12B176900395E02418FDA377
:08A51F00E0FB7F4412AA812237
:10B33A00E4FF12844DD394FFE5F0648094834008BF
:10B34A00740375F0FF12847812844DC3E5F06480AB
:10B35A0094805006E4F5F0128478740229F9E43AEC
:06B36A00FA0FEFB408CC5D
:01B3700022BA
:10AB7100900389EFF025E024CFF582E43402F583D8
:10AB8100E0FEA3E0FFD39400EE648094804017AB15
:10AB910007AA06EA3395E0F9F8900389E02493F5D2
:10ABA10082E434028027900389E025E024CFF582F6
:10ABB100E43402F583E0FEA3E0FBAA06EA3395E064
:10ABC100F9F8900389E02483F582E43402F583E007
:10ABD100FFE4FCFDFE128497E47B64FAF9F812B2FB
:10ABE10008900389E025E024CFF582E43402F5835F
:06ABF100EEF0A3EFF022DC
:0CAD010012AD0D0F12AD0D0F12AD0D0FB5
:10AD0D0074A52FF582E43402F583E064017040EF01
:10AD1D0025E024CFF582E43402F583E0FCA3E0FDC9
:10AD2D00C3E49DFDE49CFC74EC2FF582E43402F544
:10AD3D0083E0FB3395E0FAED2BFDEC3AFCEF25E0DB
:10AD4D0024CFF582E43402F583ECF0A3EDF0227408
:10AD5D00EC2FF582E43402F583E0FD3395E0FCEF52
:10AD6D0025E024CFF582E43402F583EC8DF01284D6
:02AD7D0037227B
:03AC7C00FFE0FDF9
:04AC7F00AB05AA0770
:10AC8300EB25E024CFF582E43402F583E0FEA3E074
:10AC9300FFEA25E024CFF582E43402F583E0FCA348
:10ACA300E0FD2FFFEC3E900389F0A3EFF0EB25E0EE
:10ACB30024CFF582E43402F583E0FEA3E0FFC3ED85
:10ACC3009FFFEC9E90038BF0A3EFF0900389E0FECF
:10ACD300A3E0FFEA25E024CFF582E43402F583EE16
:10ACE300F0A3EFF090038BE0FEA3E0FFEB25E0245D
:0DACF300CFF582E43402F583EEF0A3EFF01C
:01AD00002230
:09B24C009000ABE0FDAF12AE1161
:10B25500AB05E42FFFEE34FEFE7C007D3312839AAE
:10B26500AD03128401E42FFFEE3402FED3EF94FF09
:10B27500EE6480948340047E037FFFC3EE64809474
:07B28500805003E4FEFF22EC
:109DF500AB0774122BF582E43403F583E0B412004B
:109E05004003029F5A909E11F8282873029E47022C
:109E15009E4C029E51029E56029E60029E66029EC6
:109E250080029E92029EA4029EB6029EFB029F05A0
:109E3500029F0F029F19029F23029F2D029F370247
:109E45009F41900083800D90008580089000878059
:109E550003900089E0FEA3E0FF800AAE0DAF0E80FF
:109E650004AE0FAF107C007D0512839A0D1283ACF2
:109E7500EF2456FFEE34FEFE029F49900097E0FF67
:109E8500B401028034EFB4020280468055900098F8
:109E9500E0FFB401028022EFB402028034804390D7
:109EA500009BE0FFB401028010EFB4020280228023
:109EB5003190009DE0FFB40114EB25E024CFF5823D
:109EC500E43402F58374FEF0A37456F022EFB40275
:109ED50011EB25E024CFF582E43402F583E4F0A309
:109EE500F022EB25E024CFF582E43402F5837401FA
:109EF500F0A374AAF02290031BE0FEA3E0FF8044C8
:109F050090031DE0FEA3E0FF803A90031FE0FEA34F
:109F1500E0FF8030900321E0FEA3E0FF8026900360
:109F250023E0FEA3E0FF801C900325E0FEA3E0FFF5
:109F35008012900327E0FEA3E0FF8008900329E04C
:109F4500FEA3E0FFEB25E024CFF582E43402F583A0
:069F5500EEF0A3EFF02284
:10AF3D0075BC80759DFFC2A575BB70759620758912
:10AF4D001175880475DA499002C8E024B8F09002B2
:10AF5D00C7E0340BF0E0FEA3E0F5EAEEF5FAE024ED
:10AF6D00B8F09002C7E0340BF09002CBE02420F053
:10AF7D009002CAE0344EF0E0FEA3E0F5EBEEF5FBF7
:10AF8D00E024B8F09002CAE0340BF075B88075B7C4
:08AF9D000C75D84075A8822252
:10003E007FC87E0012B4F312AF3D12A6DD128E867B
:10004E0012B00A9002C6E024FF92A5120003538755
:10005E007F759850438E04759CB8438E01438E1065
:10006E00D2AC20C7347FB87E0B12B4F320C72A124D
:10007E0000267F0212002BE4F5C712AFA59002797D
:10008E00748AF0A304F0A304F0A37439F0E4A3F08F
:10009E007D047F2812AFBD80FE201E030202F79062
:1000AE0002797482F0A37451F0A37483F0A3743AAE
:1000BE00F0A37484F0E4A3F0FD7F1E12AFBD900296
:1000CE0079748DF0A304F0A37412F0A3740DF0E410
:1000DE00A3F07D02FF12AFBD9002797495F0A304D8
:1000EE00F0A37489F0A3746DF0E4A3F07D027F4059
:1000FE0012AFBDD3E51294FEE5119401406C7BFF67
:10010E007A5179AE9003A07404F0E4FD12B17D7BB8
:10011E00047D0C7F3112AA817D147F3212AA817D5B
:10012E001C7F4C12AA817D247F4512AA817BFF7A07
:10013E005179C69003A07406F0E4FD12B17D7B06E2
:10014E007D0C7F3112AA817D147F3212AA817D1C13
:10015E007F4312AA817D247F2012AA8120C7769028
:10016E0003077401F020C77780FB7BFF7A5179C6B5
:10017E009003A07404F0E4FD12B17D7B047D0C7F2E
:10018E003112AA817D147F3212AA817D1C7F4C12FE
:10019E00AA817D247F4512AA817BFF7A5179AE9088
:1001AE0003A07406F0E4FD12B17D7B067D0C7F3159
:1001BE0012AA817D147F3212AA817D1C7F4312AA5E
:1001CE00817D247F2012AA8120C70AE4900307F0C4
:1001DE0020C70C80FB7F647E0012B4F30200AD904A
:1001EE00037EE0FFD3947D400CEF24FBFFE434FF4D
:1001FE00C313EF13F090037FE0FFD3947D400CEF19
:10020E0024FBFFE434FFC313EF13F0900380E0FFF1
:10021E00D3947D400CEF24FBFFE434FFC313EF13A4
:10022E00F0900381E0FFD3947D400CEF24FBFFE4BC
:10023E0034FFC313EF13F0900382E0FFD3947D409D
:10024E000CEF24FBFFE434FFC313EF13F012A87678
:10025E00900279749DF0A37484F0A3740CF0A3043F
:10026E00F0A37434F0A304F0E4A3F07D04FF12AF06
:10027E00BD7FF47E0112B4F37BFF7A5179AE900309
:10028E00A07406F0E4FD12B17D12B4EF7A5179AE8E
:10029E009003A07406F07D0C12B17D12B4EF7A516A
:1002AE0079AE9003A07406F07D1812B17D12B4EFF2
:1002BE007A5179AE9003A07406F07D2412B17D12AE
:1002CE00B4EF7A5179AE9003A07406F07D3012B17E
:1002DE007D12B4EF7A5179AE9003A07406F07D3C96
:1002EE0012B17D12B4EF02036B7F647E0012B4F381
:1002FE0012B24C900087EEF0A3EFF0D39450EE9430
:10030E0000405A7BFF7A7179569003997402F0A3DC
:10031E007432F0A37404F07D2812B0DA900279746E
:10032E0093F0A304F0A304F0A304F0A304F0A374C9
:10033E0034F0A37499F0E4A3F07D067F1412AFBDE0
:10034E007F647E0012B4F330C71312B24C90008754
:10035E00EEF0A3EFF0C39450EE940050A612A9292C
:10036E0012B47790037DE070030204047BFF7A667B
:10037E007946E4900399F0A37480F0A37408F0E436
:10038E00FD12B0DA90037DE030E0187D057F271274
:10039E00B3E17F8512ADCC7D057F6A12B3E17F8517
:1003AE0012ADCC90037DE030E10C7D057F5312B38E
:1003BE00E17F8512ADCC90037DE030E20C7D057FB0
:1003CE001D12B3E17F8512ADCC90037DE030E30CBE
:1003DE007D057F4012B3E17F8512ADCC90037DE0A9
:1003EE0030E40C7D057F3112B3E17F8512ADCC7FF9
:1003FE00D07E070204BC7BFF7A6A7946E4900399AB
:10040E00F0A37480F0A37408F0E4FD12B0DA900348
:10041E0094E0C3946450457FF47E0112B4F312B09D
:10042E00C67D067F6B12B3E1E4FF12A0627F20123D
:10043E00A0627FF012A062FF12A0620D7F6B12B35A
