:020000040800F2
:10400000106C00209D41000871F70008F1A0000825
:10401000A9410008AB410008AD41000800000000C4
:10402000000000000000000000000000AF41000898
:104030002D61000800000000B3410008B51B010815
:10404000B7410008B7410008B7410008B741000870
:10405000B7410008B7410008B7410008B741000860
:104060002F610008B7410008B7410008B7410008B8
:10407000B7410008B7410008B7410008B741000840
:10408000B7410008B7410008B7410008B741000830
:10409000B7410008B7410008B7410008B741000820
:1040A000B7410008B7410008B7410008B741000810
:1040B000B7410008ED1C0108B7410008B7410008EE
:1040C000B7410008B7410008B7410008B7410008F0
:1040D000B7410008B7410008B7410008B7410008E0
:1040E000B7410008B7410008B7410008B7410008D0
:1040F000B7410008B7410008B7410008B7410008C0
:10410000B7410008B7410008B7410008B7410008AF
:10411000B7410008B7410008B7410008B74100089F
:10412000B7410008B7410008B7410008B74100088F
:10413000B7410008B7410008B7410008B74100087F
:10414000B7410008B7410008B7410008ADF70008C3
:10415000B7410008B7410008B7410008B74100085F
:10416000B7410008B7410008B7410008B74100084F
:10417000B7410008B7410008B7410008000000003F
:10418000B7410008B7410008DFF80CD000F06AFC26
:1041900000480047B1730108106C002006488047B2
:1041A00006480047FEE7FEE7FEE7FEE7FEE7FEE71C
:1041B000FEE7FEE7FEE7FEE7991C010889410008DB
:1041C0002DE9F05F0546002092469B46884606464C
:1041D000814640241BE0284641464746224600F0DF
:1041E00096FA53465A46C01A914110D311461846C2
:1041F000224600F07DFA2D1A67EB01084F46224651
:104200000120002100F074FA17EB00094E41201E36
:10421000A4F10104DFDC484631462A46434600F05B
:1042200000B830BCBDE8C09F2DE9F0410024061B5A
:10423000254671F1000605DA01240027D0EB0700BE
:1042400067EB0101161E73F1000605DA0027D2EBB9
:104250000702012567EB0303FFF7B2FF86460E4610
:1042600017469C46AC4204D00025D0EB050E65EB0A
:10427000010624B10020D2EB000760EB030C70466E
:1042800031463A466346BDE8F08140EA01039B07A8
:1042900003D009E008C9121F08C0042AFAD203E0BB
:1042A00011F8013B00F8013B521EF9D27047D2B21F
:1042B00001E000F8012B491EFBD270470022F6E70F
:1042C00010B513460A4604461946FFF7F0FF20468C
:1042D00010BD421C10F8011B0029FBD1801A704749
:1042E0002DE9FE4F804681EA0300C00F0C46009086
:1042F00021F0004123F00045B8EB0200A94105D2AE
:104300004046214690461C460B46024623F000409C
:10431000104347D0270DC7F30A00C3F30A51029098
:10432000401A019040286BDAC3F3130040F4801B5D
:104330000098924620B10023D2EB030A63EB0B0BEB
:1043400001985946C0F14002504600F0D1F90646A6
:104350000D4650465946019A00F0E9F910EB080065
:104360006141002487EA115284EAE7731A4340D07E
:10437000009A62B3019A012A4FEA075215DC001B2A
:1043800061EB02014FF0004202EA0752CDE9004220
:10439000001C41F5801132462B4600F020FA03B094
:1043A00000F045B840462146F9E7001B61EB0201E9
:1043B000001C41F5801300185B412018A2F500177E
:1043C00047EB030140EAD570B6196D4111E06D0865
:1043D0004FEA360645EAC0754FEA0752001B61EB0B
:1043E0000201001C41F5801149084FEA3000001914
:1043F000514132462B4603B000F01CB800F0E0B942
:104400000098012240000023D0EB020263EBE0732E
:10441000009821464FEAE074B8EB000061EB04011C
:10442000E9E783F000435BE781F0004158E730BCE7
:10443000BDE8C08F30BCBDE8C04FFFF7DFBF2DE93E
:10444000FE4F81EA030404F0004421F0004100948F
:104450004FF0000B23F0004350EA01045ED052EA13
:1044600003045BD0C3F30A54C1F30A552C44A4F2ED
:10447000F3340194A0FB0254C1F3130141F4801101
:10448000C3F3130343F4801301FB024400FB034E08
:10449000840A970A44EA815447EA8357A4FB0768D1
:1044A00002958D0A05FB07854FEA932C04FB0C54FB
:1044B0002705029D4FEA065847EA1637B5EB08056F
:1044C0006EEB070C870E920E47EA811742EA8312C1
:1044D000A7FB0201B6EB0B0164EB00042B0D43EAD2
:1044E0000C335E1844EB1C50DA465146E7FB0201E0
:1044F000C5F313044FEA0B3343EA14534FEA043273
:10450000019C43EA0603A4F10C040294009CCDE94B
:1045100000B400F064F903B000F003B800200146D5
:10452000F9E730BCBDE8C08F2DE9F04D81EA030406
:1045300004F0004B21F0004514464FF0000A23F030
:10454000004150EA050220D054EA01021DD0C5F313
:104550000A570246C5F31303C1F31300C1F30A5609
:1045600040F4801543F48013A7EB0608101BD646D1
:1045700008F2FD3873EB050002D308F1010801E0F1
:1045800092185B41B8F1000F03DA00200146BDE844
:10459000F08D00204FF48011064684460EE0171B74
:1045A00073EB050705D3121B63EB050306434CEAC7
:1045B000010C49084FEA300092185B4150EA0107AC
:1045C000EDD152EA030012D082EA040083EA050129
:1045D000084305D0101BAB4106D20122002306E0A0
:1045E00000224FF0004302E06FF0010253101AEB7B
:1045F00006004CEB085110EB0A0041EB0B01BDE843
:10460000F04D00F0DDB80EB5C10F80EAE07008444F
:10461000CA07002140F233438DE80E000A460B46DC
:1046200000F0DDF803B000BD70B5C1F30A5201F02F
:1046300000450024C1F3130140F2FF3341F480111F
:104640009A4201DA002070BD40F233439A42A2F24E
:10465000334203DC524200F05AF800E090402C4311
:10466000F1D0404270BD00F0004230F000400AD06E
:10467000C10D01F56071C0F3160042EA0151C20894
:1046800040071143704700200146704701F0004386
:1046900030B421F0004150EA010206D00A0DA2F523
:1046A0006072C1F31301002A02DC30BC00207047A5
:1046B000440F44EAC104C100E01830BC00EBC25012
:1046C00000F047B830B50B460146002020220124F7
:1046D00009E021FA02F59D4205D303FA02F5491BD0
:1046E00004FA02F52844151EA2F10102F1DC30BDE6
:1046F000202A04DB203A00FA02F1002070479140A2
:10470000C2F1200320FA03F3194390407047202A96
:1047100004DB203A21FA02F00021704721FA02F36B
:10472000D040C2F120029140084319467047202A28
:1047300006DBCB17203A41FA02F043EAE07306E0C9
:1047400041FA02F3D040C2F12002914008431946D9
:1047500070470029A8BF7047401C490008BF20F0DF
:104760000100704710B4B0FA80FC00FA0CF050EA77
:10477000010404BF10BC704749B1CCF1200421FAF8
:1047800004F411FA0CF118BF012121430843A3EBF3
:104790000C01CB1D4FEA00614FEA102042BF002000
:1047A00010BC704700EBC35010440029A4BF10BCDC
:1047B0007047401C490008BF20F0010010BC704742
:1047C00010B5141E73F1000408DA401C41F1000119
:1047D00092185B411A4301D120F0010010BD2DE970
:1047E000F04D92469B4611B1B1FA81F202E0B0FA67
:1047F00080F220329046FFF77BFF04460F4640EAE6
:104800000A0041EA0B0153465A46084313D01146A9
:1048100053EA010019D0C8F140025046FFF777FF74
:1048200005460E46504659464246FFF761FF08438B
:1048300005D0012004E020463946BDE8F08D002077
:10484000054346EAE0762C4337430A986305E40AB9
:10485000A0EB08000022FD0A44EA47540A3002D5C2
:1048600000200146E9E7010510196941DDE9084525
:1048700000196941BDE8F04DA2E770B521F0004391
:1048800003430CD0C1F30A550024D5EB040564EBB7
:104890000403D617AD1AB34102DB0020014670BDF8
:1048A000201841EB025170BD2DE9F04D00231A464E
:1048B0001B1A8A4103DB00200146BDE8F08DC1F3DD
:1048C0000A52C1F3130141F480154FF0000BD107D8
:1048D00002D100186D41521E0027044640F2FF111C
:1048E000384601EB620A3E468046024600204FF4FD
:1048F0008011FFF70CFFC2197141BB1846EB010094
:10490000B4EB030C75EB000C04D3E41A65EB000563
:1049100017460E46241908F101006D4180463428DF
:10492000E3DDF91946EB0600091BA84103D24FF05D
:10493000FF32134601E0002213461BEB070046EB53
:104940000A51BDE8F04DFFF73BBF00002DE9F041F3
:10495000054621F000400C46284309D0C4F30A5014
:1049600040F23341884205DD28462146BDE8F0810A
:104970002846FBE740F2FE31884210DC0CDB4FEAB0
:10498000043040EA155050EA053105D0104804F0D3
:10499000004101430020E9E700200146E6E7A0F2DC
:1049A00033404642C6F1400228462146FFF7A0FEAA
:1049B00007468846284621463246FFF7A8FE43466A
:1049C0003A46FFF7FDFE3246BDE8F041FFF790BEE4
:1049D0000000F03FC1F30A52C1F3130140F2FF336C
:1049E00041F480119A4202DA00200146704740F2F9
:1049F00033439A42A2F2334202DC5242FFF787BEAF
:104A0000FFF776BE30B5041E71F1000404DB4FF0F1
:104A10000044404264EB0101141E73F1000405DB05
:104A20001C464FF00043524263EB04038B4208BF25
:104A3000824230BD30B5041E71F1000404DB4FF03A
:104A40000044404264EB0101141E73F1000405DBD5
:104A50001C464FF00043524263EB0403994208BFE7
:104A6000904230BD064C074D06E0E06840F001037F
:104A700094E8070098471034AC42F6D3FFF788FB60
:104A8000F88401081885010870B58C1810F8015BCE
:104A900015F0070301D110F8013B2A1106D110F8D7
:104AA000012B03E010F8016B01F8016B5B1EF9D1DB
:104AB0002B0705D40023521E0DD401F8013BFAE761
:104AC00010F8013BCB1A921C03E013F8015B01F8CC
:104AD000015B521EF9D5A142D8D3002070BD000061
:104AE00030B58BB0044607A9204600F082F903A92F
:104AF000204600F0E6F99DF80C00012874D104A9C5
:104B0000204600F021F9012803D1002004900590EF
:104B100006904E480078002867D0069800904CA177
:104B20004E48DDE904230EF0A5FD049800B24C497F
:104B30000880059800B24B490880069800B24A499F
:104B400008804A48007801287ED10AA9204600F052
:104B500077F9012806D19DF81C2045A13F480EF0A9
:104B600089FD07E09DF828309DF81C2048A13B48AE
:104B70000EF080FD3948FFF7ACFB05462946374863
:104B800001F0ACF909A9204600F03FF9012806D14F
:104B90009DF81C2046A131480EF06CFD0FE0032269
:104BA00001A902A89DED090A12F03AF901980090B6
:104BB0009DF81C2042A12948029B0EF05BFD27486E
:104BC000FFF787FB05462946244801F087F908A925
:104BD000204600F0F3F8012808D19DF81C203EA1E2
:104BE0001E480EF047FD11E02EE018E0032201A957
:104BF00002A89DED080A12F013F9019800909DF8A3
:104C00001C2039A11548029B0EF034FD1348FFF714
:104C100060FB05462946114801F060F914E0374869
:104C2000007888B10698009035A10C48DDE904238E
:104C30000EF020FDC5B2354B2A460849344811F024
:104C400035FD3449087000BF0BB030BD3C04002076
:104C500025642C25642C25642C000000800B00208A
:104C60001004002012040020140400200904002075
:104C700057484F20414D2049206164647265737329
:104C80005B25645D3A204552524F520A00000000F5
:104C900057484F20414D2049206164647265737309
:104CA0005B25645D3A203078253032580A000000D8
:104CB0004F44525B25645D3A204552524F520A00E0
:104CC0004F44525B25645D3A2025642E25303364C1
:104CD00020487A0A0000000046535B25645D3A20B4
:104CE0004552524F520A000046535B25645D3A20FC
:104CF00025642E2530336420670A00000804002054
:104D0000256409256409256409000000FC030020CE
:104D100054090020F803002070B505462C460CB954
:104D2000012070BD206908B90120FAE720786A28BF
:104D300008D12669706D08B90120F2E72046716D2F
:104D40008847EEE70120ECE72DE9F04104460E46E6
:104D50002546002715B90120BDE8F081EF680EB99E
:104D60000120F9E7B86908B90120F5E7314628467E
:104D7000BA699047012800D1EEE70020ECE72DE961
:104D8000F04105460E462C4614B90120BDE8F081DD
:104D9000206908B90120F9E70EB90120F6E720786B
:104DA0006A2809D12769F86D08B90120EEE7314674
:104DB0002046FA6D9047E9E70120E7E72DE9F04149
:104DC00004460E462546002715B90120BDE8F081AE
:104DD000EF680EB90120F9E7386B08B90120F5E753
:104DE000314628463A6B9047012800D1EEE7002073
:104DF000ECE7024613460BB90120704709B90120C0
:104E0000FBE7187908700020F7E72DE9F041044628
:104E10000E462546002715B90120BDE8F081EF6850
:104E20000EB90120F9E7786A08B90120F5E73146A3
:104E300028467A6A9047012800D1EEE70020ECE787
:104E40002DE9F04104460F462546002615B90120FC
:104E5000BDE8F081EE68306908B90120F8E739460D
:104E6000284632699047012800D1F1E70020EFE79A
:104E700070B505460C4600202060B5F1FF3F03D019
:104E800075B1012D13D000BF204600F0C9FC0128E8
:104E900005D1204600F0F2FB012800D170BD0DE0E5
:104EA000204600F0BDFC012800D1F7E706E02046CF
:104EB00000F0E4FB012800D1F0E700BF00BF0020B4
:104EC000ECE7024613460BB90120704709B90120EF
:104ED000FBE7587908700020F7E770B504462546CF
:104EE00000260DB9012070BDEE68B06808B9012038
:104EF000F9E72846B1688847012800D1F3E7002088
:104F0000F1E72DE9F04105460F462C4614B9012082
:104F1000BDE8F081206908B90120F9E720786A2806
:104F200009D12669306E08B90120F1E739462046DB
:104F3000326E9047ECE70120EAE72DE9F0410446A4
:104F40000F462546002615B90120BDE8F081EE6820
:104F5000306A08B90120F8E739462846326A904796
:104F6000F3E72DE9F04104460F462546002615B922
:104F70000120BDE8F081EE68306B08B90120F8E748
:104F800039462846326B9047F3E7000070B5044677
:104F9000002520484079012800D170BD0CF036FB77
:104FA000012800D1F9E714201A4908700020487040
:104FB000E02088700020C870087148718871012055
:104FC000C871154888601548C860002008611448F9
:104FD00011490860002048600E4820602068C568BC
:104FE000286838B914212068FFF768F9002020608C
:104FF0000120D2E7206829688847012807D11421B9
:105000002068FFF75BF9002020600120C5E7002041
:10501000C3E70000A4060020F003002034030020B2
:10502000B8060020024613460BB90120704709B9A3
:105030000120FBE7587908700020F7E72DE9F041DF
:1050400004460F462546002615B90120BDE8F0812B
:10505000EE68706908B90120F8E739462846726998
:105060009047F3E72DE9F04104460E462546002718
:1050700015B90120BDE8F081EF680EB90120F9E70C
:10508000B86908B90120F5E731462846BA69904762
:10509000012800D1EEE70020ECE72DE9F0410446BD
:1050A0000E462546002715B90120BDE8F081EF68BE
:1050B0000EB90120F9E7386B08B90120F5E7314650
:1050C00028463A6B9047012800D1EEE70020ECE734
:1050D000024613460BB90120704709B90120FBE7CE
:1050E000187908700020F7E72DE9F04104460E46D4
:1050F0002546002715B90120BDE8F081EF680EB9FB
:105100000120F9E7786A08B90120F5E73146284619
:105110007A6A9047012800D1EEE70020ECE72DE9FC
:10512000F04104460E462546002715B90120BDE88A
:10513000F081EF680EB90120F9E7386908B901205C
:10514000F5E7314628463A699047012800D1EEE755
:105150000020ECE770B505460C4600202060B5F154
:10516000FF3F01D03DB100BF204600F0C5FB012844
:1051700000D170BD06E0204600F0BEFB012800D142
:10518000F7E700BF00BF0020F3E7024613460BB964
:105190000120704709B90120FBE758790870002009
:1051A000F7E770B50446254600260DB9012070BD0D
:1051B000EE68B06808B90120F9E72846B168884769
:1051C000012800D1F3E70020F1E7000070B50446A4
:1051D000002521484079012800D170BD0CF016FA55
:1051E000012800D1F9E7BC201B4908700020487055
:1051F000BE20887000200871487188710120C87134
:10520000164888601648C86000200861154816498D
:105210000860084611490860002048600E48206078
:105220002068C568286838B914212068FFF746F857
:10523000002020600120D0E72068296888470128E5
:1052400007D114212068FFF739F8002020600120E1
:10525000C3E70020C1E7000030060020C0030020A3
:105260000C00002074000020C803002070B5044624
:1052700000252548407E012800D170BD0CF0C6F9FC
:10528000012800D1F9E7BC201F49087500211E48FC
:105290004175BE218175012101760021417681761B
:1052A0000121C17619481849C86119491648016297
:1052B0000021416217481849086008461349083917
:1052C0008860002111480838C1600F481430206000
:1052D0002068C568286838B914212068FEF7EEFFF9
:1052E000002020600120C8E720682968884701283D
:1052F00007D114212068FEF7E1FF00202060012083
:10530000BBE70020B9E700006C0600209C060020E7
:105310004000002074000020E803002070B505461E
:105320000C4600202060B5F1FF3F01D03DB100BF29
:105330002046FFF74BFF012800D170BD06E0204654
:10534000FFF744FF012800D1F7E700BF00BF0020AE
:10535000F3E770B50446254600260DB9012070BD5F
:10536000EE68B06808B90120F9E72846B1688847B7
:10537000012800D1F3E70020F1E7000010B586B066
:10538000044600BF2048806D40F080501E4988656B
:105390000846806D00F08050009000BF00BF02F012
:1053A00081FA00BF6CB900BF1748C06C40F04000E4
:1053B0001549C8640846C06C00F04000009000BF6A
:1053C00000BF012C0DD100BF0F48C06C40F00100A0
:1053D0000D49C8640846C06C00F00100009000BF91
:1053E00000BF00BF094850F824000190012002903E
:1053F0000020039002200490054951F8240001A9DF
:1054000001F012F906B010BD00100240487D0108FD
:105410009403002010B5044654B90C4A32F82420F5
:1054200091B20B4A52F82400002201F001FA0BE07D
:10543000012C09D1054A32F8242091B2044A52F8CD
:105440002400012201F0F4F910BD0000487D01089C
:105450009403002010B5044654B90C4A32F82420B5
:1054600091B20B4A52F82400012201F0E1F90BE05D
:10547000012C09D1054A32F8242091B2044A52F88D
:105480002400002201F0D4F910BD0000487D01087D
:105490009403002038B504460025012000903748C9
:1054A0004079012800D138BD0CF07AFA012800D1EA
:1054B000F9E7B1203149087001204870BA2088709E
:1054C0000320C87000200871487188710120C871DC
:1054D0002B4888602B48C860002008612A482B4967
:1054E000086008462649086000204860234820607C
:1054F00020680CF03FF924484078E8B901236A4657
:10550000102120680CF024FB08B10120CBE72068B3
:1055100006F05AF908B10120C5E74FF47A7001F09E
:1055200061F80120009001236A46102120680CF0E8
:105530000FFB08B10120B6E72068C568286838B9B4
:1055400014212068FEF7BAFE002020600120AAE79F
:10555000206829688847012807D114212068FEF7B0
:10556000ADFE0020206001209DE70021206805F0AD
:10557000BBFF012800D196E7002094E758060020E1
:10558000D80300207800002058010020E00300200C
:1055900038B50446002501200090334840790128A1
:1055A00000D138BD0CF0FCF9012800D1F9E7B12099
:1055B0002D49087001204870BA2088700320C870F7
:1055C00000200871487188710120C87127488860DF
:1055D0002748C86000200861264827490860084617
:1055E00022490860002048601F48206020680CF0B5
:1055F000C1F820480078E0B901236A4610212068EC
:105600000CF0A6FA08B10120CBE7206806F0DCF820
:1056100008B10120C5E7642000F0E4FF01200090FC
:1056200001236A46102120680CF092FA08B101208B
:10563000B7E72068C568286838B914212068FEF7E4
:105640003DFE002020600120ABE7206829688847E4
:10565000012807D114212068FEF730FE00202060C9
:1056600001209EE700209CE76C06002094060020A5
:10567000AC00002058010020E403002038B50446A7
:105680000025012000902D48407E012800D138BD22
:105690000CF086F9012800D1F9E733202749087575
:1056A000012126484175322181750121C17501769C
:1056B0000021417681760121C17621481F49C861C8
:1056C00020491E480162002141621F481F490860AD
:1056D00008461B4908398860002119480838C1600C
:1056E00016481430206020680CF044F816484078C2
:1056F00040B901236A46232120680CF029FA08B139
:105700000120C4E72068C568286838B914212068DA
:10571000FEF7D4FD002020600120B8E7206829684A
:105720008847012807D114212068FEF7C7FD002013
:1057300020600120ABE70020A9E70000E40500207D
:105740001406002098020020E8020020A803002090
:1057500038B504460025012000902C4840790128E6
:1057600000D138BD0CF01CF9012800D1F9E7402028
:1057700026490870012048703C2088700220C870BB
:105780000020087148718871C871214888602148DB
:10579000C8600020086120482049086008461C496C
:1057A0000860002048601948206020680BF0E2FF84
:1057B0001948007840B901236A46232120680CF07B
:1057C000C7F908B10120CCE72068C568286838B956
:1057D00014212068FEF772FD002020600120C0E740
:1057E000206829688847012807D114212068FEF71E
:1057F00065FD002020600120B3E72021206806F02D
:10580000D2FB08B90120ACE70020AAE7440600203B
:10581000CC030020EC020020E8020020D40300208A
:1058200038B5044600250C2000902D484079012809
:1058300000D138BD0CF0B4F8012800D1F9E76A2096
:105840002749087001204870D62088700020C87051
:105850000871487188710120C87122488860224807
:10586000C8602248086122482249086008461D494C
:105870000860002048601A48206020680BF07AFF1A
:105880001B48407840B901236A46122120680CF079
:105890005FF908B10120CCE72068C568286838B9ED
:1058A00014212068FEF70AFD002020600120C0E7D7
:1058B000206829688847012807D114212068FEF74D
:1058C000FDFC002020600120B3E70421206807F0E0
:1058D000E3FD08B90120ACE708F05CFD0020A8E773
:1058E000E40500200C060020F401002060010020E7
:1058F00094020020A003002038B5044600250C20A7
:1059000000902C484079012800D138BD0CF048F8AF
:10591000012800D1F9E76A20264908700120487063
:10592000D62088700020C8700871487188710120E5
:10593000C871214888602148C8600020086120485B
:105940002049086008461C49086000204860194842
:10595000206020680BF00EFF1948007840B9012341
:105960006A46122120680CF0F3F808B10120CCE758
:105970002068C568286838B914212068FEF79EFCA5
:10598000002020600120C0E720682968884701289E
:1059900007D114212068FEF791FC0020206001202F
:1059A000B3E70421206807F077FD08B90120ACE7D0
:1059B0000020AAE71C060020B003002044020020BB
:1059C00094020020B80300202DE9F04104460E4661
:1059D0002546002715B90120BDE8F081EF680EB912
:1059E0000120F9E7B86908B90120F5E731462846F2
:1059F000BA699047012800D1EEE70020ECE72DE9D5
:105A0000F04104460E462546002715B90120BDE8A1
:105A1000F081EF680EB90120F9E7386B08B9012071
:105A2000F5E7314628463A6B9047012800D1EEE76A
:105A30000020ECE7024613460BB90120704709B974
:105A40000120FBE7187908700020F7E72DE9F04105
:105A500004460E462546002715B90120BDE8F08111
:105A6000EF680EB90120F9E7786A08B90120F5E777
:105A7000314628467A6A9047012800D1EEE7002097
:105A8000ECE72DE9F04104460E462546002715B9FE
:105A90000120BDE8F081EF680EB90120F9E738690F
:105AA00008B90120F5E7314628463A6990470128B0
:105AB00000D1EEE70020ECE770B505460C4600206B
:105AC0002060B5F1FF3F01D03DB100BF2046FFF798
:105AD0003FFE012800D170BD06E02046FFF738FEEA
:105AE000012800D1F7E700BF00BF0020F3E702461E
:105AF00013460BB90120704709B90120FBE758791B
:105B000008700020F7E770B50446254600260DB959
:105B1000012070BDEE68B06808B90120F9E7284699
:105B2000B1688847012800D1F3E70020F1E7024679
:105B300013460BB90120704709B90120FBE718791A
:105B400008700020F7E72DE9F04104460E4625468F
:105B5000002715B90120BDE8F081EF680EB90120DA
:105B6000F9E7F86908B90120F5E731462846FA69EE
:105B70009047012800D1EEE70020ECE72DE9F04145
:105B800004460E462546002715B90120BDE8F081E0
:105B9000EF680EB90120F9E7B86908B90120F5E707
:105BA00031462846BA699047012800D1EEE7002027
:105BB000ECE72DE9F04104460E462546002715B9CD
:105BC0000120BDE8F081EF680EB90120F9E73869DE
:105BD00008B90120F5E7314628463A69904701287F
:105BE00000D1EEE70020ECE770B505460C4600203A
:105BF0002060B5F1FF3F01D03DB100BF2046FFF767
:105C000049FC012800D170BD06E02046FFF742FCA8
:105C1000012800D1F7E700BF00BF0020F3E70246EC
:105C200013460BB90120704709B90120FBE75879E9
:105C300008700020F7E770B50446254600260DB928
:105C4000012070BDEE68B06808B90120F9E7284668
:105C5000B1688847012800D1F3E70020F1E770B56B
:105C60000446012520460AF003FB04F12C000AF04B
:105C700087FA05462069401C6064217E606C891C9F
:105C800001228A4050436064217A01208840A06448
:105C9000D4E9110148436064284670BD0020704774
:105CA00010B50AF0BDFC0AF003FC012804D1002065
:105CB00008490870012010BD0120064908700648F7
:105CC0000078022801D00120F5E70AF093FC0020BB
:105CD000F1E70000EC030020ED0300202DE9F84F70
:105CE000804615461E46DDE90A7B4FF00009002478
:105CF00001200090C2460023FF22394610200AF0FE
:105D0000B5FD10B1012000F04BB8244800780228FE
:105D10000BD04FF400714FF0000C2A46A2FB010E8D
:105D200006FB01E105FB0C1605462EE00AF00AFE13
:105D300029194FF000034FF0FF024FF011000AF055
:105D400095FD08B10120DEE7FE200AF079FDD0B90B
:105D50004FF0000907E00AF079FC8AF800000AF128
:105D6000010A09F10109B945F5D30C480078022868
:105D700001D03C4400E0641C0AF068FC0AF066FCB8
:105D80000020009001E001200090BBF10000ABF189
:105D9000010BCBD10AF0D6FD0098B4E7ED0300204B
:105DA00018BCBDE8E08F00002DE9F84F804616468C
:105DB0001F46DDE90A4B4FF0000900250120009045
:105DC000C24625480078022808D000233146A1FBAE
:105DD000040C07FB04C206FB0327064633E07119D7
:105DE0004FF000034FF0FF024FF018000AF03EFDA5
:105DF00010B1012000F032B8FF200AF031FDFE2082
:105E00000AF02EFD4FF0000907E09AF800000AF0B2
:105E100027FD0AF1010A09F10109A145F5D30E4850
:105E20000078022801D0254400E06D1C0AF00EFC29
:105E30000AF00CFC0AF016FB052802D100200090A5
:105E400001E001200090BBF10000ABF1010BC6D1D5
:105E50000AF078FD0098CDE7ED03002018BCBDE8FE
:105E6000E08F70B505460C4600202060B5F1FF3F7D
:105E700003D075B1012D13D000BF2046FFF7F6F90E
:105E8000012805D12046FFF783FB012800D170BD12
:105E90000DE02046FFF77CFB012800D1F7E706E084
:105EA0002046FFF7E3F9012800D1F0E700BF00BF6B
:105EB0000020ECE770B50446254600260DB9012008
:105EC00070BDEE68B06808B90120F9E72846B168EE
:105ED0008847012800D1F3E70020F1E730B50246FA
:105EE0000B4600210DE0505C084C094D2D686055B3
:105EF00007480088401CC0F30A00054C2060481C7D
:105F000081B29942EFD3002030BD0000C8160020B6
:105F10007404002010B50346042B15D007DC7BB1B8
:105F2000012B0ED0022B0DD0032B3CD10BE0202BEC
:105F30000BD0212B1CD0222B33D0232B33D131E09B
:105F400032E031E030E02FE02EE008784C7840EA93
:105F500004208C7840EA0440CC7840EA0460144C79
:105F6000206008792071487960718879A0711BE000
:105F70000F48007808700E480088000A48700C48E6
:105F80000068000C88700A480068000EC870084855
:105F90000079087106484079487105488079887110
:105FA00002E001E000E000BF00BF002010BD0000E3
:105FB000680400200020704708B500BF1348806DBA
:105FC00040F00200114988650846806D00F002002B
:105FD000009000BF00BF002206211D2000F0E7FE58
:105FE0001D2000F0D7FE0BF0E9FE094803F060F930
:105FF00008B100F0A5F80022064907480CF032FA73
:10600000064905480CF027FA002008BD00100240A0
:10601000C8260020C8160020800C0020C80E0020D2
:10602000024600207047000008B569460C4800F0A1
:1060300088F8A0B9002269460A4810F0AFF970B19B
:106040000CE00020FFF706FA4FF4FA7000F0CAFAED
:106050000020FFF7DFF9642000F0C4FAF1E708BD83
:10606000CC8201082407002010B5034810F07EF907
:106070000AF08AFA10BD00005409002000B5B3B040
:10608000A02217490BA8FEF700F9202102A8FEF76D
:1060900015F90AF08DFA13A000901448038814A291
:1060A00018A102A80DF0E6FA10480088401C0F491C
:1060B0000880642000F096FA0A2202A9144810F021
:1060C0009FF910B1002033B000BD0AAB9F220BA98D
:1060D0000F4810F0EBFA08B10020F4E70120F2E7D6
:1060E000588401082E747376000000000E0400200E
:1060F00053656E736F7254696C655F4C6F675F4E6A
:10610000000000002573252E336425730000000075
:106110005409002008B56B4602220249024810F0DB
:10612000C5FA08BD0A04002054090020704710B5C4
:10613000042000F06BFA10BD00BFFEE700BFFEE7D1
:10614000704730B504460D4600222946204600F02F
:1061500001F830BDF0B50346012500241148407A0E
:1061600001281CDC00200F4E767A0E4FB8553846B9
:10617000467A001D40F82630001F467A08308255C6
:106180003E46707A461C7E72044604F13000087068
:106190003A2048702F2088700020C87000252846BB
:1061A000F0BD0000002C00207FB504466946204663
:1061B000FEF738FF9DF80000012839D101A92046DB
:1061C000FEF73CFF012802D100200390029003A9B2
:1061D0002046FEF7C6FE012801D10020039002A947
:1061E0002046FEF7AAFE012801D1002002901148A6
:1061F000007850B110A11648DDE902320DF03AFAEC
:10620000134914A00DF026FA12E01348007878B173
:1062100012A10F48DDE902320DF02CFAC5B2114B84
:106220002A460B49104810F041FA1049087000BF87
:106230007FBD00003C0400200A0D563A2025646D05
:106240005620436872673A20256425250000000027
:10625000800B002025730000080400202564092518
:1062600064090000FC03002054090020F80300200A
:1062700010B52DED088B2E480068FEF7F4F941ECBF
:106280001B0B9FED2C0B53EC102BFEF7D8F841ECB9
:106290001A0BFEF7FBF908EE100A28480068FEF713
:1062A000E2F941EC1B0B9FED230B53EC102BFEF797
:1062B000C6F841EC1A0BFEF7E9F908EE900A2048FF
:1062C0000068FEF7D0F941EC1B0B9FED1A0B53EC65
:1062D000102BFEF7B4F841EC1A0BFEF7D7F909EED4
:1062E000100A1848B0F9040000EE100AB8EEC00A0F
:1062F000F0EE402A1348B0F9020000EE100AB8EEA2
:10630000C00AB0EE402A0F48B0F9000000EE100AB3
:10631000B8EEC00AF0EE401AB0EE481AF0EE680A85
:10632000B0EE490A04F03AF9BDEC088B10BD00004C
:10633000200400202877442A3174513F1C04002097
:10634000180400209004002030B52DED048B8BB094
:10635000044607A92046FEF7BBFE03A92046FEF728
:1063600014FF9DF80C00012876D104A92046FEF701
:1063700079FE012803D1002004900590069004982E
:10638000FEF741F941EC190B9FED600B53EC102B1C
:10639000FEF7CAF841EC180BFEF778F95D49086082
:1063A0000598FEF730F941EC190B9FED580B53ECB3
:1063B000102BFEF7B9F841EC180BFEF767F95649B8
:1063C00008600698FEF71FF941EC190B9FED4F0B83
:1063D00053EC102BFEF7A8F841EC180BFEF756F91A
:1063E0004E4908604E480078002875D00698009005
:1063F0004CA14F48DDE904230DF03CF94D480078ED
:1064000001287ED10AA92046FEF789FE012806D17F
:106410009DF81C2048A146480DF02CF907E09DF896
:1064200028309DF81C204CA141480DF023F940482C
:10643000FDF74FFF054629463D48FFF74FFD09A9E7
:106440002046FEF751FE012807D19DF81C204AA1E5
:1064500037480DF00FF910E053E0032201A902A81C
:106460009DED090A10F0DCFC019800909DF81C20BD
:1064700045A12F48029B0DF0FDF82D48FDF729FF9F
:10648000054629462A48FFF729FD08A92046FEF7B8
:1064900004FE012806D19DF81C2041A124480DF0DE
:1064A000E9F80FE0032201A902A89DED080A10F007
:1064B000B7FC019800909DF81C203DA11C48029B50
:1064C0000DF0D8F81A48FDF704FF0546294618488C
:1064D000FFF704FD15E0FFE73B48007888B1069818
:1064E00000903AA11248DDE904230DF0C3F8C5B2CB
:1064F000394B2A460E49394810F0D8F83849087007
:1065000000BF0BB0BDEC048B30BD000000000000EC
:1065100000408F40180400201C04002020040020AC
:106520003C04002025642C25642C2564200A0000EE
:10653000800B00200904002057484F20414D20497E
:1065400020616464726573735B25645D3A20455213
:10655000524F520A0000000057484F20414D204939
:1065600020616464726573735B25645D3A203078E2
:10657000253032580A0000004F44525B25645D3AD2
:10658000204552524F520A004F44525B25645D3AF7
:106590002025642E2530336420487A0A000000004C
:1065A00046535B25645D3A204552524F520A000023
:1065B00046535B25645D3A2025642E2530336420E4
:1065C0006470730A00000000080400202564092597
:1065D0006409256409000000FC0300205409002020
:1065E000F803002070B50446002500F027F90546A1
:1065F00000BF00F023F9401BA042FAD370BD000099
:106600000121014A117070473D04002010B5044675
:1066100004480068204020B1024804602046FFF78B
:10662000EFFF10BD1404014078B50346002200249A
:106630000020E5E0012696400D6805EA0604002CDE
:106640007DD04D68022D02D04D68122D13D1D60891
:1066500003F1200555F826005507EE0E0F25B5402D
:10666000A8435607F60E0D69B5402843D60803F136
:10667000200545F82600186856000325B540A843B4
:106680000D7905F003055600B540284318604D68A4
:10669000012D08D04D68022D05D04D68112D02D076
:1066A0004D68122D13D1986856000325B540A843B4
:1066B0005600CD68B540284398605868012595403C
:1066C000A8430D79C5F300159540284358600D790E
:1066D00005F00305032D09D1D86A01259540A8438B
:1066E0000D79C5F3C00595402843D862D868560097
:1066F0000325B540A84356008D68B5402843D860AF
:106700004D6805F08055B5F1805F78D100BF3F4DF1
:106710002D6E45F001053D4E356635462D6E05F072
:106720000105009500BF00BF4FEAB635960855F841
:10673000260095072E0F0F25B540A84300E05EE028
:10674000B3F1904F01D100251EE0314DAB4201D194
:10675000012519E02F4DAB4201D1022514E02E4D49
:10676000AB4201D103250FE02C4DAB4201D10425F2
:106770000AE02B4DAB4201D1052505E0294DAB4286
:1067800001D1062500E007259607360FB5402843BE
:10679000254D960845F82600244D2868A0434D68ED
:1067A00005F48035B5F5803F00D120431F4D2860AA
:1067B0002D1D2868A0434D6805F40035B5F5003F50
:1067C00000D12043194D2D1D28602D1D2868A043A0
:1067D0004D6805F48015B5F5801F00D12043134D99
:1067E000083528602D1D2868A0434D6805F4001564
:1067F000B5F5001F00D120430C4D0C352860521C0C
:106800000D68D540002D7FF415AF78BD0010024013
:106810000004004800080048000C00480010004830
:10682000001400480018004808000140000401401E
:106830000AB1816100E08162704700000148006890
:10684000704700000400002010B504460CB9012078
:1068500010BD242084F841002068006820F0010069
:1068600021680860204600F030FA0020606484F857
:106870004100206384F8420000BF84F8400000BF5C
:1068800000BFE5E7014691F84100704710B50446A6
:106890000CB9012010BD94F8410028B9002084F8FB
:1068A0004000204600F012FA242084F841002068BD
:1068B000006820F0010021680860606820F07060C6
:1068C000216808612068806820F4004021688860A1
:1068D000A06868B1E068012805D1A06840F40040D4
:1068E0002168886004E0A06840F404402168886062
:1068F000E068022802D18002216848602068406870
:106900001049084321684860D4E904010843A1699B
:1069100040EA01202168C860D4E9070108432168E2
:1069200008602068006840F00100216808600020CD
:106930006064202084F841000020206384F8420035
:1069400000BFA7E7008000022DE9FC5F04468946EE
:1069500092469B46DDE90C780E9E002594F8410096
:1069600020287DD117B1B8F1000F02D1012000F02D
:10697000C9B800BF94F84000012801D10220F6E711
:10698000012084F8400000BFFFF758FF0546192397
:106990000122D1032046009503F07CFD08B10320BD
:1069A000E5E7222084F84100402084F842000020DE
:1069B00060646762A4F82A8060635B465246494679
:1069C0002046CDE9006503F0EFFB80B1606C042840
:1069D00006D100BF002084F8400000BF0120C6E7B8
:1069E00000BF002084F8400000BF0320BFE7608D97
:1069F000FF280DD9FF2020854FF41050009094F807
:106A000028204FF080734946204603F02BFD0CE010
:106A1000608D20854FF41050009094F828204FF09E
:106A200000734946204603F01DFD00BF3346002297
:106A300004212046009503F02DFD08B1032096E7C0
:106A40002068406AC1B2626A501C60621170208D79
:106A5000401E2085608D401E6085208D48BB00E073
:106A60004BE0608D28B333460022802120460095FC
:106A700003F010FD08B1032079E7608DFF280CD9E1
:106A8000FF2020850020009094F828204FF080738C
:106A90004946204603F0E6FC0BE0608D208500208F
:106AA000009094F828204FF000734946204603F0E8
:106AB000D9FC608D0028B9D12A463146204603F022
:106AC00014FD30B1606C042801D101204FE7032090
:106AD0004DE720202168C8612068406808490840C7
:106AE00021684860202084F84100002084F842009A
:106AF00000BF84F8400000BF39E7022037E70000FC
:106B000000E800FE3CBCBDE8C09F00002DE9FC5F32
:106B10000446894692469B46DDE90C780E9E002588
:106B200094F8410020286ED117B1B8F1000F02D1BE
:106B3000012000F0C7B800BF94F84000012801D13F
:106B40000220F6E7012084F8400000BFFFF776FE40
:106B5000054619230122D1032046009503F09AFC33
:106B600008B10320E5E7212084F84100402084F8A3
:106B70004200002060646762A4F82A8060635B467C
:106B8000524649462046CDE9006503F053FB80B1EB
:106B9000606C042806D100BF002084F8400000BFCC
:106BA0000120C6E700BF002084F8400000BF03209A
:106BB000BFE7608DFF280CD9FF20208500200090C2
:106BC00094F828204FF080734946204603F04AFC91
:106BD0000BE0608D20850020009094F828204FF075
:106BE00000734946204603F03DFC00BF2A4631466B
:106BF000204603F0A5FC38B1606C042801D10120C7
:106C000097E7032095E759E0616A481C60620878BD
:106C100021688862608D401E6085208D401E208521
:106C2000208D38BB608D28B333460022802120465A
:106C3000009503F02FFC08B103207AE7608DFF2850
:106C40000CD9FF2020850020009094F828204FF0D8
:106C500080734946204603F005FC0BE0608D2085DB
:106C60000020009094F828204FF0007349462046F9
:106C700003F0F8FB608D0028B8D12A463146204643
:106C800003F033FC30B1606C042801D1012050E7DF
:106C900003204EE720202168C86120684068084929
:106CA000084021684860202084F84100002084F8D2
:106CB000420000BF84F8400000BF3AE7022038E7F6
:106CC00000E800FE3CBCBDE8C09F70477047000074
:106CD00002480068401C0149086070470400002019
:106CE00010B50848006840F4807006490860032029
:106CF00000F09EF80F2000F007F800F019F80020CF
:106D000010BD00000020024070B50446074800682E
:106D10004FF47A71B0FBF1F5284602F071FA0022C7
:106D20002146501E00F043F8002070BD08000020EE
:106D300008B500BF1648006E40F00100144908660F
:106D40000846006E00F00100009000BF00BF032065
:106D500000F06EF8002211466FF00B0000F027F8EB
:106D6000002211466FF00A0000F021F800221146BF
:106D70006FF0090000F01BF800221146101F00F010
:106D800016F800221146501E00F011F808BD000050
:106D90000010024000BF00F01F0201219140420993
:106DA000920002F1E022C2F8001100BF70472DE905
:106DB000F05F80460D461646002708F0DBFC0746CC
:106DC00039462A46334601F00700C0F1070ABAF1F6
:106DD000040F02D94FF0040A01E0C0F1070AD146BE
:106DE00000F1040ABAF1070F02D24FF0000A01E0E5
:106DF000A0F1030AD4464FF0010A0AFA09FAAAF1EF
:106E0000010A0AEA020A0AFA0CFA4FF0010B0BFA1D
:106E10000CFBABF1010B0BEA030B4AEA0B04214616
:106E2000404608F0AFFC00F000B830BCBDE8C09FA1
:106E300000BF00F00702064B19684FF6FF03194028
:106E4000044B0B4343EA0221014B196000BF70471A
:106E50000CED00E00000FA05704710B50446D4F8C8
:106E6000C8030BF049FD10BD70B504460D46C5EBD7
:106E7000C50304F13C0101EB8301CA682946D4F83B
:106E8000C8030BF089FC70BD70B504460D46C5EB18
:106E9000C50304F5F07101EB8301CA682946D4F8F3
:106EA000C8030BF0E6FC70BD10B50446D4F8C80367
:106EB0000BF025FD10BD70B504460D46002605F00B
:106EC0008000802808D105F07F00C0EBC00104F1EC
:106ED0003C0000EB810605E0C5EBC50104F5F07050
:106EE00000EB81060020B07005F07F003070C5F324
:106EF000C010707000BF94F88403012801D10220F3
:106F000070BD012084F8840300BF314620680CF076
:106F100026F900BF002084F8840300BF00BFEFE71C
:106F20002DE9F04704460D46174698464FF00009F4
:106F3000002605F08000802808D105F07F00C0EB16
:106F4000C00104F13C0000EB810607E005F07F0082
:106F5000C0EBC00104F5F07000EB810605F07F0086
:106F6000307005F08000C0097070B76086F803804B
:106F700000BF94F88403012802D10220BDE8F08705
:106F8000012084F8840300BF314620680BF088FF9D
:106F900000BF002084F8840300BF4846EEE72DE9D7
:106FA000F04104460E4617469846002506F07F003D
:106FB000C0EBC00104F5F07000EB8105EF60C5F88F
:106FC00014800020A861687006F07F00287000BF60
:106FD00094F88403012802D10220BDE8F081012049
:106FE00084F8840300BF06F07F0028B9227C29467C
:106FF00020680BF0D9FF04E0227C294620680CF0C1
:1070000039F900BF002084F8840300BF00BFE4E723
:1070100070B504460D46002605F08000802808D192
:1070200005F07F00C0EBC00104F13C0000EB8106DD
:1070300005E0C5EBC50104F5F07000EB8106012009
:10704000B07005F07F003070C5F3C010707000BFE5
:1070500094F88403012801D1022070BD012084F836
:10706000840300BF314620680CF0BDF805F07F00B6
:1070700028B9217C04F5627220680CF057F800BF33
:10708000002084F8840300BF00BFE6E72DE9F0414B
:1070900004460E4617469846002506F07F00C0EBD2
:1070A000C00104F13C0000EB8105EF60C5F81480DD
:1070B0000020A8610120687006F07F00287000BFE2
:1070C00094F88403012802D10220BDE8F081012058
:1070D00084F8840300BF06F07F0028B9227C29468B
:1070E00020680BF061FF04E0227C294620680CF048
:1070F000C1F800BF002084F8840300BF00BFE4E7AC
:107100002DE9FC5F044626684FF0000B002001903B
:1071100081460025009080468246FE4F20680CF094
:1071200015FA002879D120680CF04BFA08B900F064
:107130005FBB20680CF045FA00F00200022805D180
:107140002068406900F002002168486120680CF066
:1071500038FA00F40020B0F5002F7DD1002520681A
:107160000CF002FA019085E0019800F0010000287F
:107170007CD0E9B220680CF019FA814609F00100D0
:10718000002859D0012106F5306000EB45108160E0
:10719000D6F8080B00F40040F0BB206901282BD181
:1071A000C5EBC50104F5F07000EB8100816806F5C0
:1071B000306000EB45100069C0F31200091AC5EBFE
:1071C000C50204F5F07000EB82008161C5EBC501DA
:1071D00004F5F07000EB8100C5EBC502C16804F551
:1071E000F07000EB820080680144C5EBC50204F535
:1071F000F07000EB8200C160E9B22046FFF744FE68
:107200002069012811D13DB9C5EBC50104F5F07025
:1072100000EB8100406901E007E0D3E228B904F502
:107220006272012120680BF081FFD6F8081B48F23A
:1072300020000143C6F8081B09F00800082808D1FF
:10724000204600F01FFB082106F5306000EB4510DA
:10725000816009F0100001E010E007E0102805D17E
:10726000102106F5306000EB451081606D1C01981F
:1072700040080190019800287FF476AF20680CF058
:10728000A0F900F48020B0F5802F7DD120680CF0AB
:1072900062F90190002585E0019800F001000028C6
:1072A0007CD0E9B220680CF068F9814609F0010051
:1072B000F0B30120A840009040F6340080590099B6
:1072C000884340F634018851012106F5106000EB37
:1072D000451081602069012815D1C5EBC50104F175
:1072E0003C0000EB8100C5EBC502C16804F13C0025
:1072F00000EB820080680144C5EBC50204F13C004C
:1073000000EB8200C160E9B22046FFF7ADFD2069C5
:10731000012810D165B9C5EBC50104F13C0000EBB3
:107320008100406920B904F562720121206800E003
:1073300001E00BF0FBFE09F00800082805D1082148
:1073400006F5106000EB4510816009F01000102870
:1073500005D1102106F5106000EB4510816009F0A1
:107360004000402805D1402106F5106000EB451093
:10737000816009F00200022805D1022106F51060A3
:1073800000EB4510816001E010E007E009F08000AB
:10739000802803D12946204608F010FA6D1C019878
:1073A00040080190019800287FF476AF20680CF027
:1073B00008F900F00040B0F1004F1CD140F6040085
:1073C000805920F0010140F60400815194F8B8037F
:1073D000012807D1002084F8B80300212046FFF7D8
:1073E0003BFD02E0204600F024FA2068406900F0EE
:1073F00000402168486120680CF0E3F800F4006068
:10740000B0F5006F0ED140F60800805900F0010081
:1074100010B1204600F03FFA2068406900F4006097
:107420002168486120680CF0CCF800F00060B0F1F1
:10743000006F19D12068406900F000602168486140
:1074400094F8B80368B9012084F8B8032068406D47
:10745000C0F38300C4F8BC0301212046FFF7FCFC05
:1074600002E0204600F017FA20680CF0AAF800F4B9
:107470008050B0F5805F5FD140F60400805920F065
:10748000010140F604008151002120680CF046F80B
:107490004FF0000B0CE0FF2106F5106000EB4B10E5
:1074A000816006F5306000EB4B1081600BF1010B41
:1074B00060685845EFD84FF0FF3140F61800815111
:1074C000001D805940F0011140F61C008151206BD5
:1074D00070B1D6F8840840F00B01C6F8841840F665
:1074E0004400805940F00B0140F6440081510EE009
:1074F00040F61400805940F00B0140F61400815111
:10750000001F805940F00B014FF401608151D6F803
:10751000000801E000B4C40420F4FE60C6F80008CE
:10752000217C04F5627220680BF000FE206840693F
:1075300000F480502168486120680CF042F800F4A3
:107540000050B0F5005F77D120680BF00BFD20688C
:10755000C06820F470502168C8600321E1604021B8
:10756000616100F033FD07469748874209D3974889
:10757000874206D22068C06840F470502168C86015
:107580006EE09248874209D39148874206D220682C
:10759000C06840F460502168C86061E08C48874250
:1075A00009D38C48874206D22068C06840F4505006
:1075B0002168C86054E08748874209D386488742DB
:1075C00006D22068C06840F440502168C86047E097
:1075D0008148874209D38148874206D22068C06823
:1075E00040F430502168C8603AE07C48874209D3B3
:1075F0007B48874206D22068C06840F4205021684A
:10760000C8602DE07648874209D37648874206D283
:107610002068C06840F410502168C86020E07148BC
:1076200087420AD37048874207D22068C06840F476
:1076300000502168C86013E01BE06B48874209D303
:107640006A48874206D22068C06840F4E05021684A
:10765000C86005E02068C06840F4C0502168C86078
:10766000204600F0DAF82068406900F400502168F4
:10767000486120680BF0A5FF00F01000102845D1EC
:107680002068806920F0100021688861D6F8208089
:1076900008F00F00C0EBC00104F5F07000EB810AA8
:1076A000C8F3434002281AD147F6F07008EA0000F8
:1076B00030B3C8F30A123046DAF80C100BF087FF2B
:1076C000C8F30A11DAF80C000844CAF80C00C8F331
:1076D0000A11DAF818000844CAF8180010E0C8F3D4
:1076E000434006280CD1082204F5627130460BF0A5
:1076F0006EFFC8F30A11DAF818000844CAF8180037
:107700002068806940F010002168886120680BF0D3
:1077100058FF00F00800082808D1204600F090F833
:107720002068406900F008002168486120680BF07B
:1077300048FF00F48010B0F5801F09D1E9B220465F
:1077400000F059F82068406900F480102168486111
:1077500020680BF036FF00F40010B0F5001F09D1CF
:10776000E9B2204600F050F82068406900F40010AB
:107770002168486120680BF024FF00F08040B0F1E0
:10778000804F08D12046FFF768FB2068406900F071
:1077900080402168486120680BF013FF00F004006E
:1077A00004280FD12068D0F8048008F004000428D1
:1077B00002D12046FFF778FB2068406840EA0800C5
:1077C0002168486000BFB2E4C0ACD800C0E1E4006A
:1077D0000024F40080730601A0491A01002D310134
:1077E00040A44C0100366E0120ABA6010048E80120
:1077F0003CBCBDE8C09F70B504460D462946D4F890
:10780000C8030BF0A5F870BD70B504460D462946B7
:10781000D4F8C8030BF09FF870BD10B50446D4F837
:10782000C8030BF0BBF80121D4F8C8030BF0F0F843
:1078300010BD10B50446D4F8C8030BF0D1F810BD44
:1078400010B50446D4F8C8030BF0D1F810BD70B5DC
:1078500004460D4600BF94F88403012801D102209C
:1078600070BD012084F8840300BF84F83850294695
:1078700020680BF0C0FE00BF002084F8840300BF26
:1078800000BFEDE710B5044604F56271D4F8C803F3
:107890000BF0CCF810BD10B50446D4F8C8030BF0BB
:1078A00006F910BD0348406840F400700149486083
:1078B00070470000007000400248006800F4C0609B
:1078C00070470000007000400348006840F480707A
:1078D00001490860704700000070004006480068D9
:1078E00020F0200004499039C1F8900008468069D2
:1078F00020F40070886170479010024003480068CF
:1079000040F0040001490860704700000010024088
:107910002DE9F8430446002600270025A8462088C4
:1079200000F40060B0F5006F30D1606E80B1B0F54A
:10793000800F13D0B0F5000F03D0B0F5400F15D174
:1079400013E0FA48C06840F48030F849C8600FE09E
:107950000021201D08F00EF9054609E0002104F180
:10796000200008F0FDF9054602E001E0012500BF16
:1079700000BF55B9ED488830006820F44000616EC2
:107980000843EA49C1F8880000E0A846208800F4CE
:107990008050B0F5805F30D1A06E80B1B0F1807FB3
:1079A00013D0B0F1007F03D0B0F1407F15D113E0C8
:1079B000DE48C06840F48030DC49C8600FE0002138
:1079C000201D08F0D7F8054609E0002104F1200049
:1079D00008F0C6F9054602E001E0012500BF00BF3E
:1079E00055B9D2488830006820F04070A16E084335
:1079F000CE49C1F8880000E0A846206800F40030B5
:107A0000B0F5003F76D14FF00009C848806D00F016
:107A1000805078B900BFC548806D40F08050C349A0
:107A200088650846806D00F08050009000BF00BF60
:107A30004FF00109BE48006840F48070BC490860FE
:107A4000FEF7FCFE074606E0FEF7F8FEC01B022824
:107A500001D9032505E0B648006800F480700028CD
:107A6000F2D000BF85BBB1489030006800F440768A
:107A7000D6B1D4F88400B04216D0AC48903000683B
:107A800020F44076A948D0F8900040F48030A7490F
:107A9000C1F890000846D0F8900020F48030C1F87A
:107AA00090000846C0F8906006F00100A8B1FEF70B
:107AB000C5FE074609E0FEF7C1FEC01B41F2883152
:107AC000884202D9032507E017E098489030006803
:107AD00000F002000028EED000BF65B99348903056
:107AE000006820F44070D4F8841008438F49C1F82E
:107AF000900003E00CE0A84600E0A846B9F1010FB1
:107B000005D18A48806D20F080508849886500BF83
:107B1000207800F0010048B184488830006820F0E7
:107B20000300A16B08438149C1F88800207800F068
:107B30000200022809D17D488830006820F00C003E
:107B4000E16B08437949C1F88800207800F004000F
:107B5000042809D175488830006820F03000216C75
:107B600008437249C1F88800207800F0080008280E
:107B700009D16E488830006820F0C000616C08436D
:107B80006A49C1F88800207800F01000102809D157
:107B900066488830006820F44070A16C084363494F
:107BA000C1F88800207800F02000202809D15F4823
:107BB0008830006820F44060E16C08435B49C1F8FC
:107BC0008800208800F40070B0F5007F09D1574884
:107BD0008830006820F44020E16D08435349C1F823
:107BE0008800208800F48060B0F5806F09D14F488C
:107BF0008830006820F44010216E08434B49C1F8DA
:107C00008800207800F04000402809D1474888309B
:107C1000006820F44050216D08434449C1F88800B1
:107C2000207800F08000802809D140488830006822
:107C300020F44040616D08433C49C1F88800208829
:107C400000F48070B0F5807F09D138488830006832
:107C500020F44030A16D08433449C1F888002088E1
:107C600000F40050B0F5005F1FD130488830006844
:107C700020F04060E16E08432C4988310860E06ED6
:107C8000B0F1006F06D12948C06840F48010274940
:107C9000C8600AE0E06EB0F1806F06D10121201DBE
:107CA00007F068FF054605B1A846206800F40020EB
:107CB000B0F5002F1FD11D488830006820F04060CB
:107CC000216F0843194988310860206FB0F1006FB7
:107CD00006D11648C06840F480101449C8600AE014
:107CE000206FB0F1806F06D10121201D07F042FF07
:107CF000054605B1A846206800F48020B0F5802F25
:107D000023D10A488830006820F04060616F084342
:107D1000064988310860606FB0F1006F0AD10348EE
:107D2000C06840F480100149C8600EE000100240B5
:107D300000700040606FB0F1806F06D10121201DFE
:107D400007F018FF054605B1A846208800F48040DA
:107D5000B0F5804F1FD12248006820F04050A16F3D
:107D600008431F490860A06FB0F1805F07D102216E
:107D7000201D07F0FFFE05466DB1A8460BE0A06F81
:107D8000B0F1005F07D1022104F1200007F0E8FF05
:107D9000054605B1A846208800F40040B0F5004F24
:107DA00009D10F48006820F08040E16F08430C497A
:107DB0008839C1F88800206800F48030B0F5803F31
:107DC0000AD10748006820F00040D4F8801008432A
:107DD00003498839C1F888004046BDE8F8830000AF
:107DE0008810024070B504460D46002673480068AE
:107DF00000F00700A8420ED27048006820F007008B
:107E000028436E4908600846006800F00700A84251
:107E100001D0012070BD207800F00200022807D1B7
:107E20006748806820F0F000A168084364498860D2
:107E3000207800F00100002879D06068022806D17F
:107E40005F48006800F40030D8B90120E2E76068BC
:107E5000032806D15A48006800F0007088B9012054
:107E6000D8E7606830B95648006800F0020040B9B1
:107E70000120CFE75248006800F4806008B9012073
:107E8000C8E74F48806820F00300616808434C4908
:107E90008860FEF7D3FC06466068022810D108E02F
:107EA000FEF7CCFC801B41F28831884201D90320C7
:107EB000B0E74348806800F00C000828F0D136E0B5
:107EC0006068032810D108E0FEF7B8FC801B41F27F
:107ED0008831884201D903209CE73948806800F046
:107EE0000C000C28F0D122E0606880B908E0FEF7B1
:107EF000A5FC801B41F28831884201D9032089E723
:107F00002F48806800F00C000028F0D10FE008E056
:107F1000FEF794FC801B41F28831884201D903208E
:107F200078E72748806800F00C000428F0D1234847
:107F3000006800F00700A8420ED92048006820F031
:107F4000070028431D4908600846006800F0070044
:107F5000A84201D001205DE7207800F00400042849
:107F600007D11748806820F4E060E16808431449AD
:107F70008860207800F00800082808D11048806840
:107F800020F46050216940EAC1000D49886000F08A
:107F90004FF80B49896801F0F001F02292FAA2F241
:107FA000B2FA82F2D140074A515CC84006490860E3
:107FB0000F20FEF7A9FE00202CE700000020024061
:107FC00000100240607C01080800002001480068A1
:107FD000704700000800002000B5FFF7F7FF0749D1
:107FE000896801F4E0614FF4E06292FAA2F2B2FA19
:107FF00082F2D140024A515CC84000BD00100240EC
:10800000707C010800B5FFF7E1FF0749896801F4BA
:1080100060514FF4605292FAA2F2B2FA82F2D14069
:10802000024A515CC84000BD00100240707C01084B
:10803000F0B5002100230024022502220020554E25
:10804000B66806F00C065EB1524EB66806F00C0635
:108050000C2E2DD14F4EF66806F00306012E27D1C7
:108060004C4E366806F008066EB94A4E94363668AD
:1080700006F470664FF4706797FAA7F7B7FA87F7B8
:1080800026FA07F10AE0434E366806F0F006F027BC
:1080900097FAA7F7B7FA87F726FA07F13E4E56F890
:1080A00021103C4EB66806F00C0686B908460EE074
:1080B000384EB66806F00C06042E01D1374806E0AB
:1080C000344EB66806F00C06082E00D13448314E06
:1080D000B66806F00C060C2E5BD12E4EF66806F044
:1080E00003042C4EF66806F07006702797FAA7F77F
:1080F000B7FA87F7FE40721C012C29D0022C02D05F
:10810000032C24D111E0254EB6FBF2F6214FFF6877
:1081100007F4FE474FF4FE4C9CFAACFCBCFA8CFC16
:1081200027FA0CF706FB07F323E01D4EB6FBF2F629
:10813000184FFF6807F4FE474FF4FE4C9CFAACFC66
:10814000BCFA8CFC27FA0CF706FB07F311E000BF22
:10815000B1FBF2F60F4FFF6807F4FE474FF4FE4CF9
:108160009CFAACFCBCFA8CFC27FA0CF706FB07F374
:1081700000BF00BF074EF66806F0C0664FF0C0674C
:1081800097FAA7F7B7FA87F7FE40761C7500B3FB9E
:10819000F5F0F0BD00100240787C01080024F400E6
:1081A00000127A00F8B504460025207800F010008F
:1081B000102874D1FE48806800F00C00002870D1AF
:1081C000FB48006800F0020018B1A06908B901205E
:1081D000F8BDF748216A006800F0080020B1F448B3
:1081E000006800F0F00005E0F1489430006800F409
:1081F0007060000981421FD9206A07F087FE08B12C
:108200000120E5E700BFEA48006840F00800E849BF
:1082100008600846006820F0F000216A0843E4493D
:10822000086000BF0846406820F47F40E16940EAEA
:108230000120DF4948601EE000BFDD48006840F0D3
:108240000800DB4908600846006820F0F000216A59
:108250000843D749086000BF0846406820F47F40C3
:10826000E16940EA0120D2494860206A07F04EFEE9
:1082700008B10120ACE7FFF7DBFECD49896801F0CA
:10828000F001F02292FAA2F2B2FA82F2D140C94A87
:10829000515CC840C84908600F20FEF735FD4BE02F
:1082A000FFE7A06980B3C248006840F00100C04900
:1082B0000860FEF7C3FA054606E0FEF7BFFA401B6A
:1082C000022801D9032083E7B948006800F00200C2
:1082D0000028F2D000BFB648006840F00800B4495A
:1082E00008600846006820F0F000216A0843B049A1
:1082F000086000BF0846406820F47F40E16940EA1A
:108300000120AB49486017E0FFE7A948006820F06A
:108310000100A7490860FEF791FA054606E0FEF75E
:108320008DFA401B022801D9032051E7A0480068BC
:1083300000F002000028F2D1207800F001000028AF
:108340006CD09B48806800F00C0008280BD098483F
:10835000806800F00C000C280ED19548C06800F031
:108360000300032808D19248006800F4003088B365
:10837000606878BB01202BE700BF6068B0F5803FE4
:1083800006D18B48006840F48030894908601AE0C3
:108390006068B0F5A02F0BD18548006840F48020BC
:1083A000834908600846006840F4803008600AE0AD
:1083B0007F48006820F480307D49086008460068E6
:1083C00020F48020086000BF6068A0B1FEF736FA94
:1083D000054609E022E0FEF731FA401B41F2883100
:1083E000884201D90320F3E67148006800F40030A8
:1083F0000028F0D012E0FEF721FA054608E0FEF76B
:108400001DFA401B41F28831884201D90320DFE682
:108410006748006800F400300028F0D1207800F0B0
:10842000020002286AD16248806800F00C0004282B
:108430000BD05F48806800F00C000C281ED15C480F
:10844000C06800F00300022818D15948006800F401
:10845000806018B1E06808B90120B9E65448406866
:1084600020F0F8504FF0F85292FAA2F2B2FA82F2EB
:108470002169914008434E4948603FE0E06830B3CD
:108480004B48006840F4807049490860FEF7D6F90F
:10849000054606E0FEF7D2F9401B022801D9032069
:1084A00096E64348006800F480600028F2D0404817
:1084B000406820F0F8504FF0F85292FAA2F2B2FA67
:1084C00082F22169914008433949486016E03848F2
:1084D000006820F4807036490860FEF7AFF9054661
:1084E00006E0FEF7ABF9401B022801D903206FE636
:1084F0002F48006800F480600028F2D1207800F056
:108500000800082836D16069D0B129489430006845
:1085100040F001002649C1F89400FEF78FF90546A6
:1085200006E0FEF78BF9401B022801D903204FE635
:108530001F489430006800F002000028F1D019E0D4
:108540001B489430006820F001001949C1F89400DC
:10855000FEF774F9054606E0FEF770F9401B0228A5
:1085600001D9032034E612489430006800F002007C
:108570000028F1D1207800F00400042870D10026F2
:108580000B48806D00F0805070B900BF0848806DC6
:1085900040F08050064988650846806D00F08050A4
:1085A000009000BF00BF01260448006808E00000FA
:1085B00000100240607C01080800002000700040AC
:1085C00000F48070B0B98948006840F48070874931
:1085D0000860FEF733F9054606E0FEF72FF9401B69
:1085E000022801D90320F3E58048006800F4807078
:1085F0000028F2D000BFA068012808D17C4800689C
:1086000040F001007A499039C1F8900021E0A0685B
:1086100005280FD17648006840F00400744990396D
:10862000C1F890000846D0F8900040F00100C1F871
:1086300090000EE06E48006820F001006C4990390F
:10864000C1F890000846D0F8900020F00400C1F86E
:10865000900000BFA068A0B1FEF7F0F8054609E061
:108660002DE0FEF7EBF8401B41F28831884201D93A
:108670000320ADE55E48006800F002000028F0D05D
:1086800012E0FEF7DBF8054608E0FEF7D7F8401BDE
:1086900041F28831884201D9032099E554480068A5
:1086A00000F002000028F0D1012E07D15048903888
:1086B000806D20F080504E499039886500BFA06AD7
:1086C000F0B34B489038806800F00C000C2879D04B
:1086D000A06A022853D146489038006820F0807084
:1086E000434990390860FEF7A9F8054606E0FEF711
:1086F000A5F8401B022801D9032069E53C489038C1
:10870000006800F000700028F1D1206B401E0101CC
:10871000606B41EA0021A06B000941EA4040E16A38
:108720000843A18F0122C2EB510140EA4151402090
:10873000005DC2EB500041EA40602D49903900E0F5
:1087400052E0C8600846006840F080700860084643
:10875000C06840F08070C860FEF770F8054606E01B
:10876000FEF76CF8401B022801D9032030E52048B1
:108770009038006800F000700028F1D034E01C4808
:108780009038006820F080701949903908600846D8
:10879000006800F0006048B90846006800F000502A
:1087A00020B90846C06820F00300C860104890381F
:1087B000C068104908400E499039C860FEF73EF87D
:1087C000054607E00EE0FEF739F8401B022801D904
:1087D0000320FDE406489038006800F0007000288F
:1087E000F1D101E00120F3E40020F1E40070004049
:1087F00090100240FFFFEEFE70B505460B46164690
:108800000024286840680E4900EA0104200CD87052
:10881000C4F30420587004F03F009870C4F3423051
:1088200018705EB9D87807F0C1FBD870587807F097
:10883000BDFB5870987807F0B9FB9870002070BDA8
:108840003FFFFF0070B504460B4616460025206822
:10885000806A586020680069C0F30E009860206844
:1088600000680F4900EA0105C5F305401870C5F31B
:108870000620587005F07F00987005F48000000C09
:10888000D8705EB9187807F091FB1870587807F027
:108890008DFB5870987807F089FB9870002070BDA8
:1088A0007F7F7F0010B504460CB9012010BD94F8FD
:1088B000210028B9002084F82000204600F054F858
:1088C000022084F8210000BFCA202168486253209A
:1088D0002168486200BF204607F09AFB48B100BFFC
:1088E000FF202168486200BF042084F82100012095
:1088F000DCE7206880681B4908402168886021699E
:1089000060680843A16908432168896808432168B1
:1089100088602168E068086120680169208941EA6F
:108920000040216808612068C06820F0800021684C
:10893000C8602068C06C20F003002168C8646169C9
:10894000E06908432168C96C08432168C86400BF16
:10895000FF202168486200BF012084F82100002028
:10896000A4E70000BFFF8FFF10B504460848006869
:1089700040F4004006499039C1F8900000220F21D0
:108980002920FEF714FA2920FEF704FA10BD000092
:10899000901002402DE9F04104460D46164600278E
:1089A00000BF94F82000012802D10220BDE8F08128
:1089B000012084F8200000BF022084F821004EB975
:1089C000687800F01000102804D1687800F0EF00FB
:1089D0000A30687086B9E87807F0F3FA030468781B
:1089E00007F0EFFA43EA0023A87807F0EAFA034316
:1089F000287843EA403711E0687807F0D7FA07464D
:108A0000A87807F0D3FA0746E8780004697840EAC6
:108A10000120A9780843297840EA413700BFCA20DD
:108A20002168486253202168486200BF204607F051
:108A3000EFFA70B100BFFF202168486200BF042038
:108A400084F8210000BF002084F8200000BF01202E
:108A5000ACE718483840216848602068C06820F0BA
:108A600080002168C8602068806800F0200090B90C
:108A7000204600F0C5F870B100BFFF2021684862B1
:108A800000BF042084F8210000BF002084F82000EB
:108A900000BF01208AE700BFFF202168486200BFB5
:108AA000012084F8210000BF002084F8200000BFCE
:108AB00000BF7BE73FFFFF002DE9F04104460D4674
:108AC0001646002700BF94F82000012802D102209A
:108AD000BDE8F081012084F8200000BF022084F866
:108AE0002100CEB92068806800F0400000B102E0AB
:108AF0000020E87000BF287807F063FA0304687864
:108B000007F05FFA43EA0023A87807F05AFA034314
:108B1000E87843EA004716E02068806800F04000EB
:108B200020B1287807F042FA074602E00020E870FA
:108B300000BF28780004697840EA0120A97808433A
:108B4000E97840EA014700BFCA2021684862532003
:108B50002168486200BF204607F05AFA70B100BF92
:108B6000FF202168486200BF042084F8210000BF74
:108B7000002084F8200000BF0120A9E71F483840EA
:108B8000216808602068806820F48020216888605F
:108B9000D5E9030108432168896808432168886092
:108BA0002068C06820F080002168C8602068806864
:108BB00000F0200090B9204600F022F870B100BF0C
:108BC000FF202168486200BF042084F8210000BF14
:108BD000002084F8200000BF012079E700BFFF20BB
:108BE0002168486200BF012084F8210000BF0020F6
:108BF00084F8200000BF00BF6AE700007F7F7F008D
:108C000070B5044600252068C06820F0A0002168E7
:108C1000C860FDF713FE054607E0FDF70FFE401B99
:108C2000B0F57A7F01D9032070BD2068C06800F0DC
:108C300020000028F1D00020F6E710B504460CB95A
:108C4000012010BD022084F85D002068006820F03B
:108C5000400021680860204600F075F8002020667A
:108C600084F85D0000BF84F85C0000BF00BFE8E747
:108C7000014691F85D00704770B504460CB90120BB
:108C800070BD94F85D0028B9002084F85C0020468F
:108C900000F05AF8022084F85D002068006820F097
:108CA000400021680860E068B0F5E06F01D9002558
:108CB00001E04FF48055E068B0F5706F05D0E068D2
:108CC000B0F5E06F01D00021A162206B40B9E068EF
:108CD000B0F5E06F02D90221216301E00121216397
:108CE000D4E9010108432169084361690843218BE4
:108CF00001F400710843E1690843216A0843A16A4D
:108D0000084321680860206B022805D120680068AC
:108D100040F40060216808600421A06901EA104065
:108D2000616A0843616B0843E1680843284321688E
:108D300048602168E06A086100202066012084F80C
:108D40005D0000209CE7704770472DE9F84304461A
:108D50000F4616461D46FDF771FD80464FF000098F
:108D600000BF94F85C00012802D10220BDE8F8831E
:108D7000012084F85C0000BF94F85D00012802D057
:108D80004FF00209AFE007B116B94FF00109AAE0B0
:108D9000032084F85D0000202066A763A687E6878D
:108DA0002064A4F84400A4F84600A068B0F5004F81
:108DB00005D12068006840F4804021680860A06AFE
:108DC000B0F5005F0ED100BF206800684DF6FF715E
:108DD0000840216808602068006840F4005021685D
:108DE000086000BF2068006800F04000402805D0FF
:108DF0002068006840F0400021680860E068B0F535
:108E0000E06F21D91CE02068806800F00200022891
:108E10000AD1A06B00882168C860A06B801CA06389
:108E2000E08F401EE0870BE03DB1681C40B1FDF7CC
:108E300005FDA0EB0800A84202D34FF0030952E061
:108E4000E08F0028DFDC2DE029E02068806800F05A
:108E50000200022817D1E08F01280ADDA06B0088EC
:108E60002168C860A06B801CA063E08F801EE08733
:108E700015E0A16B481CA063087821680873E08F97
:108E8000401EE0870BE03DB1681C40B1FDF7D6FC09
:108E9000A0EB0800A84202D34FF0030923E0E08FC3
:108EA0000028D2DCA06AB0F5005F05D12068006818
:108EB00040F48050216808602946204607F0F1FD03
:108EC00008B120202066A06840B900BF2068C068B3
:108ED000009020688068009000BF00BF206E08B13D
:108EE0004FF0010900BF012084F85D0000BF0020A1
:108EF00084F85C0000BF484638E72DE9F84F044687
:108F00000F4690461D460A9EFDF798FC81464FF09D
:108F1000000A00BF94F85C00012802D1022000F092
:108F20006CB9012084F85C0000BF94F85D00012852
:108F300002D04FF0020A56E11FB1B8F1000F00D085
:108F400015B94FF0010A4EE1052084F85D000020BC
:108F50002066C4F84080A4F84650A4F84450A763A3
:108F6000E587A587A06AB0F5005F0ED100BF206835
:108F700000684DF6FF7108402168086020680068AD
:108F800040F400502168086000BFE068B0F5E06F71
:108F900003D8B4F84600012806DD2068406820F4B4
:108FA00080502168486005E02068406840F48050A7
:108FB000216848602068006800F04000402805D023
:108FC0002068006840F0400021680860E068B0F563
:108FD000E06F47D93EE0E08F00281BDD2068806805
:108FE00000F00200022815D1A06B00882168C8603B
:108FF000A06B801CA063E08F401EE087E08F48B923
:10900000A06AB0F5005F05D12068006840F4805088
:1090100021680860B4F84600002810DD20688068E8
:1090200000F0010058B12068C068216C0880206CF5
:10903000801C2064B4F84600401EA4F84600701C52
:1090400040B1FDF7FBFBA0EB0900B04202D34FF0AB
:10905000030AC8E0E08F0028BDDCB4F84600002811
:10906000B9DC6DE065E0E08F002828DD20688068CD
:1090700000F00200022822D1E08F01280ADDA06B57
:1090800000882168C860A06B801CA063E08F801EF0
:10909000E08708E0A16B481CA0630878216808738A
:1090A000E08F401EE087E08F48B9A06AB0F5005F0E
:1090B00005D12068006840F4805021680860B4F849
:1090C000460000282ADD2068806800F0010028B3EF
:1090D000B4F84600012816DD2068C068216C0880BD
:1090E000206C801C2064B4F84600801EA4F8460062
:1090F000B4F84600012811DC2068406840F4805034
:10910000216848600AE02068017B226C501C2064C2
:109110001170B4F84600401EA4F84600701C40B11F
:10912000FDF78CFBA0EB0900B04202D34FF0030A1D
:1091300059E0E08F002896DCB4F84600002892DC65
:10914000A06AB0F5005F33D13346012211462046B4
:1091500007F084FD30B1206E40F0020020664FF031
:10916000030A40E0E068B0F5706F06D12068C0687F
:1091700080B20090BDF800001AE02068007B0090EB
:10918000BDF80000206B022812D13346012211469F
:10919000204607F063FD30B1206E40F002002066EB
:1091A0004FF0030A1FE02068007B0090BDF800002C
:1091B00020688068C0F3001048B1206E40F00200C3
:1091C00020664FF6EF70216888604FF0010A314643
:1091D000204607F066FC08B120202066206E08B10A
:1091E0004FF0010A00BF012084F85D0000BF00209D
:1091F00084F85C0000BF504691E618BCBDE8E08FE3
:1092000070B504462546681EB0F1807F01D3012069
:109210000FE0681E4FF0E02148610F214FF0FF3052
:1092200006F0B0FA00204FF0E021886107200861C5
:10923000002070BD7047704710B504460CB901207E
:1092400010BD94F8390028B9002084F83800204671
:1092500000F00CF8022084F83900211D206808F085
:109260004DFD012084F839000020E9E738B50446B7
:109270000D492068884215D100BF0C48806D40F030
:1092800004000A4988650846806D00F004000090DB
:1092900000BF00BF032201211E20FDF788FD1E2014
:1092A000FDF778FD38BD00000008004000100240C6
:1092B00001460868C06840F001000A68D06008688C
:1092C000006840F001000A68106000207047704795
:1092D00010B5044620680069C0F34000D8B120688A
:1092E000C068C0F34000B0B16FF0020021680861AF
:1092F000012020762068806900F0030018B1204624
:10930000FFF7E5FF05E0204600F0ADF8204600F04D
:10931000ABF80020207620680069C0F38000D8B147
:109320002068C068C0F38000B0B16FF0040021680D
:109330000861022020762068806900F4407018B12E
:109340002046FFF7C4FF05E0204600F08CF82046D9
:1093500000F08AF80020207620680069C0F3C00081
:10936000D8B12068C068C0F3C000B0B16FF0080089
:1093700021680861042020762068C06900F003009D
:1093800018B12046FFF7A3FF05E0204600F06BF878
:10939000204600F069F80020207620680069C0F3BC
:1093A0000010D8B12068C068C0F30010B0B16FF0F1
:1093B000100021680861082020762068C06900F448
:1093C000407018B12046FFF782FF05E0204600F00C
:1093D0004AF8204600F048F800202076206800690E
:1093E00000F0010058B12068C06800F0010030B101
:1093F0006FF0010021680861204600F037F820680E
:109400000069C0F3C01058B12068C068C0F3C01034
:1094100030B16FF08000216808612046FFF70AFF35
:1094200020680069C0F3801058B12068C068C0F39C
:10943000801030B16FF0400021680861204600F0D4
:109440004FF820680069C0F3401058B12068C06828
:10945000C0F3401030B16FF0200021680861204651
:10946000FFF7E9FE10BD70477047000070B5064673
:109470001748006817490968884227D014480068CF
:1094800014490968884204D911480068C0F500648D
:1094900004E0104800680E490968441A0C48056841
:1094A000A2B20D4841190D4808F0DCFF0B4808F046
:1094B000E3FF58B90648006820440549086008469B
:1094C0000068B0F5006F01D10020086070BD000099
:1094D0007804002074040020C8160020800C0020AE
:1094E000704710B504460CB9012010BDA06900B149
:1094F00000E000BF94F8690028B9002084F86800F3
:10950000204600F02BF8242084F8690020680068C9
:1095100020F0010021680860204608F01FFD0128A6
:1095200000D1E2E7606A10B1204608F061FC2068D3
:10953000406820F49040216848602068806820F0EE
:109540002A00216888602068006840F001002168D6
:109550000860204608F0C8FCC7E7000010B586B0D8
:10956000044625492068884244D100BF2348806DC5
:1095700040F48010214988650846806D00F4801011
:10958000009000BF00BF00BF0846C06C40F008005C
:10959000C8640846C06C00F00800009000BF00BF1F
:1095A00004200190022002900120039003200490E7
:1095B0000820059001A91248FDF736F800BF0F48B2
:1095C000C06C40F004000D49C8640846C06C00F04F
:1095D0000400009000BF00BF881401900220029098
:1095E00001200390032004900820059001A905485C
:1095F000FDF71AF806B010BD005000400010024000
:10960000000C0048000800482DE9F84304460D46C8
:1096100016461F464FF0000994F86900202854D1DF
:1096200005B116B90120BDE8F88300BF94F86800C1
:10963000012801D10220F6E7012084F8680000BF6C
:1096400000205034E06121206076FDF7F7F8814674
:1096500026806680503C21E0B4F85200401EA4F8F9
:1096600052004B46002280212046009708F0BDFEA4
:1096700008B10320D7E7A068B0F5805F0AD1206960
:1096800040B9A846B8F80000C0F308002168088572
:10969000AD1C03E015F8010B21680885B4F85200F1
:1096A0000028D9DC4B46002240212046009708F0D4
:1096B0009CFE08B10320B6E7202084F8690000BFB3
:1096C000002084F8680000BFADE70220ABE738B5A2
:1096D00004466B4601222021204600F0EAFA08B138
:1096E000012038BD9DF8000040F0800000906B46DE
:1096F00001222021204600F0B8FC08B10120F0E74B
:109700000020EEE738B50446002000906946204668
:1097100000F0DEF9012800D138BD20789DF8001056
:10972000884201D00120F7E70020F5E738B504466C
:109730006B4601222021204600F0BBFA08B101202F
:1097400038BD9DF8000020F0800000906B4601229B
:109750002021204600F089FC08B10120F0E700201C
:10976000EEE7F8B506460C4615466B460122272162
:10977000304600F09EFA08B10120F8BD9DF80000C7
:10978000C0F3400020709DF8000000F00100287038
:109790000020F2E770B505460C46234601220F2152
:1097A000284600F086FA08B1012070BD0020FCE7D1
:1097B00038B505460C46002000906946284600F062
:1097C00011F8012800D138BDBDF8000000EE100AE4
:1097D000B8EE400AF2EE040A80EE201A84ED001A78
:1097E0000020F0E72DE9F0472DED028B82B0824694
:1097F0000E4601AB02223021504600F05AFA28B141
:10980000012002B0BDEC028BBDE8F0879DF804009A
:1098100044109DF805004FEA600801AB0222362192
:10982000504600F046FA08B10120EAE79DF804002E
:109830009DF8051040EA012005B201AB02223A2151
:10984000504600F036FA08B10120DAE79DF804002E
:109850009DF8051040EA012007B201AB0222282141
:10986000504600F026FA08B10120CAE79DF804002E
:109870009DF8051040EA01200FFA80F9A9EB0500D8
:1098800000EE100AF8EEC00AA8EB040000EE100A81
:10989000B8EEC00A20EE801A781B00EE100AB8EE6F
:1098A000C00AC1EE000A00EE104AB8EEC00A30EE5F
:1098B000800AB0EE408AB2EE040A28EE000AB0EE4A
:1098C000408A9FED0C0AB4EEC08AF1EE10FA02DD78
:1098D0004FF47A700BE0B5EEC08AF1EE10FA01D2C7
:1098E000002004E0BCEEC80A10EE100A80B23080FE
:1098F000002086E700007A4438B505460C466946E4
:10990000284600F02DF8012800D138BD9DF8000050
:1099100030B1012809D002280CD0032814D10EE060
:109920009FED0E0A84ED000A14E0B7EE000A84ED04
:10993000000A0FE0B1EE0C0A84ED000A0AE0B2EE74
:10994000090A84ED000A05E0BFEE000A84ED000A72
:109950000120DAE700BF0020D7E700000000000088
:1099600038B505460C466B4601222021284600F0FA
:10997000A0F908B1012038BD9DF8000000F00300F7
:1099800000909DF8000020700020F4E738B50546EF
:109990000C46002000906946284600F011F8012886
:1099A00000D138BDBDF9000000EE100AB8EEC00AC3
:1099B000F2EE040A80EE201A84ED001A0020F0E78F
:1099C0002DE9F34F2DED028B83B0884602AB0222C6
:1099D0003221059800F06DF928B1012003B0BDECEB
:1099E000028B00F072B801AB01223521059800F01E
:1099F00060F908B10120F1E79DF808009DF8041016
:109A000001F0030140EA01269DF809009DF80410C9
:109A100001F00C0140EA8117F4104FEAE70B02ABAA
:109A200004223C21059800F044F908B10120D5E753
:109A30009DF808009DF8091040EA012005B29DF844
:109A40000A009DF80B1040EA01200FFA80F902ABE2
:109A500002222A21059800F02CF908B10120BDE767
:109A60009DF808009DF8091040EA01200FFA80FADD
:109A7000AAEB050000EE100AF8EEC00AABEB0400FA
:109A800000EE100AB8EEC00A20EE801AA9EB05001D
:109A900000EE100AB8EEC00AC1EE000A00EE104A4D
:109AA000B8EEC00A30EE800AB0EE408AB2EE040A88
:109AB00028EE000AB0EE408ABDEEC80A10EE100A89
:109AC00000B2A8F80000002088E71CBCBDE8E08FC9
:109AD00070B504460D4629462046FFF75BFE012877
